{
  "contractName": "SubManager",
  "abi": [
    {
      "inputs": [],
      "stateMutability": "nonpayable",
      "type": "constructor"
    },
    {
      "anonymous": false,
      "inputs": [
        {
          "indexed": true,
          "internalType": "address",
          "name": "owner",
          "type": "address"
        },
        {
          "indexed": true,
          "internalType": "address",
          "name": "approved",
          "type": "address"
        },
        {
          "indexed": true,
          "internalType": "uint256",
          "name": "tokenId",
          "type": "uint256"
        }
      ],
      "name": "Approval",
      "type": "event"
    },
    {
      "anonymous": false,
      "inputs": [
        {
          "indexed": true,
          "internalType": "address",
          "name": "owner",
          "type": "address"
        },
        {
          "indexed": true,
          "internalType": "address",
          "name": "operator",
          "type": "address"
        },
        {
          "indexed": false,
          "internalType": "bool",
          "name": "approved",
          "type": "bool"
        }
      ],
      "name": "ApprovalForAll",
      "type": "event"
    },
    {
      "anonymous": false,
      "inputs": [
        {
          "indexed": true,
          "internalType": "uint256",
          "name": "tokenId",
          "type": "uint256"
        }
      ],
      "name": "ContentApproved",
      "type": "event"
    },
    {
      "anonymous": false,
      "inputs": [
        {
          "indexed": true,
          "internalType": "uint256",
          "name": "tokenId",
          "type": "uint256"
        }
      ],
      "name": "ContentDeleted",
      "type": "event"
    },
    {
      "anonymous": false,
      "inputs": [
        {
          "indexed": true,
          "internalType": "uint256",
          "name": "tokenId",
          "type": "uint256"
        },
        {
          "indexed": false,
          "internalType": "string",
          "name": "name",
          "type": "string"
        },
        {
          "indexed": false,
          "internalType": "string",
          "name": "ipfsHash",
          "type": "string"
        },
        {
          "indexed": true,
          "internalType": "address",
          "name": "creator",
          "type": "address"
        }
      ],
      "name": "ContentRegistered",
      "type": "event"
    },
    {
      "anonymous": false,
      "inputs": [
        {
          "indexed": true,
          "internalType": "address",
          "name": "recipient",
          "type": "address"
        },
        {
          "indexed": false,
          "internalType": "uint256",
          "name": "amount",
          "type": "uint256"
        },
        {
          "indexed": false,
          "internalType": "bool",
          "name": "isPlatform",
          "type": "bool"
        }
      ],
      "name": "FundsWithdrawn",
      "type": "event"
    },
    {
      "anonymous": false,
      "inputs": [
        {
          "indexed": true,
          "internalType": "address",
          "name": "previousOwner",
          "type": "address"
        },
        {
          "indexed": true,
          "internalType": "address",
          "name": "newOwner",
          "type": "address"
        }
      ],
      "name": "OwnershipTransferred",
      "type": "event"
    },
    {
      "anonymous": false,
      "inputs": [
        {
          "indexed": true,
          "internalType": "uint256",
          "name": "tokenId",
          "type": "uint256"
        },
        {
          "indexed": true,
          "internalType": "address",
          "name": "subscriber",
          "type": "address"
        },
        {
          "indexed": false,
          "internalType": "uint256",
          "name": "expiresAt",
          "type": "uint256"
        },
        {
          "indexed": false,
          "internalType": "string",
          "name": "ipfsHash",
          "type": "string"
        }
      ],
      "name": "SubscriptionPurchased",
      "type": "event"
    },
    {
      "anonymous": false,
      "inputs": [
        {
          "indexed": true,
          "internalType": "address",
          "name": "from",
          "type": "address"
        },
        {
          "indexed": true,
          "internalType": "address",
          "name": "to",
          "type": "address"
        },
        {
          "indexed": true,
          "internalType": "uint256",
          "name": "tokenId",
          "type": "uint256"
        }
      ],
      "name": "Transfer",
      "type": "event"
    },
    {
      "inputs": [
        {
          "internalType": "address",
          "name": "to",
          "type": "address"
        },
        {
          "internalType": "uint256",
          "name": "tokenId",
          "type": "uint256"
        }
      ],
      "name": "approve",
      "outputs": [],
      "stateMutability": "nonpayable",
      "type": "function"
    },
    {
      "inputs": [
        {
          "internalType": "address",
          "name": "owner",
          "type": "address"
        }
      ],
      "name": "balanceOf",
      "outputs": [
        {
          "internalType": "uint256",
          "name": "",
          "type": "uint256"
        }
      ],
      "stateMutability": "view",
      "type": "function",
      "constant": true
    },
    {
      "inputs": [],
      "name": "creatorsPool",
      "outputs": [
        {
          "internalType": "uint256",
          "name": "",
          "type": "uint256"
        }
      ],
      "stateMutability": "view",
      "type": "function",
      "constant": true
    },
    {
      "inputs": [
        {
          "internalType": "uint256",
          "name": "tokenId",
          "type": "uint256"
        }
      ],
      "name": "getApproved",
      "outputs": [
        {
          "internalType": "address",
          "name": "",
          "type": "address"
        }
      ],
      "stateMutability": "view",
      "type": "function",
      "constant": true
    },
    {
      "inputs": [
        {
          "internalType": "address",
          "name": "owner",
          "type": "address"
        },
        {
          "internalType": "address",
          "name": "operator",
          "type": "address"
        }
      ],
      "name": "isApprovedForAll",
      "outputs": [
        {
          "internalType": "bool",
          "name": "",
          "type": "bool"
        }
      ],
      "stateMutability": "view",
      "type": "function",
      "constant": true
    },
    {
      "inputs": [],
      "name": "name",
      "outputs": [
        {
          "internalType": "string",
          "name": "",
          "type": "string"
        }
      ],
      "stateMutability": "view",
      "type": "function",
      "constant": true
    },
    {
      "inputs": [],
      "name": "owner",
      "outputs": [
        {
          "internalType": "address",
          "name": "",
          "type": "address"
        }
      ],
      "stateMutability": "view",
      "type": "function",
      "constant": true
    },
    {
      "inputs": [
        {
          "internalType": "uint256",
          "name": "tokenId",
          "type": "uint256"
        }
      ],
      "name": "ownerOf",
      "outputs": [
        {
          "internalType": "address",
          "name": "",
          "type": "address"
        }
      ],
      "stateMutability": "view",
      "type": "function",
      "constant": true
    },
    {
      "inputs": [],
      "name": "platformPool",
      "outputs": [
        {
          "internalType": "uint256",
          "name": "",
          "type": "uint256"
        }
      ],
      "stateMutability": "view",
      "type": "function",
      "constant": true
    },
    {
      "inputs": [],
      "name": "renounceOwnership",
      "outputs": [],
      "stateMutability": "nonpayable",
      "type": "function"
    },
    {
      "inputs": [
        {
          "internalType": "address",
          "name": "from",
          "type": "address"
        },
        {
          "internalType": "address",
          "name": "to",
          "type": "address"
        },
        {
          "internalType": "uint256",
          "name": "tokenId",
          "type": "uint256"
        }
      ],
      "name": "safeTransferFrom",
      "outputs": [],
      "stateMutability": "nonpayable",
      "type": "function"
    },
    {
      "inputs": [
        {
          "internalType": "address",
          "name": "from",
          "type": "address"
        },
        {
          "internalType": "address",
          "name": "to",
          "type": "address"
        },
        {
          "internalType": "uint256",
          "name": "tokenId",
          "type": "uint256"
        },
        {
          "internalType": "bytes",
          "name": "data",
          "type": "bytes"
        }
      ],
      "name": "safeTransferFrom",
      "outputs": [],
      "stateMutability": "nonpayable",
      "type": "function"
    },
    {
      "inputs": [
        {
          "internalType": "address",
          "name": "operator",
          "type": "address"
        },
        {
          "internalType": "bool",
          "name": "approved",
          "type": "bool"
        }
      ],
      "name": "setApprovalForAll",
      "outputs": [],
      "stateMutability": "nonpayable",
      "type": "function"
    },
    {
      "inputs": [],
      "name": "subscriptionPrice",
      "outputs": [
        {
          "internalType": "uint256",
          "name": "",
          "type": "uint256"
        }
      ],
      "stateMutability": "view",
      "type": "function",
      "constant": true
    },
    {
      "inputs": [],
      "name": "symbol",
      "outputs": [
        {
          "internalType": "string",
          "name": "",
          "type": "string"
        }
      ],
      "stateMutability": "view",
      "type": "function",
      "constant": true
    },
    {
      "inputs": [
        {
          "internalType": "uint256",
          "name": "index",
          "type": "uint256"
        }
      ],
      "name": "tokenByIndex",
      "outputs": [
        {
          "internalType": "uint256",
          "name": "",
          "type": "uint256"
        }
      ],
      "stateMutability": "view",
      "type": "function",
      "constant": true
    },
    {
      "inputs": [
        {
          "internalType": "address",
          "name": "owner",
          "type": "address"
        },
        {
          "internalType": "uint256",
          "name": "index",
          "type": "uint256"
        }
      ],
      "name": "tokenOfOwnerByIndex",
      "outputs": [
        {
          "internalType": "uint256",
          "name": "",
          "type": "uint256"
        }
      ],
      "stateMutability": "view",
      "type": "function",
      "constant": true
    },
    {
      "inputs": [
        {
          "internalType": "uint256",
          "name": "tokenId",
          "type": "uint256"
        }
      ],
      "name": "tokenURI",
      "outputs": [
        {
          "internalType": "string",
          "name": "",
          "type": "string"
        }
      ],
      "stateMutability": "view",
      "type": "function",
      "constant": true
    },
    {
      "inputs": [],
      "name": "totalSupply",
      "outputs": [
        {
          "internalType": "uint256",
          "name": "",
          "type": "uint256"
        }
      ],
      "stateMutability": "view",
      "type": "function",
      "constant": true
    },
    {
      "inputs": [
        {
          "internalType": "address",
          "name": "from",
          "type": "address"
        },
        {
          "internalType": "address",
          "name": "to",
          "type": "address"
        },
        {
          "internalType": "uint256",
          "name": "tokenId",
          "type": "uint256"
        }
      ],
      "name": "transferFrom",
      "outputs": [],
      "stateMutability": "nonpayable",
      "type": "function"
    },
    {
      "inputs": [
        {
          "internalType": "address",
          "name": "newOwner",
          "type": "address"
        }
      ],
      "name": "transferOwnership",
      "outputs": [],
      "stateMutability": "nonpayable",
      "type": "function"
    },
    {
      "inputs": [
        {
          "internalType": "string",
          "name": "name",
          "type": "string"
        },
        {
          "internalType": "string",
          "name": "ipfsHash",
          "type": "string"
        },
        {
          "internalType": "address",
          "name": "creator",
          "type": "address"
        }
      ],
      "name": "registerContent",
      "outputs": [],
      "stateMutability": "nonpayable",
      "type": "function"
    },
    {
      "inputs": [
        {
          "internalType": "uint256",
          "name": "contentTokenId",
          "type": "uint256"
        }
      ],
      "name": "approveContent",
      "outputs": [],
      "stateMutability": "nonpayable",
      "type": "function"
    },
    {
      "inputs": [
        {
          "internalType": "uint256",
          "name": "contentTokenId",
          "type": "uint256"
        }
      ],
      "name": "deleteContent",
      "outputs": [],
      "stateMutability": "nonpayable",
      "type": "function"
    },
    {
      "inputs": [
        {
          "internalType": "uint256",
          "name": "contentTokenId",
          "type": "uint256"
        }
      ],
      "name": "isContentApproved",
      "outputs": [
        {
          "internalType": "bool",
          "name": "",
          "type": "bool"
        }
      ],
      "stateMutability": "view",
      "type": "function",
      "constant": true
    },
    {
      "inputs": [
        {
          "internalType": "uint256",
          "name": "contentTokenId",
          "type": "uint256"
        }
      ],
      "name": "purchaseSubscription",
      "outputs": [],
      "stateMutability": "payable",
      "type": "function",
      "payable": true
    },
    {
      "inputs": [
        {
          "internalType": "uint256",
          "name": "contentTokenId",
          "type": "uint256"
        }
      ],
      "name": "contentExists",
      "outputs": [
        {
          "internalType": "bool",
          "name": "",
          "type": "bool"
        }
      ],
      "stateMutability": "view",
      "type": "function",
      "constant": true
    },
    {
      "inputs": [
        {
          "internalType": "uint256",
          "name": "contentTokenId",
          "type": "uint256"
        }
      ],
      "name": "getContentByTokenId",
      "outputs": [
        {
          "components": [
            {
              "internalType": "string",
              "name": "name",
              "type": "string"
            },
            {
              "internalType": "string",
              "name": "ipfsHash",
              "type": "string"
            },
            {
              "internalType": "address",
              "name": "creator",
              "type": "address"
            },
            {
              "internalType": "bool",
              "name": "approved",
              "type": "bool"
            }
          ],
          "internalType": "struct SubManager.Content",
          "name": "",
          "type": "tuple"
        }
      ],
      "stateMutability": "view",
      "type": "function",
      "constant": true
    },
    {
      "inputs": [
        {
          "internalType": "string",
          "name": "ipfsHash",
          "type": "string"
        }
      ],
      "name": "getTokenIdByIpfsHash",
      "outputs": [
        {
          "internalType": "uint256",
          "name": "",
          "type": "uint256"
        }
      ],
      "stateMutability": "view",
      "type": "function",
      "constant": true
    },
    {
      "inputs": [
        {
          "internalType": "uint256",
          "name": "subscriptionTokenId",
          "type": "uint256"
        }
      ],
      "name": "isSubscriptionValid",
      "outputs": [
        {
          "internalType": "bool",
          "name": "",
          "type": "bool"
        }
      ],
      "stateMutability": "view",
      "type": "function",
      "constant": true
    },
    {
      "inputs": [
        {
          "internalType": "uint256",
          "name": "subscriptionTokenId",
          "type": "uint256"
        }
      ],
      "name": "getContentIpfsHash",
      "outputs": [
        {
          "internalType": "string",
          "name": "",
          "type": "string"
        }
      ],
      "stateMutability": "view",
      "type": "function",
      "constant": true
    },
    {
      "inputs": [
        {
          "internalType": "uint256",
          "name": "tokenId",
          "type": "uint256"
        }
      ],
      "name": "getSubscriptionExpiry",
      "outputs": [
        {
          "internalType": "uint256",
          "name": "",
          "type": "uint256"
        }
      ],
      "stateMutability": "view",
      "type": "function",
      "constant": true
    },
    {
      "inputs": [
        {
          "internalType": "uint256",
          "name": "contentTokenId",
          "type": "uint256"
        }
      ],
      "name": "withdrawCreatorFunds",
      "outputs": [],
      "stateMutability": "nonpayable",
      "type": "function"
    },
    {
      "inputs": [],
      "name": "withdrawPlatformFunds",
      "outputs": [],
      "stateMutability": "nonpayable",
      "type": "function"
    },
    {
      "inputs": [
        {
          "internalType": "uint256",
          "name": "newPrice",
          "type": "uint256"
        }
      ],
      "name": "setSubscriptionPrice",
      "outputs": [],
      "stateMutability": "nonpayable",
      "type": "function"
    },
    {
      "inputs": [],
      "name": "getTotalContent",
      "outputs": [
        {
          "internalType": "uint256",
          "name": "",
          "type": "uint256"
        }
      ],
      "stateMutability": "view",
      "type": "function",
      "constant": true
    },
    {
      "inputs": [
        {
          "internalType": "bytes4",
          "name": "interfaceId",
          "type": "bytes4"
        }
      ],
      "name": "supportsInterface",
      "outputs": [
        {
          "internalType": "bool",
          "name": "",
          "type": "bool"
        }
      ],
      "stateMutability": "view",
      "type": "function",
      "constant": true
    }
  ],
  "bytecode": "0x6080604052662386f26fc10000600c553480156200001c57600080fd5b506040518060400160405280601381526020017f436f6e74656e74537562736372697074696f6e000000000000000000000000008152506040518060400160405280600481526020017f43535542000000000000000000000000000000000000000000000000000000008152508160009080519060200190620000a1929190620001b1565b508060019080519060200190620000ba929190620001b1565b505050620000dd620000d1620000e360201b60201c565b620000eb60201b60201c565b620002c6565b600033905090565b6000600a60009054906101000a900473ffffffffffffffffffffffffffffffffffffffff16905081600a60006101000a81548173ffffffffffffffffffffffffffffffffffffffff021916908373ffffffffffffffffffffffffffffffffffffffff1602179055508173ffffffffffffffffffffffffffffffffffffffff168173ffffffffffffffffffffffffffffffffffffffff167f8be0079c531659141344cd1fd0a4f28419497f9722a3daafe3b4186f6b6457e060405160405180910390a35050565b828054620001bf9062000261565b90600052602060002090601f016020900481019282620001e357600085556200022f565b82601f10620001fe57805160ff19168380011785556200022f565b828001600101855582156200022f579182015b828111156200022e57825182559160200191906001019062000211565b5b5090506200023e919062000242565b5090565b5b808211156200025d57600081600090555060010162000243565b5090565b600060028204905060018216806200027a57607f821691505b6020821081141562000291576200029062000297565b5b50919050565b7f4e487b7100000000000000000000000000000000000000000000000000000000600052602260045260246000fd5b61526b80620002d66000396000f3fe60806040526004361061021a5760003560e01c8063715018a611610123578063b3043cf4116100ab578063e985e9c51161006f578063e985e9c514610820578063e9862a411461085d578063f1f4c62e14610888578063f2fde38b146108c5578063fed216cb146108ee5761021a565b8063b3043cf41461073b578063b88d4fde14610752578063bdc8e54c1461077b578063bf23f4e7146107a6578063c87b56dd146107e35761021a565b80638edf72f5116100f25780638edf72f514610651578063954689ca1461066d57806395d89b41146106aa578063a0e26db9146106d5578063a22cb465146107125761021a565b8063715018a6146105a9578063724121ae146105c057806380d05aeb146105fd5780638da5cb5b146106265761021a565b80632f745c59116101a65780634f6ccce7116101755780634f6ccce71461048c578063589c9648146104c95780636352211e146104f2578063649b14a21461052f57806370a082311461056c5761021a565b80632f745c59146103d0578063335188061461040d5780633732ee4a1461043857806342842e0e146104635761021a565b8063095ea7b3116101ed578063095ea7b3146102ed57806313076d051461031657806318160ddd146103535780631a5ee7791461037e57806323b872dd146103a75761021a565b8063018112b81461021f57806301ffc9a71461024857806306fdde0314610285578063081812fc146102b0575b600080fd5b34801561022b57600080fd5b5061024660048036038101906102419190613d94565b610917565b005b34801561025457600080fd5b5061026f600480360381019061026a9190613c82565b610ca2565b60405161027c9190614413565b60405180910390f35b34801561029157600080fd5b5061029a610cb4565b6040516102a7919061442e565b60405180910390f35b3480156102bc57600080fd5b506102d760048036038101906102d29190613d94565b610d46565b6040516102e491906143ac565b60405180910390f35b3480156102f957600080fd5b50610314600480360381019061030f9190613c46565b610d8c565b005b34801561032257600080fd5b5061033d60048036038101906103389190613d94565b610ea4565b60405161034a919061442e565b60405180910390f35b34801561035f57600080fd5b50610368610f94565b60405161037591906147c9565b60405180910390f35b34801561038a57600080fd5b506103a560048036038101906103a09190613d94565b610fa1565b005b3480156103b357600080fd5b506103ce60048036038101906103c99190613b40565b610fb3565b005b3480156103dc57600080fd5b506103f760048036038101906103f29190613c46565b611013565b60405161040491906147c9565b60405180910390f35b34801561041957600080fd5b506104226110b8565b60405161042f91906147c9565b60405180910390f35b34801561044457600080fd5b5061044d6110be565b60405161045a91906147c9565b60405180910390f35b34801561046f57600080fd5b5061048a60048036038101906104859190613b40565b6110cf565b005b34801561049857600080fd5b506104b360048036038101906104ae9190613d94565b6110ef565b6040516104c091906147c9565b60405180910390f35b3480156104d557600080fd5b506104f060048036038101906104eb9190613d94565b611186565b005b3480156104fe57600080fd5b5061051960048036038101906105149190613d94565b611235565b60405161052691906143ac565b60405180910390f35b34801561053b57600080fd5b5061055660048036038101906105519190613d94565b6112bc565b60405161056391906147a7565b60405180910390f35b34801561057857600080fd5b50610593600480360381019061058e9190613adb565b6114c6565b6040516105a091906147c9565b60405180910390f35b3480156105b557600080fd5b506105be61157e565b005b3480156105cc57600080fd5b506105e760048036038101906105e29190613d94565b611592565b6040516105f49190614413565b60405180910390f35b34801561060957600080fd5b50610624600480360381019061061f9190613d15565b611601565b005b34801561063257600080fd5b5061063b611853565b60405161064891906143ac565b60405180910390f35b61066b60048036038101906106669190613d94565b61187d565b005b34801561067957600080fd5b50610694600480360381019061068f9190613d94565b611b58565b6040516106a19190614413565b60405180910390f35b3480156106b657600080fd5b506106bf611b85565b6040516106cc919061442e565b60405180910390f35b3480156106e157600080fd5b506106fc60048036038101906106f79190613d94565b611c17565b60405161070991906147c9565b60405180910390f35b34801561071e57600080fd5b5061073960048036038101906107349190613c0a565b611c37565b005b34801561074757600080fd5b50610750611c4d565b005b34801561075e57600080fd5b5061077960048036038101906107749190613b8f565b611d73565b005b34801561078757600080fd5b50610790611dd5565b60405161079d91906147c9565b60405180910390f35b3480156107b257600080fd5b506107cd60048036038101906107c89190613d94565b611ddb565b6040516107da9190614413565b60405180910390f35b3480156107ef57600080fd5b5061080a60048036038101906108059190613d94565b611e08565b604051610817919061442e565b60405180910390f35b34801561082c57600080fd5b5061084760048036038101906108429190613b04565b611e70565b6040516108549190614413565b60405180910390f35b34801561086957600080fd5b50610872611f04565b60405161087f91906147c9565b60405180910390f35b34801561089457600080fd5b506108af60048036038101906108aa9190613cd4565b611f0a565b6040516108bc91906147c9565b60405180910390f35b3480156108d157600080fd5b506108ec60048036038101906108e79190613adb565b611f7b565b005b3480156108fa57600080fd5b5061091560048036038101906109109190613d94565b611fff565b005b61092081611592565b61095f576040517f08c379a000000000000000000000000000000000000000000000000000000000815260040161095690614487565b60405180910390fd5b60006010600083815260200190815260200160002060405180608001604052908160008201805461098f90614b03565b80601f01602080910402602001604051908101604052809291908181526020018280546109bb90614b03565b8015610a085780601f106109dd57610100808354040283529160200191610a08565b820191906000526020600020905b8154815290600101906020018083116109eb57829003601f168201915b50505050508152602001600182018054610a2190614b03565b80601f0160208091040260200160405190810160405280929190818152602001828054610a4d90614b03565b8015610a9a5780601f10610a6f57610100808354040283529160200191610a9a565b820191906000526020600020905b815481529060010190602001808311610a7d57829003601f168201915b505050505081526020016002820160009054906101000a900473ffffffffffffffffffffffffffffffffffffffff1673ffffffffffffffffffffffffffffffffffffffff1673ffffffffffffffffffffffffffffffffffffffff1681526020016002820160149054906101000a900460ff16151515158152505090503373ffffffffffffffffffffffffffffffffffffffff16816040015173ffffffffffffffffffffffffffffffffffffffff1614610b88576040517f08c379a0000000000000000000000000000000000000000000000000000000008152600401610b7f90614587565b60405180910390fd5b6000600d5490506000600d819055506000826040015173ffffffffffffffffffffffffffffffffffffffff1682604051610bc190614397565b60006040518083038185875af1925050503d8060008114610bfe576040519150601f19603f3d011682016040523d82523d6000602084013e610c03565b606091505b5050905080610c47576040517f08c379a0000000000000000000000000000000000000000000000000000000008152600401610c3e906145a7565b60405180910390fd5b826040015173ffffffffffffffffffffffffffffffffffffffff167f1b7af42192901f68cf802e7304e6b3180f62c2a2c32062746bb50d6292a04674836000604051610c949291906147e4565b60405180910390a250505050565b6000610cad826121b6565b9050919050565b606060008054610cc390614b03565b80601f0160208091040260200160405190810160405280929190818152602001828054610cef90614b03565b8015610d3c5780601f10610d1157610100808354040283529160200191610d3c565b820191906000526020600020905b815481529060010190602001808311610d1f57829003601f168201915b5050505050905090565b6000610d5182612230565b6004600083815260200190815260200160002060009054906101000a900473ffffffffffffffffffffffffffffffffffffffff169050919050565b6000610d9782611235565b90508073ffffffffffffffffffffffffffffffffffffffff168373ffffffffffffffffffffffffffffffffffffffff161415610e08576040517f08c379a0000000000000000000000000000000000000000000000000000000008152600401610dff906146c7565b60405180910390fd5b8073ffffffffffffffffffffffffffffffffffffffff16610e2761227b565b73ffffffffffffffffffffffffffffffffffffffff161480610e565750610e5581610e5061227b565b611e70565b5b610e95576040517f08c379a0000000000000000000000000000000000000000000000000000000008152600401610e8c906146e7565b60405180910390fd5b610e9f8383612283565b505050565b6060610eaf82611b58565b610eee576040517f08c379a0000000000000000000000000000000000000000000000000000000008152600401610ee590614767565b60405180910390fd5b600f60008381526020019081526020016000206001018054610f0f90614b03565b80601f0160208091040260200160405190810160405280929190818152602001828054610f3b90614b03565b8015610f885780601f10610f5d57610100808354040283529160200191610f88565b820191906000526020600020905b815481529060010190602001808311610f6b57829003601f168201915b50505050509050919050565b6000600880549050905090565b610fa961233c565b80600c8190555050565b610fc4610fbe61227b565b826123ba565b611003576040517f08c379a0000000000000000000000000000000000000000000000000000000008152600401610ffa906144a7565b60405180910390fd5b61100e83838361244f565b505050565b600061101e836114c6565b821061105f576040517f08c379a0000000000000000000000000000000000000000000000000000000008152600401611056906144e7565b60405180910390fd5b600660008473ffffffffffffffffffffffffffffffffffffffff1673ffffffffffffffffffffffffffffffffffffffff168152602001908152602001600020600083815260200190815260200160002054905092915050565b600e5481565b60006110ca600b612749565b905090565b6110ea83838360405180602001604052806000815250611d73565b505050565b60006110f9610f94565b821061113a576040517f08c379a000000000000000000000000000000000000000000000000000000000815260040161113190614707565b60405180910390fd5b60088281548110611174577f4e487b7100000000000000000000000000000000000000000000000000000000600052603260045260246000fd5b90600052602060002001549050919050565b61118e61233c565b61119781611592565b6111d6576040517f08c379a00000000000000000000000000000000000000000000000000000000081526004016111cd90614487565b60405180910390fd5b60016010600083815260200190815260200160002060020160146101000a81548160ff021916908315150217905550807f0bdd97990a2a139e8c8eff9f47049ac9c6b2771fe5b1220c5e39cb0984c8885560405160405180910390a250565b60008061124183612757565b9050600073ffffffffffffffffffffffffffffffffffffffff168173ffffffffffffffffffffffffffffffffffffffff1614156112b3576040517f08c379a00000000000000000000000000000000000000000000000000000000081526004016112aa906146a7565b60405180910390fd5b80915050919050565b6112c461387f565b6112cd82611592565b61130c576040517f08c379a000000000000000000000000000000000000000000000000000000000815260040161130390614487565b60405180910390fd5b6010600083815260200190815260200160002060405180608001604052908160008201805461133a90614b03565b80601f016020809104026020016040519081016040528092919081815260200182805461136690614b03565b80156113b35780601f10611388576101008083540402835291602001916113b3565b820191906000526020600020905b81548152906001019060200180831161139657829003601f168201915b505050505081526020016001820180546113cc90614b03565b80601f01602080910402602001604051908101604052809291908181526020018280546113f890614b03565b80156114455780601f1061141a57610100808354040283529160200191611445565b820191906000526020600020905b81548152906001019060200180831161142857829003601f168201915b505050505081526020016002820160009054906101000a900473ffffffffffffffffffffffffffffffffffffffff1673ffffffffffffffffffffffffffffffffffffffff1673ffffffffffffffffffffffffffffffffffffffff1681526020016002820160149054906101000a900460ff1615151515815250509050919050565b60008073ffffffffffffffffffffffffffffffffffffffff168273ffffffffffffffffffffffffffffffffffffffff161415611537576040517f08c379a000000000000000000000000000000000000000000000000000000000815260040161152e90614607565b60405180910390fd5b600360008373ffffffffffffffffffffffffffffffffffffffff1673ffffffffffffffffffffffffffffffffffffffff168152602001908152602001600020549050919050565b61158661233c565b6115906000612794565b565b60008073ffffffffffffffffffffffffffffffffffffffff166010600084815260200190815260200160002060020160009054906101000a900473ffffffffffffffffffffffffffffffffffffffff1673ffffffffffffffffffffffffffffffffffffffff1614159050919050565b8073ffffffffffffffffffffffffffffffffffffffff163373ffffffffffffffffffffffffffffffffffffffff161461166f576040517f08c379a000000000000000000000000000000000000000000000000000000000815260040161166690614627565b60405180910390fd5b6000601183604051611681919061435c565b908152602001604051809103902054146116d0576040517f08c379a00000000000000000000000000000000000000000000000000000000081526004016116c7906144c7565b60405180910390fd5b60006116dc600b612749565b90506116e8600b61285a565b60405180608001604052808581526020018481526020018373ffffffffffffffffffffffffffffffffffffffff168152602001600015158152506010600083815260200190815260200160002060008201518160000190805190602001906117519291906138bf565b50602082015181600101908051906020019061176e9291906138bf565b5060408201518160020160006101000a81548173ffffffffffffffffffffffffffffffffffffffff021916908373ffffffffffffffffffffffffffffffffffffffff16021790555060608201518160020160146101000a81548160ff021916908315150217905550905050806011846040516117ea919061435c565b9081526020016040518091039020819055508173ffffffffffffffffffffffffffffffffffffffff16817f636e23ae449067068cb70d796e0d8cd4231830249a2eb8405d811ac38e42c48d8686604051611845929190614450565b60405180910390a350505050565b6000600a60009054906101000a900473ffffffffffffffffffffffffffffffffffffffff16905090565b600c543410156118c2576040517f08c379a00000000000000000000000000000000000000000000000000000000081526004016118b990614667565b60405180910390fd5b6118cb81611592565b61190a576040517f08c379a000000000000000000000000000000000000000000000000000000000815260040161190190614787565b60405180910390fd5b61191381611ddb565b611952576040517f08c379a000000000000000000000000000000000000000000000000000000000815260040161194990614727565b60405180910390fd5b60006064605a3461196391906149bf565b61196d919061498e565b905060006064600a3461198091906149bf565b61198a919061498e565b905081600d600082825461199e9190614938565b9250508190555080600e60008282546119b79190614938565b9250508190555060006119ca600b612749565b90506119d6600b61285a565b6119e03382612870565b604051806040016040528062278d00426119fa9190614938565b8152602001601060008781526020019081526020016000206001018054611a2090614b03565b80601f0160208091040260200160405190810160405280929190818152602001828054611a4c90614b03565b8015611a995780601f10611a6e57610100808354040283529160200191611a99565b820191906000526020600020905b815481529060010190602001808311611a7c57829003601f168201915b5050505050815250600f6000838152602001908152602001600020600082015181600001556020820151816001019080519060200190611ada9291906138bf565b509050503373ffffffffffffffffffffffffffffffffffffffff16817f9c4abfebc7fcb27eb74895802adaad7a22683a1d607058982323b009afa6eb2262278d0042611b269190614938565b60106000898152602001908152602001600020600101604051611b4a92919061480d565b60405180910390a350505050565b6000611b6382611235565b5042600f60008481526020019081526020016000206000015410159050919050565b606060018054611b9490614b03565b80601f0160208091040260200160405190810160405280929190818152602001828054611bc090614b03565b8015611c0d5780601f10611be257610100808354040283529160200191611c0d565b820191906000526020600020905b815481529060010190602001808311611bf057829003601f168201915b5050505050905090565b6000600f6000838152602001908152602001600020600001549050919050565b611c49611c4261227b565b838361288e565b5050565b611c5561233c565b6000600e5490506000600e819055506000611c6e611853565b73ffffffffffffffffffffffffffffffffffffffff1682604051611c9190614397565b60006040518083038185875af1925050503d8060008114611cce576040519150601f19603f3d011682016040523d82523d6000602084013e611cd3565b606091505b5050905080611d17576040517f08c379a0000000000000000000000000000000000000000000000000000000008152600401611d0e906145a7565b60405180910390fd5b611d1f611853565b73ffffffffffffffffffffffffffffffffffffffff167f1b7af42192901f68cf802e7304e6b3180f62c2a2c32062746bb50d6292a04674836001604051611d679291906147e4565b60405180910390a25050565b611d84611d7e61227b565b836123ba565b611dc3576040517f08c379a0000000000000000000000000000000000000000000000000000000008152600401611dba906144a7565b60405180910390fd5b611dcf848484846129fb565b50505050565b600c5481565b60006010600083815260200190815260200160002060020160149054906101000a900460ff169050919050565b6060611e1382612230565b6000611e1d612a57565b90506000815111611e3d5760405180602001604052806000815250611e68565b80611e4784612a6e565b604051602001611e58929190614373565b6040516020818303038152906040525b915050919050565b6000600560008473ffffffffffffffffffffffffffffffffffffffff1673ffffffffffffffffffffffffffffffffffffffff16815260200190815260200160002060008373ffffffffffffffffffffffffffffffffffffffff1673ffffffffffffffffffffffffffffffffffffffff16815260200190815260200160002060009054906101000a900460ff16905092915050565b600d5481565b600080601183604051611f1d919061435c565b90815260200160405180910390205490506000811415611f72576040517f08c379a0000000000000000000000000000000000000000000000000000000008152600401611f6990614487565b60405180910390fd5b80915050919050565b611f8361233c565b600073ffffffffffffffffffffffffffffffffffffffff168173ffffffffffffffffffffffffffffffffffffffff161415611ff3576040517f08c379a0000000000000000000000000000000000000000000000000000000008152600401611fea90614527565b60405180910390fd5b611ffc81612794565b50565b61200761233c565b61201081611592565b61204f576040517f08c379a000000000000000000000000000000000000000000000000000000000815260040161204690614487565b60405180910390fd5b600060106000838152602001908152602001600020600101805461207290614b03565b80601f016020809104026020016040519081016040528092919081815260200182805461209e90614b03565b80156120eb5780601f106120c0576101008083540402835291602001916120eb565b820191906000526020600020905b8154815290600101906020018083116120ce57829003601f168201915b5050505050905060106000838152602001908152602001600020600080820160006121169190613945565b6001820160006121269190613945565b6002820160006101000a81549073ffffffffffffffffffffffffffffffffffffffff02191690556002820160146101000a81549060ff02191690555050601181604051612173919061435c565b908152602001604051809103902060009055817fbdc5f307127ee49be7848b431e1fe06bfcd681e3a7ee8b050febfc95c48d973c60405160405180910390a25050565b60007f780e9d63000000000000000000000000000000000000000000000000000000007bffffffffffffffffffffffffffffffffffffffffffffffffffffffff1916827bffffffffffffffffffffffffffffffffffffffffffffffffffffffff19161480612229575061222882612b92565b5b9050919050565b61223981612c74565b612278576040517f08c379a000000000000000000000000000000000000000000000000000000000815260040161226f906146a7565b60405180910390fd5b50565b600033905090565b816004600083815260200190815260200160002060006101000a81548173ffffffffffffffffffffffffffffffffffffffff021916908373ffffffffffffffffffffffffffffffffffffffff160217905550808273ffffffffffffffffffffffffffffffffffffffff166122f683611235565b73ffffffffffffffffffffffffffffffffffffffff167f8c5be1e5ebec7d5bd14f71427d1e84f3dd0314c0f7b2291e5b200ac8c7c3b92560405160405180910390a45050565b61234461227b565b73ffffffffffffffffffffffffffffffffffffffff16612362611853565b73ffffffffffffffffffffffffffffffffffffffff16146123b8576040517f08c379a00000000000000000000000000000000000000000000000000000000081526004016123af90614687565b60405180910390fd5b565b6000806123c683611235565b90508073ffffffffffffffffffffffffffffffffffffffff168473ffffffffffffffffffffffffffffffffffffffff16148061240857506124078185611e70565b5b8061244657508373ffffffffffffffffffffffffffffffffffffffff1661242e84610d46565b73ffffffffffffffffffffffffffffffffffffffff16145b91505092915050565b8273ffffffffffffffffffffffffffffffffffffffff1661246f82611235565b73ffffffffffffffffffffffffffffffffffffffff16146124c5576040517f08c379a00000000000000000000000000000000000000000000000000000000081526004016124bc90614547565b60405180910390fd5b600073ffffffffffffffffffffffffffffffffffffffff168273ffffffffffffffffffffffffffffffffffffffff161415612535576040517f08c379a000000000000000000000000000000000000000000000000000000000815260040161252c906145c7565b60405180910390fd5b6125428383836001612cb5565b8273ffffffffffffffffffffffffffffffffffffffff1661256282611235565b73ffffffffffffffffffffffffffffffffffffffff16146125b8576040517f08c379a00000000000000000000000000000000000000000000000000000000081526004016125af90614547565b60405180910390fd5b6004600082815260200190815260200160002060006101000a81549073ffffffffffffffffffffffffffffffffffffffff02191690556001600360008573ffffffffffffffffffffffffffffffffffffffff1673ffffffffffffffffffffffffffffffffffffffff168152602001908152602001600020600082825403925050819055506001600360008473ffffffffffffffffffffffffffffffffffffffff1673ffffffffffffffffffffffffffffffffffffffff16815260200190815260200160002060008282540192505081905550816002600083815260200190815260200160002060006101000a81548173ffffffffffffffffffffffffffffffffffffffff021916908373ffffffffffffffffffffffffffffffffffffffff160217905550808273ffffffffffffffffffffffffffffffffffffffff168473ffffffffffffffffffffffffffffffffffffffff167fddf252ad1be2c89b69c2b068fc378daa952ba7f163c4a11628f55a4df523b3ef60405160405180910390a46127448383836001612cc7565b505050565b600081600001549050919050565b60006002600083815260200190815260200160002060009054906101000a900473ffffffffffffffffffffffffffffffffffffffff169050919050565b6000600a60009054906101000a900473ffffffffffffffffffffffffffffffffffffffff16905081600a60006101000a81548173ffffffffffffffffffffffffffffffffffffffff021916908373ffffffffffffffffffffffffffffffffffffffff1602179055508173ffffffffffffffffffffffffffffffffffffffff168173ffffffffffffffffffffffffffffffffffffffff167f8be0079c531659141344cd1fd0a4f28419497f9722a3daafe3b4186f6b6457e060405160405180910390a35050565b6001816000016000828254019250508190555050565b61288a828260405180602001604052806000815250612ccd565b5050565b8173ffffffffffffffffffffffffffffffffffffffff168373ffffffffffffffffffffffffffffffffffffffff1614156128fd576040517f08c379a00000000000000000000000000000000000000000000000000000000081526004016128f4906145e7565b60405180910390fd5b80600560008573ffffffffffffffffffffffffffffffffffffffff1673ffffffffffffffffffffffffffffffffffffffff16815260200190815260200160002060008473ffffffffffffffffffffffffffffffffffffffff1673ffffffffffffffffffffffffffffffffffffffff16815260200190815260200160002060006101000a81548160ff0219169083151502179055508173ffffffffffffffffffffffffffffffffffffffff168373ffffffffffffffffffffffffffffffffffffffff167f17307eab39ab6107e8899845ad3d59bd9653f200f220920489ca2b5937696c31836040516129ee9190614413565b60405180910390a3505050565b612a0684848461244f565b612a1284848484612d28565b612a51576040517f08c379a0000000000000000000000000000000000000000000000000000000008152600401612a4890614507565b60405180910390fd5b50505050565b606060405180602001604052806000815250905090565b606060006001612a7d84612ebf565b01905060008167ffffffffffffffff811115612ac2577f4e487b7100000000000000000000000000000000000000000000000000000000600052604160045260246000fd5b6040519080825280601f01601f191660200182016040528015612af45781602001600182028036833780820191505090505b509050600082602001820190505b600115612b87578080600190039150507f3031323334353637383961626364656600000000000000000000000000000000600a86061a8153600a8581612b71577f4e487b7100000000000000000000000000000000000000000000000000000000600052601260045260246000fd5b0494506000851415612b8257612b87565b612b02565b819350505050919050565b60007f80ac58cd000000000000000000000000000000000000000000000000000000007bffffffffffffffffffffffffffffffffffffffffffffffffffffffff1916827bffffffffffffffffffffffffffffffffffffffffffffffffffffffff19161480612c5d57507f5b5e139f000000000000000000000000000000000000000000000000000000007bffffffffffffffffffffffffffffffffffffffffffffffffffffffff1916827bffffffffffffffffffffffffffffffffffffffffffffffffffffffff1916145b80612c6d5750612c6c826130f6565b5b9050919050565b60008073ffffffffffffffffffffffffffffffffffffffff16612c9683612757565b73ffffffffffffffffffffffffffffffffffffffff1614159050919050565b612cc184848484613160565b50505050565b50505050565b612cd783836132c0565b612ce46000848484612d28565b612d23576040517f08c379a0000000000000000000000000000000000000000000000000000000008152600401612d1a90614507565b60405180910390fd5b505050565b6000612d498473ffffffffffffffffffffffffffffffffffffffff166134de565b15612eb2578373ffffffffffffffffffffffffffffffffffffffff1663150b7a02612d7261227b565b8786866040518563ffffffff1660e01b8152600401612d9494939291906143c7565b602060405180830381600087803b158015612dae57600080fd5b505af1925050508015612ddf57506040513d601f19601f82011682018060405250810190612ddc9190613cab565b60015b612e62573d8060008114612e0f576040519150601f19603f3d011682016040523d82523d6000602084013e612e14565b606091505b50600081511415612e5a576040517f08c379a0000000000000000000000000000000000000000000000000000000008152600401612e5190614507565b60405180910390fd5b805181602001fd5b63150b7a0260e01b7bffffffffffffffffffffffffffffffffffffffffffffffffffffffff1916817bffffffffffffffffffffffffffffffffffffffffffffffffffffffff191614915050612eb7565b600190505b949350505050565b600080600090507a184f03e93ff9f4daa797ed6e38ed64bf6a1f0100000000000000008310612f43577a184f03e93ff9f4daa797ed6e38ed64bf6a1f0100000000000000008381612f39577f4e487b7100000000000000000000000000000000000000000000000000000000600052601260045260246000fd5b0492506040810190505b6d04ee2d6d415b85acef81000000008310612fa6576d04ee2d6d415b85acef81000000008381612f9c577f4e487b7100000000000000000000000000000000000000000000000000000000600052601260045260246000fd5b0492506020810190505b662386f26fc100008310612ffb57662386f26fc100008381612ff1577f4e487b7100000000000000000000000000000000000000000000000000000000600052601260045260246000fd5b0492506010810190505b6305f5e100831061304a576305f5e1008381613040577f4e487b7100000000000000000000000000000000000000000000000000000000600052601260045260246000fd5b0492506008810190505b612710831061309557612710838161308b577f4e487b7100000000000000000000000000000000000000000000000000000000600052601260045260246000fd5b0492506004810190505b606483106130de57606483816130d4577f4e487b7100000000000000000000000000000000000000000000000000000000600052601260045260246000fd5b0492506002810190505b600a83106130ed576001810190505b80915050919050565b60007f01ffc9a7000000000000000000000000000000000000000000000000000000007bffffffffffffffffffffffffffffffffffffffffffffffffffffffff1916827bffffffffffffffffffffffffffffffffffffffffffffffffffffffff1916149050919050565b61316c84848484613501565b60018111156131b0576040517f08c379a00000000000000000000000000000000000000000000000000000000081526004016131a790614747565b60405180910390fd5b6000829050600073ffffffffffffffffffffffffffffffffffffffff168573ffffffffffffffffffffffffffffffffffffffff1614156131f8576131f381613507565b613237565b8373ffffffffffffffffffffffffffffffffffffffff168573ffffffffffffffffffffffffffffffffffffffff1614613236576132358582613550565b5b5b600073ffffffffffffffffffffffffffffffffffffffff168473ffffffffffffffffffffffffffffffffffffffff16141561327a57613275816136bd565b6132b9565b8473ffffffffffffffffffffffffffffffffffffffff168473ffffffffffffffffffffffffffffffffffffffff16146132b8576132b78482613800565b5b5b5050505050565b600073ffffffffffffffffffffffffffffffffffffffff168273ffffffffffffffffffffffffffffffffffffffff161415613330576040517f08c379a000000000000000000000000000000000000000000000000000000000815260040161332790614647565b60405180910390fd5b61333981612c74565b15613379576040517f08c379a000000000000000000000000000000000000000000000000000000000815260040161337090614567565b60405180910390fd5b613387600083836001612cb5565b61339081612c74565b156133d0576040517f08c379a00000000000000000000000000000000000000000000000000000000081526004016133c790614567565b60405180910390fd5b6001600360008473ffffffffffffffffffffffffffffffffffffffff1673ffffffffffffffffffffffffffffffffffffffff16815260200190815260200160002060008282540192505081905550816002600083815260200190815260200160002060006101000a81548173ffffffffffffffffffffffffffffffffffffffff021916908373ffffffffffffffffffffffffffffffffffffffff160217905550808273ffffffffffffffffffffffffffffffffffffffff16600073ffffffffffffffffffffffffffffffffffffffff167fddf252ad1be2c89b69c2b068fc378daa952ba7f163c4a11628f55a4df523b3ef60405160405180910390a46134da600083836001612cc7565b5050565b6000808273ffffffffffffffffffffffffffffffffffffffff163b119050919050565b50505050565b6008805490506009600083815260200190815260200160002081905550600881908060018154018082558091505060019003906000526020600020016000909190919091505550565b6000600161355d846114c6565b6135679190614a19565b905060006007600084815260200190815260200160002054905081811461364c576000600660008673ffffffffffffffffffffffffffffffffffffffff1673ffffffffffffffffffffffffffffffffffffffff168152602001908152602001600020600084815260200190815260200160002054905080600660008773ffffffffffffffffffffffffffffffffffffffff1673ffffffffffffffffffffffffffffffffffffffff168152602001908152602001600020600084815260200190815260200160002081905550816007600083815260200190815260200160002081905550505b6007600084815260200190815260200160002060009055600660008573ffffffffffffffffffffffffffffffffffffffff1673ffffffffffffffffffffffffffffffffffffffff16815260200190815260200160002060008381526020019081526020016000206000905550505050565b600060016008805490506136d19190614a19565b9050600060096000848152602001908152602001600020549050600060088381548110613727577f4e487b7100000000000000000000000000000000000000000000000000000000600052603260045260246000fd5b90600052602060002001549050806008838154811061376f577f4e487b7100000000000000000000000000000000000000000000000000000000600052603260045260246000fd5b9060005260206000200181905550816009600083815260200190815260200160002081905550600960008581526020019081526020016000206000905560088054806137e4577f4e487b7100000000000000000000000000000000000000000000000000000000600052603160045260246000fd5b6001900381819060005260206000200160009055905550505050565b600061380b836114c6565b905081600660008573ffffffffffffffffffffffffffffffffffffffff1673ffffffffffffffffffffffffffffffffffffffff168152602001908152602001600020600083815260200190815260200160002081905550806007600084815260200190815260200160002081905550505050565b60405180608001604052806060815260200160608152602001600073ffffffffffffffffffffffffffffffffffffffff1681526020016000151581525090565b8280546138cb90614b03565b90600052602060002090601f0160209004810192826138ed5760008555613934565b82601f1061390657805160ff1916838001178555613934565b82800160010185558215613934579182015b82811115613933578251825591602001919060010190613918565b5b5090506139419190613985565b5090565b50805461395190614b03565b6000825580601f106139635750613982565b601f0160209004906000526020600020908101906139819190613985565b5b50565b5b8082111561399e576000816000905550600101613986565b5090565b60006139b56139b084614862565b61483d565b9050828152602081018484840111156139cd57600080fd5b6139d8848285614ac1565b509392505050565b60006139f36139ee84614893565b61483d565b905082815260208101848484011115613a0b57600080fd5b613a16848285614ac1565b509392505050565b600081359050613a2d816151d9565b92915050565b600081359050613a42816151f0565b92915050565b600081359050613a5781615207565b92915050565b600081519050613a6c81615207565b92915050565b600082601f830112613a8357600080fd5b8135613a938482602086016139a2565b91505092915050565b600082601f830112613aad57600080fd5b8135613abd8482602086016139e0565b91505092915050565b600081359050613ad58161521e565b92915050565b600060208284031215613aed57600080fd5b6000613afb84828501613a1e565b91505092915050565b60008060408385031215613b1757600080fd5b6000613b2585828601613a1e565b9250506020613b3685828601613a1e565b9150509250929050565b600080600060608486031215613b5557600080fd5b6000613b6386828701613a1e565b9350506020613b7486828701613a1e565b9250506040613b8586828701613ac6565b9150509250925092565b60008060008060808587031215613ba557600080fd5b6000613bb387828801613a1e565b9450506020613bc487828801613a1e565b9350506040613bd587828801613ac6565b925050606085013567ffffffffffffffff811115613bf257600080fd5b613bfe87828801613a72565b91505092959194509250565b60008060408385031215613c1d57600080fd5b6000613c2b85828601613a1e565b9250506020613c3c85828601613a33565b9150509250929050565b60008060408385031215613c5957600080fd5b6000613c6785828601613a1e565b9250506020613c7885828601613ac6565b9150509250929050565b600060208284031215613c9457600080fd5b6000613ca284828501613a48565b91505092915050565b600060208284031215613cbd57600080fd5b6000613ccb84828501613a5d565b91505092915050565b600060208284031215613ce657600080fd5b600082013567ffffffffffffffff811115613d0057600080fd5b613d0c84828501613a9c565b91505092915050565b600080600060608486031215613d2a57600080fd5b600084013567ffffffffffffffff811115613d4457600080fd5b613d5086828701613a9c565b935050602084013567ffffffffffffffff811115613d6d57600080fd5b613d7986828701613a9c565b9250506040613d8a86828701613a1e565b9150509250925092565b600060208284031215613da657600080fd5b6000613db484828501613ac6565b91505092915050565b613dc681614a4d565b82525050565b613dd581614a4d565b82525050565b613de481614a5f565b82525050565b613df381614a5f565b82525050565b6000613e04826148d9565b613e0e81856148ef565b9350613e1e818560208601614ad0565b613e2781614c22565b840191505092915050565b6000613e3d826148e4565b613e47818561490b565b9350613e57818560208601614ad0565b613e6081614c22565b840191505092915050565b6000613e76826148e4565b613e80818561491c565b9350613e90818560208601614ad0565b613e9981614c22565b840191505092915050565b6000613eaf826148e4565b613eb9818561492d565b9350613ec9818560208601614ad0565b80840191505092915050565b60008154613ee281614b03565b613eec818661491c565b94506001821660008114613f075760018114613f1957613f4c565b60ff1983168652602086019350613f4c565b613f22856148c4565b60005b83811015613f4457815481890152600182019150602081019050613f25565b808801955050505b50505092915050565b6000613f6260118361491c565b9150613f6d82614c33565b602082019050919050565b6000613f85602d8361491c565b9150613f9082614c5c565b604082019050919050565b6000613fa8601a8361491c565b9150613fb382614cab565b602082019050919050565b6000613fcb602b8361491c565b9150613fd682614cd4565b604082019050919050565b6000613fee60328361491c565b9150613ff982614d23565b604082019050919050565b600061401160268361491c565b915061401c82614d72565b604082019050919050565b600061403460258361491c565b915061403f82614dc1565b604082019050919050565b6000614057601c8361491c565b915061406282614e10565b602082019050919050565b600061407a60178361491c565b915061408582614e39565b602082019050919050565b600061409d60148361491c565b91506140a882614e62565b602082019050919050565b60006140c060248361491c565b91506140cb82614e8b565b604082019050919050565b60006140e360198361491c565b91506140ee82614eda565b602082019050919050565b600061410660298361491c565b915061411182614f03565b604082019050919050565b600061412960178361491c565b915061413482614f52565b602082019050919050565b600061414c60208361491c565b915061415782614f7b565b602082019050919050565b600061416f60148361491c565b915061417a82614fa4565b602082019050919050565b600061419260208361491c565b915061419d82614fcd565b602082019050919050565b60006141b560188361491c565b91506141c082614ff6565b602082019050919050565b60006141d860218361491c565b91506141e38261501f565b604082019050919050565b60006141fb600083614900565b91506142068261506e565b600082019050919050565b600061421e603d8361491c565b915061422982615071565b604082019050919050565b6000614241602c8361491c565b915061424c826150c0565b604082019050919050565b600061426460188361491c565b915061426f8261510f565b602082019050919050565b600061428760358361491c565b915061429282615138565b604082019050919050565b60006142aa60148361491c565b91506142b582615187565b602082019050919050565b60006142cd60168361491c565b91506142d8826151b0565b602082019050919050565b600060808301600083015184820360008601526143008282613e32565b9150506020830151848203602086015261431a8282613e32565b915050604083015161432f6040860182613dbd565b5060608301516143426060860182613ddb565b508091505092915050565b61435681614ab7565b82525050565b60006143688284613ea4565b915081905092915050565b600061437f8285613ea4565b915061438b8284613ea4565b91508190509392505050565b60006143a2826141ee565b9150819050919050565b60006020820190506143c16000830184613dcc565b92915050565b60006080820190506143dc6000830187613dcc565b6143e96020830186613dcc565b6143f6604083018561434d565b81810360608301526144088184613df9565b905095945050505050565b60006020820190506144286000830184613dea565b92915050565b600060208201905081810360008301526144488184613e6b565b905092915050565b6000604082019050818103600083015261446a8185613e6b565b9050818103602083015261447e8184613e6b565b90509392505050565b600060208201905081810360008301526144a081613f55565b9050919050565b600060208201905081810360008301526144c081613f78565b9050919050565b600060208201905081810360008301526144e081613f9b565b9050919050565b6000602082019050818103600083015261450081613fbe565b9050919050565b6000602082019050818103600083015261452081613fe1565b9050919050565b6000602082019050818103600083015261454081614004565b9050919050565b6000602082019050818103600083015261456081614027565b9050919050565b600060208201905081810360008301526145808161404a565b9050919050565b600060208201905081810360008301526145a08161406d565b9050919050565b600060208201905081810360008301526145c081614090565b9050919050565b600060208201905081810360008301526145e0816140b3565b9050919050565b60006020820190508181036000830152614600816140d6565b9050919050565b60006020820190508181036000830152614620816140f9565b9050919050565b600060208201905081810360008301526146408161411c565b9050919050565b600060208201905081810360008301526146608161413f565b9050919050565b6000602082019050818103600083015261468081614162565b9050919050565b600060208201905081810360008301526146a081614185565b9050919050565b600060208201905081810360008301526146c0816141a8565b9050919050565b600060208201905081810360008301526146e0816141cb565b9050919050565b6000602082019050818103600083015261470081614211565b9050919050565b6000602082019050818103600083015261472081614234565b9050919050565b6000602082019050818103600083015261474081614257565b9050919050565b600060208201905081810360008301526147608161427a565b9050919050565b600060208201905081810360008301526147808161429d565b9050919050565b600060208201905081810360008301526147a0816142c0565b9050919050565b600060208201905081810360008301526147c181846142e3565b905092915050565b60006020820190506147de600083018461434d565b92915050565b60006040820190506147f9600083018561434d565b6148066020830184613dea565b9392505050565b6000604082019050614822600083018561434d565b81810360208301526148348184613ed5565b90509392505050565b6000614847614858565b90506148538282614b35565b919050565b6000604051905090565b600067ffffffffffffffff82111561487d5761487c614bf3565b5b61488682614c22565b9050602081019050919050565b600067ffffffffffffffff8211156148ae576148ad614bf3565b5b6148b782614c22565b9050602081019050919050565b60008190508160005260206000209050919050565b600081519050919050565b600081519050919050565b600082825260208201905092915050565b600081905092915050565b600082825260208201905092915050565b600082825260208201905092915050565b600081905092915050565b600061494382614ab7565b915061494e83614ab7565b9250827fffffffffffffffffffffffffffffffffffffffffffffffffffffffffffffffff0382111561498357614982614b66565b5b828201905092915050565b600061499982614ab7565b91506149a483614ab7565b9250826149b4576149b3614b95565b5b828204905092915050565b60006149ca82614ab7565b91506149d583614ab7565b9250817fffffffffffffffffffffffffffffffffffffffffffffffffffffffffffffffff0483118215151615614a0e57614a0d614b66565b5b828202905092915050565b6000614a2482614ab7565b9150614a2f83614ab7565b925082821015614a4257614a41614b66565b5b828203905092915050565b6000614a5882614a97565b9050919050565b60008115159050919050565b60007fffffffff0000000000000000000000000000000000000000000000000000000082169050919050565b600073ffffffffffffffffffffffffffffffffffffffff82169050919050565b6000819050919050565b82818337600083830152505050565b60005b83811015614aee578082015181840152602081019050614ad3565b83811115614afd576000848401525b50505050565b60006002820490506001821680614b1b57607f821691505b60208210811415614b2f57614b2e614bc4565b5b50919050565b614b3e82614c22565b810181811067ffffffffffffffff82111715614b5d57614b5c614bf3565b5b80604052505050565b7f4e487b7100000000000000000000000000000000000000000000000000000000600052601160045260246000fd5b7f4e487b7100000000000000000000000000000000000000000000000000000000600052601260045260246000fd5b7f4e487b7100000000000000000000000000000000000000000000000000000000600052602260045260246000fd5b7f4e487b7100000000000000000000000000000000000000000000000000000000600052604160045260246000fd5b6000601f19601f8301169050919050565b7f436f6e74656e74206e6f7420666f756e64000000000000000000000000000000600082015250565b7f4552433732313a2063616c6c6572206973206e6f7420746f6b656e206f776e6560008201527f72206f7220617070726f76656400000000000000000000000000000000000000602082015250565b7f436f6e74656e7420616c72656164792072656769737465726564000000000000600082015250565b7f455243373231456e756d657261626c653a206f776e657220696e646578206f7560008201527f74206f6620626f756e6473000000000000000000000000000000000000000000602082015250565b7f4552433732313a207472616e7366657220746f206e6f6e20455243373231526560008201527f63656976657220696d706c656d656e7465720000000000000000000000000000602082015250565b7f4f776e61626c653a206e6577206f776e657220697320746865207a65726f206160008201527f6464726573730000000000000000000000000000000000000000000000000000602082015250565b7f4552433732313a207472616e736665722066726f6d20696e636f72726563742060008201527f6f776e6572000000000000000000000000000000000000000000000000000000602082015250565b7f4552433732313a20746f6b656e20616c7265616479206d696e74656400000000600082015250565b7f4e6f742074686520636f6e74656e742063726561746f72000000000000000000600082015250565b7f4661696c656420746f2073656e64204574686572000000000000000000000000600082015250565b7f4552433732313a207472616e7366657220746f20746865207a65726f2061646460008201527f7265737300000000000000000000000000000000000000000000000000000000602082015250565b7f4552433732313a20617070726f766520746f2063616c6c657200000000000000600082015250565b7f4552433732313a2061646472657373207a65726f206973206e6f74206120766160008201527f6c6964206f776e65720000000000000000000000000000000000000000000000602082015250565b7f596f75206d757374206265207468652063726561746f72000000000000000000600082015250565b7f4552433732313a206d696e7420746f20746865207a65726f2061646472657373600082015250565b7f496e73756666696369656e74207061796d656e74000000000000000000000000600082015250565b7f4f776e61626c653a2063616c6c6572206973206e6f7420746865206f776e6572600082015250565b7f4552433732313a20696e76616c696420746f6b656e2049440000000000000000600082015250565b7f4552433732313a20617070726f76616c20746f2063757272656e74206f776e6560008201527f7200000000000000000000000000000000000000000000000000000000000000602082015250565b50565b7f4552433732313a20617070726f76652063616c6c6572206973206e6f7420746f60008201527f6b656e206f776e6572206f7220617070726f76656420666f7220616c6c000000602082015250565b7f455243373231456e756d657261626c653a20676c6f62616c20696e646578206f60008201527f7574206f6620626f756e64730000000000000000000000000000000000000000602082015250565b7f436f6e74656e74206e6f7420617070726f766564207965740000000000000000600082015250565b7f455243373231456e756d657261626c653a20636f6e736563757469766520747260008201527f616e7366657273206e6f7420737570706f727465640000000000000000000000602082015250565b7f537562736372697074696f6e2065787069726564000000000000000000000000600082015250565b7f436f6e74656e74206e6f74207265676973746572656400000000000000000000600082015250565b6151e281614a4d565b81146151ed57600080fd5b50565b6151f981614a5f565b811461520457600080fd5b50565b61521081614a6b565b811461521b57600080fd5b50565b61522781614ab7565b811461523257600080fd5b5056fea26469706673582212209a860e9d02a31b452d0e4196aa26e9012496f3b00212349f3213fb792b12bd8564736f6c63430008010033",
  "immutableReferences": {},
  "source": "// SPDX-License-Identifier: MIT\r\npragma solidity ^0.8.1;\r\n\r\nimport \"@openzeppelin/contracts/token/ERC721/extensions/ERC721Enumerable.sol\";\r\nimport \"@openzeppelin/contracts/access/Ownable.sol\";\r\nimport \"@openzeppelin/contracts/utils/Counters.sol\";\r\n\r\ncontract SubManager is ERC721Enumerable, Ownable {\r\n    using Counters for Counters.Counter;\r\n    Counters.Counter private _tokenIdCounter;\r\n\r\n    struct Subscription {\r\n        uint256 expiresAt;\r\n        string ipfsHash;\r\n    }\r\n\r\n    struct Content {\r\n        string name;\r\n        string ipfsHash;\r\n        address creator;\r\n        bool approved;\r\n    }\r\n\r\n    uint256 public subscriptionPrice = 0.01 ether;\r\n    uint256 public creatorsPool;\r\n    uint256 public platformPool;\r\n\r\n    uint256 private constant CREATORS_SHARE = 90;\r\n    uint256 private constant PLATFORM_SHARE = 10;\r\n\r\n    mapping(uint256 => Subscription) private _subscriptions;\r\n    mapping(uint256 => Content) private _registeredContents;\r\n    mapping(string => uint256) private _ipfsToTokenId;\r\n\r\n    event SubscriptionPurchased(\r\n        uint256 indexed tokenId,\r\n        address indexed subscriber,\r\n        uint256 expiresAt,\r\n        string ipfsHash\r\n    );\r\n\r\n    event ContentRegistered(\r\n        uint256 indexed tokenId,\r\n        string name,\r\n        string ipfsHash,\r\n        address indexed creator\r\n    );\r\n\r\n    event ContentApproved(uint256 indexed tokenId);\r\n\r\n    event ContentDeleted(uint256 indexed tokenId);\r\n\r\n    event FundsWithdrawn(\r\n        address indexed recipient,\r\n        uint256 amount,\r\n        bool isPlatform\r\n    );\r\n\r\n    constructor() ERC721(\"ContentSubscription\", \"CSUB\") {}\r\n\r\n    function registerContent(string memory name, string memory ipfsHash, address creator) external {\r\n        require(msg.sender == creator, \"You must be the creator\");\r\n        require(_ipfsToTokenId[ipfsHash] == 0, \"Content already registered\");\r\n\r\n        uint256 contentTokenId = _tokenIdCounter.current();\r\n        _tokenIdCounter.increment();\r\n\r\n        _registeredContents[contentTokenId] = Content({\r\n            name: name,\r\n            ipfsHash: ipfsHash,\r\n            creator: creator,\r\n            approved: false\r\n        });\r\n\r\n        _ipfsToTokenId[ipfsHash] = contentTokenId;\r\n\r\n        emit ContentRegistered(contentTokenId, name, ipfsHash, creator);\r\n    }\r\n\r\n    function approveContent(uint256 contentTokenId) external onlyOwner {\r\n        require(contentExists(contentTokenId), \"Content not found\");\r\n        _registeredContents[contentTokenId].approved = true;\r\n        emit ContentApproved(contentTokenId);\r\n    }\r\n\r\n    function deleteContent(uint256 contentTokenId) external onlyOwner {\r\n        require(contentExists(contentTokenId), \"Content not found\");\r\n        string memory ipfsHash = _registeredContents[contentTokenId].ipfsHash;\r\n        delete _registeredContents[contentTokenId];\r\n        delete _ipfsToTokenId[ipfsHash];\r\n        emit ContentDeleted(contentTokenId);\r\n    }\r\n\r\n    function isContentApproved(uint256 contentTokenId) public view returns (bool) {\r\n        return _registeredContents[contentTokenId].approved;\r\n    }\r\n\r\n    function purchaseSubscription(uint256 contentTokenId) external payable {\r\n        require(msg.value >= subscriptionPrice, \"Insufficient payment\");\r\n        require(contentExists(contentTokenId), \"Content not registered\");\r\n        require(isContentApproved(contentTokenId), \"Content not approved yet\");\r\n\r\n        uint256 creatorsShare = (msg.value * CREATORS_SHARE) / 100;\r\n        uint256 platformShare = (msg.value * PLATFORM_SHARE) / 100;\r\n\r\n        creatorsPool += creatorsShare;\r\n        platformPool += platformShare;\r\n\r\n        uint256 subscriptionTokenId = _tokenIdCounter.current();\r\n        _tokenIdCounter.increment();\r\n        _safeMint(msg.sender, subscriptionTokenId);\r\n\r\n        _subscriptions[subscriptionTokenId] = Subscription({\r\n            expiresAt: block.timestamp + 30 days,\r\n            ipfsHash: _registeredContents[contentTokenId].ipfsHash\r\n        });\r\n\r\n        emit SubscriptionPurchased(\r\n            subscriptionTokenId,\r\n            msg.sender,\r\n            block.timestamp + 30 days,\r\n            _registeredContents[contentTokenId].ipfsHash\r\n        );\r\n    }\r\n\r\n    function contentExists(uint256 contentTokenId) public view returns (bool) {\r\n        return _registeredContents[contentTokenId].creator != address(0);\r\n    }\r\n\r\n    function getContentByTokenId(uint256 contentTokenId) external view returns (Content memory) {\r\n        require(contentExists(contentTokenId), \"Content not found\");\r\n        return _registeredContents[contentTokenId];\r\n    }\r\n\r\n    function getTokenIdByIpfsHash(string memory ipfsHash) external view returns (uint256) {\r\n        uint256 tokenId = _ipfsToTokenId[ipfsHash];\r\n        require(tokenId != 0, \"Content not found\");\r\n        return tokenId;\r\n    }\r\n\r\n    function isSubscriptionValid(uint256 subscriptionTokenId) public view returns (bool) {\r\n        ownerOf(subscriptionTokenId);\r\n        return _subscriptions[subscriptionTokenId].expiresAt >= block.timestamp;\r\n    }\r\n\r\n    function getContentIpfsHash(uint256 subscriptionTokenId) external view returns (string memory) {\r\n        require(isSubscriptionValid(subscriptionTokenId), \"Subscription expired\");\r\n        return _subscriptions[subscriptionTokenId].ipfsHash;\r\n    }\r\n\r\n    function getSubscriptionExpiry(uint256 tokenId) external view returns (uint256) {\r\n        return _subscriptions[tokenId].expiresAt;\r\n    }\r\n\r\n    function withdrawCreatorFunds(uint256 contentTokenId) external {\r\n        require(contentExists(contentTokenId), \"Content not found\");\r\n        Content memory content = _registeredContents[contentTokenId];\r\n        require(content.creator == msg.sender, \"Not the content creator\");\r\n\r\n        uint256 amount = creatorsPool;\r\n        creatorsPool = 0;\r\n\r\n        (bool sent, ) = content.creator.call{value: amount}(\"\");\r\n        require(sent, \"Failed to send Ether\");\r\n\r\n        emit FundsWithdrawn(content.creator, amount, false);\r\n    }\r\n\r\n    function withdrawPlatformFunds() external onlyOwner {\r\n        uint256 amount = platformPool;\r\n        platformPool = 0;\r\n\r\n        (bool sent, ) = owner().call{value: amount}(\"\");\r\n        require(sent, \"Failed to send Ether\");\r\n\r\n        emit FundsWithdrawn(owner(), amount, true);\r\n    }\r\n\r\n    function setSubscriptionPrice(uint256 newPrice) external onlyOwner {\r\n        subscriptionPrice = newPrice;\r\n    }\r\n\r\n    function getTotalContent() public view returns (uint256) {\r\n        return _tokenIdCounter.current();\r\n    }\r\n\r\n    function _beforeTokenTransfer(address from, address to, uint256 tokenId, uint256 batchSize)\r\n        internal\r\n        override(ERC721Enumerable)\r\n    {\r\n        super._beforeTokenTransfer(from, to, tokenId, batchSize);\r\n    }\r\n\r\n    function supportsInterface(bytes4 interfaceId)\r\n        public\r\n        view\r\n        override(ERC721Enumerable)\r\n        returns (bool)\r\n    {\r\n        return super.supportsInterface(interfaceId);\r\n    }\r\n}",
  "sourcePath": "C:\\Users\\Aryan Gupta\\Desktop\\CCMP-606\\submanager\\submanager-main\\truffle\\contracts\\subManager.sol",
  "compiler": {
    "name": "solc",
    "version": "0.8.1+commit.df193b15.Emscripten.clang"
  },
  "schemaVersion": "3.4.16",
  "updatedAt": "2025-04-17T03:53:43.235Z",
  "networkType": "ethereum",
  "devdoc": {
    "kind": "dev",
    "methods": {
      "approve(address,uint256)": {
        "details": "See {IERC721-approve}."
      },
      "balanceOf(address)": {
        "details": "See {IERC721-balanceOf}."
      },
      "getApproved(uint256)": {
        "details": "See {IERC721-getApproved}."
      },
      "isApprovedForAll(address,address)": {
        "details": "See {IERC721-isApprovedForAll}."
      },
      "name()": {
        "details": "See {IERC721Metadata-name}."
      },
      "owner()": {
        "details": "Returns the address of the current owner."
      },
      "ownerOf(uint256)": {
        "details": "See {IERC721-ownerOf}."
      },
      "renounceOwnership()": {
        "details": "Leaves the contract without owner. It will not be possible to call `onlyOwner` functions. Can only be called by the current owner. NOTE: Renouncing ownership will leave the contract without an owner, thereby disabling any functionality that is only available to the owner."
      },
      "safeTransferFrom(address,address,uint256)": {
        "details": "See {IERC721-safeTransferFrom}."
      },
      "safeTransferFrom(address,address,uint256,bytes)": {
        "details": "See {IERC721-safeTransferFrom}."
      },
      "setApprovalForAll(address,bool)": {
        "details": "See {IERC721-setApprovalForAll}."
      },
      "supportsInterface(bytes4)": {
        "details": "See {IERC165-supportsInterface}."
      },
      "symbol()": {
        "details": "See {IERC721Metadata-symbol}."
      },
      "tokenByIndex(uint256)": {
        "details": "See {IERC721Enumerable-tokenByIndex}."
      },
      "tokenOfOwnerByIndex(address,uint256)": {
        "details": "See {IERC721Enumerable-tokenOfOwnerByIndex}."
      },
      "tokenURI(uint256)": {
        "details": "See {IERC721Metadata-tokenURI}."
      },
      "totalSupply()": {
        "details": "See {IERC721Enumerable-totalSupply}."
      },
      "transferFrom(address,address,uint256)": {
        "details": "See {IERC721-transferFrom}."
      },
      "transferOwnership(address)": {
        "details": "Transfers ownership of the contract to a new account (`newOwner`). Can only be called by the current owner."
      }
    },
    "version": 1
  },
  "userdoc": {
    "kind": "user",
    "methods": {},
    "version": 1
  }
}