{
  "contractName": "SubManager",
  "abi": [
    {
      "inputs": [],
      "stateMutability": "nonpayable",
      "type": "constructor"
    },
    {
      "anonymous": false,
      "inputs": [
        {
          "indexed": true,
          "internalType": "address",
          "name": "owner",
          "type": "address"
        },
        {
          "indexed": true,
          "internalType": "address",
          "name": "approved",
          "type": "address"
        },
        {
          "indexed": true,
          "internalType": "uint256",
          "name": "tokenId",
          "type": "uint256"
        }
      ],
      "name": "Approval",
      "type": "event"
    },
    {
      "anonymous": false,
      "inputs": [
        {
          "indexed": true,
          "internalType": "address",
          "name": "owner",
          "type": "address"
        },
        {
          "indexed": true,
          "internalType": "address",
          "name": "operator",
          "type": "address"
        },
        {
          "indexed": false,
          "internalType": "bool",
          "name": "approved",
          "type": "bool"
        }
      ],
      "name": "ApprovalForAll",
      "type": "event"
    },
    {
      "anonymous": false,
      "inputs": [
        {
          "indexed": true,
          "internalType": "uint256",
          "name": "tokenId",
          "type": "uint256"
        }
      ],
      "name": "ContentApproved",
      "type": "event"
    },
    {
      "anonymous": false,
      "inputs": [
        {
          "indexed": true,
          "internalType": "uint256",
          "name": "tokenId",
          "type": "uint256"
        }
      ],
      "name": "ContentDeleted",
      "type": "event"
    },
    {
      "anonymous": false,
      "inputs": [
        {
          "indexed": true,
          "internalType": "uint256",
          "name": "tokenId",
          "type": "uint256"
        },
        {
          "indexed": false,
          "internalType": "string",
          "name": "name",
          "type": "string"
        },
        {
          "indexed": false,
          "internalType": "string",
          "name": "ipfsHash",
          "type": "string"
        },
        {
          "indexed": true,
          "internalType": "address",
          "name": "creator",
          "type": "address"
        }
      ],
      "name": "ContentRegistered",
      "type": "event"
    },
    {
      "anonymous": false,
      "inputs": [
        {
          "indexed": true,
          "internalType": "address",
          "name": "recipient",
          "type": "address"
        },
        {
          "indexed": false,
          "internalType": "uint256",
          "name": "amount",
          "type": "uint256"
        },
        {
          "indexed": false,
          "internalType": "bool",
          "name": "isPlatform",
          "type": "bool"
        }
      ],
      "name": "FundsWithdrawn",
      "type": "event"
    },
    {
      "anonymous": false,
      "inputs": [
        {
          "indexed": true,
          "internalType": "address",
          "name": "previousOwner",
          "type": "address"
        },
        {
          "indexed": true,
          "internalType": "address",
          "name": "newOwner",
          "type": "address"
        }
      ],
      "name": "OwnershipTransferred",
      "type": "event"
    },
    {
      "anonymous": false,
      "inputs": [
        {
          "indexed": true,
          "internalType": "uint256",
          "name": "tokenId",
          "type": "uint256"
        },
        {
          "indexed": true,
          "internalType": "address",
          "name": "subscriber",
          "type": "address"
        },
        {
          "indexed": false,
          "internalType": "uint256",
          "name": "expiresAt",
          "type": "uint256"
        },
        {
          "indexed": false,
          "internalType": "string",
          "name": "ipfsHash",
          "type": "string"
        }
      ],
      "name": "SubscriptionPurchased",
      "type": "event"
    },
    {
      "anonymous": false,
      "inputs": [
        {
          "indexed": true,
          "internalType": "address",
          "name": "from",
          "type": "address"
        },
        {
          "indexed": true,
          "internalType": "address",
          "name": "to",
          "type": "address"
        },
        {
          "indexed": true,
          "internalType": "uint256",
          "name": "tokenId",
          "type": "uint256"
        }
      ],
      "name": "Transfer",
      "type": "event"
    },
    {
      "inputs": [
        {
          "internalType": "address",
          "name": "to",
          "type": "address"
        },
        {
          "internalType": "uint256",
          "name": "tokenId",
          "type": "uint256"
        }
      ],
      "name": "approve",
      "outputs": [],
      "stateMutability": "nonpayable",
      "type": "function"
    },
    {
      "inputs": [
        {
          "internalType": "address",
          "name": "owner",
          "type": "address"
        }
      ],
      "name": "balanceOf",
      "outputs": [
        {
          "internalType": "uint256",
          "name": "",
          "type": "uint256"
        }
      ],
      "stateMutability": "view",
      "type": "function",
      "constant": true
    },
    {
      "inputs": [],
      "name": "creatorsPool",
      "outputs": [
        {
          "internalType": "uint256",
          "name": "",
          "type": "uint256"
        }
      ],
      "stateMutability": "view",
      "type": "function",
      "constant": true
    },
    {
      "inputs": [
        {
          "internalType": "uint256",
          "name": "tokenId",
          "type": "uint256"
        }
      ],
      "name": "getApproved",
      "outputs": [
        {
          "internalType": "address",
          "name": "",
          "type": "address"
        }
      ],
      "stateMutability": "view",
      "type": "function",
      "constant": true
    },
    {
      "inputs": [
        {
          "internalType": "address",
          "name": "owner",
          "type": "address"
        },
        {
          "internalType": "address",
          "name": "operator",
          "type": "address"
        }
      ],
      "name": "isApprovedForAll",
      "outputs": [
        {
          "internalType": "bool",
          "name": "",
          "type": "bool"
        }
      ],
      "stateMutability": "view",
      "type": "function",
      "constant": true
    },
    {
      "inputs": [],
      "name": "name",
      "outputs": [
        {
          "internalType": "string",
          "name": "",
          "type": "string"
        }
      ],
      "stateMutability": "view",
      "type": "function",
      "constant": true
    },
    {
      "inputs": [],
      "name": "owner",
      "outputs": [
        {
          "internalType": "address",
          "name": "",
          "type": "address"
        }
      ],
      "stateMutability": "view",
      "type": "function",
      "constant": true
    },
    {
      "inputs": [
        {
          "internalType": "uint256",
          "name": "tokenId",
          "type": "uint256"
        }
      ],
      "name": "ownerOf",
      "outputs": [
        {
          "internalType": "address",
          "name": "",
          "type": "address"
        }
      ],
      "stateMutability": "view",
      "type": "function",
      "constant": true
    },
    {
      "inputs": [],
      "name": "platformPool",
      "outputs": [
        {
          "internalType": "uint256",
          "name": "",
          "type": "uint256"
        }
      ],
      "stateMutability": "view",
      "type": "function",
      "constant": true
    },
    {
      "inputs": [],
      "name": "renounceOwnership",
      "outputs": [],
      "stateMutability": "nonpayable",
      "type": "function"
    },
    {
      "inputs": [
        {
          "internalType": "address",
          "name": "from",
          "type": "address"
        },
        {
          "internalType": "address",
          "name": "to",
          "type": "address"
        },
        {
          "internalType": "uint256",
          "name": "tokenId",
          "type": "uint256"
        }
      ],
      "name": "safeTransferFrom",
      "outputs": [],
      "stateMutability": "nonpayable",
      "type": "function"
    },
    {
      "inputs": [
        {
          "internalType": "address",
          "name": "from",
          "type": "address"
        },
        {
          "internalType": "address",
          "name": "to",
          "type": "address"
        },
        {
          "internalType": "uint256",
          "name": "tokenId",
          "type": "uint256"
        },
        {
          "internalType": "bytes",
          "name": "data",
          "type": "bytes"
        }
      ],
      "name": "safeTransferFrom",
      "outputs": [],
      "stateMutability": "nonpayable",
      "type": "function"
    },
    {
      "inputs": [
        {
          "internalType": "address",
          "name": "operator",
          "type": "address"
        },
        {
          "internalType": "bool",
          "name": "approved",
          "type": "bool"
        }
      ],
      "name": "setApprovalForAll",
      "outputs": [],
      "stateMutability": "nonpayable",
      "type": "function"
    },
    {
      "inputs": [],
      "name": "subscriptionPrice",
      "outputs": [
        {
          "internalType": "uint256",
          "name": "",
          "type": "uint256"
        }
      ],
      "stateMutability": "view",
      "type": "function",
      "constant": true
    },
    {
      "inputs": [],
      "name": "symbol",
      "outputs": [
        {
          "internalType": "string",
          "name": "",
          "type": "string"
        }
      ],
      "stateMutability": "view",
      "type": "function",
      "constant": true
    },
    {
      "inputs": [
        {
          "internalType": "uint256",
          "name": "index",
          "type": "uint256"
        }
      ],
      "name": "tokenByIndex",
      "outputs": [
        {
          "internalType": "uint256",
          "name": "",
          "type": "uint256"
        }
      ],
      "stateMutability": "view",
      "type": "function",
      "constant": true
    },
    {
      "inputs": [
        {
          "internalType": "address",
          "name": "owner",
          "type": "address"
        },
        {
          "internalType": "uint256",
          "name": "index",
          "type": "uint256"
        }
      ],
      "name": "tokenOfOwnerByIndex",
      "outputs": [
        {
          "internalType": "uint256",
          "name": "",
          "type": "uint256"
        }
      ],
      "stateMutability": "view",
      "type": "function",
      "constant": true
    },
    {
      "inputs": [
        {
          "internalType": "uint256",
          "name": "tokenId",
          "type": "uint256"
        }
      ],
      "name": "tokenURI",
      "outputs": [
        {
          "internalType": "string",
          "name": "",
          "type": "string"
        }
      ],
      "stateMutability": "view",
      "type": "function",
      "constant": true
    },
    {
      "inputs": [],
      "name": "totalSupply",
      "outputs": [
        {
          "internalType": "uint256",
          "name": "",
          "type": "uint256"
        }
      ],
      "stateMutability": "view",
      "type": "function",
      "constant": true
    },
    {
      "inputs": [
        {
          "internalType": "address",
          "name": "from",
          "type": "address"
        },
        {
          "internalType": "address",
          "name": "to",
          "type": "address"
        },
        {
          "internalType": "uint256",
          "name": "tokenId",
          "type": "uint256"
        }
      ],
      "name": "transferFrom",
      "outputs": [],
      "stateMutability": "nonpayable",
      "type": "function"
    },
    {
      "inputs": [
        {
          "internalType": "address",
          "name": "newOwner",
          "type": "address"
        }
      ],
      "name": "transferOwnership",
      "outputs": [],
      "stateMutability": "nonpayable",
      "type": "function"
    },
    {
      "inputs": [
        {
          "internalType": "string",
          "name": "name",
          "type": "string"
        },
        {
          "internalType": "string",
          "name": "ipfsHash",
          "type": "string"
        },
        {
          "internalType": "address",
          "name": "creator",
          "type": "address"
        }
      ],
      "name": "registerContent",
      "outputs": [],
      "stateMutability": "nonpayable",
      "type": "function"
    },
    {
      "inputs": [
        {
          "internalType": "uint256",
          "name": "contentTokenId",
          "type": "uint256"
        }
      ],
      "name": "approveContent",
      "outputs": [],
      "stateMutability": "nonpayable",
      "type": "function"
    },
    {
      "inputs": [
        {
          "internalType": "uint256",
          "name": "contentTokenId",
          "type": "uint256"
        }
      ],
      "name": "deleteContent",
      "outputs": [],
      "stateMutability": "nonpayable",
      "type": "function"
    },
    {
      "inputs": [
        {
          "internalType": "uint256",
          "name": "contentTokenId",
          "type": "uint256"
        }
      ],
      "name": "isContentApproved",
      "outputs": [
        {
          "internalType": "bool",
          "name": "",
          "type": "bool"
        }
      ],
      "stateMutability": "view",
      "type": "function",
      "constant": true
    },
    {
      "inputs": [
        {
          "internalType": "uint256",
          "name": "contentTokenId",
          "type": "uint256"
        }
      ],
      "name": "purchaseSubscription",
      "outputs": [],
      "stateMutability": "payable",
      "type": "function",
      "payable": true
    },
    {
      "inputs": [
        {
          "internalType": "uint256",
          "name": "contentTokenId",
          "type": "uint256"
        }
      ],
      "name": "contentExists",
      "outputs": [
        {
          "internalType": "bool",
          "name": "",
          "type": "bool"
        }
      ],
      "stateMutability": "view",
      "type": "function",
      "constant": true
    },
    {
      "inputs": [
        {
          "internalType": "uint256",
          "name": "contentTokenId",
          "type": "uint256"
        }
      ],
      "name": "getContentByTokenId",
      "outputs": [
        {
          "components": [
            {
              "internalType": "string",
              "name": "name",
              "type": "string"
            },
            {
              "internalType": "string",
              "name": "ipfsHash",
              "type": "string"
            },
            {
              "internalType": "address",
              "name": "creator",
              "type": "address"
            },
            {
              "internalType": "bool",
              "name": "approved",
              "type": "bool"
            }
          ],
          "internalType": "struct SubManager.Content",
          "name": "",
          "type": "tuple"
        }
      ],
      "stateMutability": "view",
      "type": "function",
      "constant": true
    },
    {
      "inputs": [
        {
          "internalType": "string",
          "name": "ipfsHash",
          "type": "string"
        }
      ],
      "name": "getTokenIdByIpfsHash",
      "outputs": [
        {
          "internalType": "uint256",
          "name": "",
          "type": "uint256"
        }
      ],
      "stateMutability": "view",
      "type": "function",
      "constant": true
    },
    {
      "inputs": [
        {
          "internalType": "uint256",
          "name": "subscriptionTokenId",
          "type": "uint256"
        }
      ],
      "name": "isSubscriptionValid",
      "outputs": [
        {
          "internalType": "bool",
          "name": "",
          "type": "bool"
        }
      ],
      "stateMutability": "view",
      "type": "function",
      "constant": true
    },
    {
      "inputs": [
        {
          "internalType": "uint256",
          "name": "subscriptionTokenId",
          "type": "uint256"
        }
      ],
      "name": "getContentIpfsHash",
      "outputs": [
        {
          "internalType": "string",
          "name": "",
          "type": "string"
        }
      ],
      "stateMutability": "view",
      "type": "function",
      "constant": true
    },
    {
      "inputs": [
        {
          "internalType": "uint256",
          "name": "tokenId",
          "type": "uint256"
        }
      ],
      "name": "getSubscriptionExpiry",
      "outputs": [
        {
          "internalType": "uint256",
          "name": "",
          "type": "uint256"
        }
      ],
      "stateMutability": "view",
      "type": "function",
      "constant": true
    },
    {
      "inputs": [
        {
          "internalType": "uint256",
          "name": "contentTokenId",
          "type": "uint256"
        }
      ],
      "name": "withdrawCreatorFunds",
      "outputs": [],
      "stateMutability": "nonpayable",
      "type": "function"
    },
    {
      "inputs": [],
      "name": "withdrawPlatformFunds",
      "outputs": [],
      "stateMutability": "nonpayable",
      "type": "function"
    },
    {
      "inputs": [
        {
          "internalType": "uint256",
          "name": "newPrice",
          "type": "uint256"
        }
      ],
      "name": "setSubscriptionPrice",
      "outputs": [],
      "stateMutability": "nonpayable",
      "type": "function"
    },
    {
      "inputs": [],
      "name": "getTotalContent",
      "outputs": [
        {
          "internalType": "uint256",
          "name": "",
          "type": "uint256"
        }
      ],
      "stateMutability": "view",
      "type": "function",
      "constant": true
    },
    {
      "inputs": [
        {
          "internalType": "bytes4",
          "name": "interfaceId",
          "type": "bytes4"
        }
      ],
      "name": "supportsInterface",
      "outputs": [
        {
          "internalType": "bool",
          "name": "",
          "type": "bool"
        }
      ],
      "stateMutability": "view",
      "type": "function",
      "constant": true
    }
  ],
  "bytecode": "0x6080604052662386f26fc10000600c553480156200001c57600080fd5b506040518060400160405280601381526020017f436f6e74656e74537562736372697074696f6e000000000000000000000000008152506040518060400160405280600481526020017f435355420000000000000000000000000000000000000000000000000000000081525081600090816200009a91906200041d565b508060019081620000ac91906200041d565b505050620000cf620000c3620000d560201b60201c565b620000dd60201b60201c565b62000504565b600033905090565b6000600a60009054906101000a900473ffffffffffffffffffffffffffffffffffffffff16905081600a60006101000a81548173ffffffffffffffffffffffffffffffffffffffff021916908373ffffffffffffffffffffffffffffffffffffffff1602179055508173ffffffffffffffffffffffffffffffffffffffff168173ffffffffffffffffffffffffffffffffffffffff167f8be0079c531659141344cd1fd0a4f28419497f9722a3daafe3b4186f6b6457e060405160405180910390a35050565b600081519050919050565b7f4e487b7100000000000000000000000000000000000000000000000000000000600052604160045260246000fd5b7f4e487b7100000000000000000000000000000000000000000000000000000000600052602260045260246000fd5b600060028204905060018216806200022557607f821691505b6020821081036200023b576200023a620001dd565b5b50919050565b60008190508160005260206000209050919050565b60006020601f8301049050919050565b600082821b905092915050565b600060088302620002a57fffffffffffffffffffffffffffffffffffffffffffffffffffffffffffffffff8262000266565b620002b1868362000266565b95508019841693508086168417925050509392505050565b6000819050919050565b6000819050919050565b6000620002fe620002f8620002f284620002c9565b620002d3565b620002c9565b9050919050565b6000819050919050565b6200031a83620002dd565b62000332620003298262000305565b84845462000273565b825550505050565b600090565b620003496200033a565b620003568184846200030f565b505050565b5b818110156200037e57620003726000826200033f565b6001810190506200035c565b5050565b601f821115620003cd57620003978162000241565b620003a28462000256565b81016020851015620003b2578190505b620003ca620003c18562000256565b8301826200035b565b50505b505050565b600082821c905092915050565b6000620003f260001984600802620003d2565b1980831691505092915050565b60006200040d8383620003df565b9150826002028217905092915050565b6200042882620001a3565b67ffffffffffffffff811115620004445762000443620001ae565b5b6200045082546200020c565b6200045d82828562000382565b600060209050601f83116001811462000495576000841562000480578287015190505b6200048c8582620003ff565b865550620004fc565b601f198416620004a58662000241565b60005b82811015620004cf57848901518255600182019150602085019450602081019050620004a8565b86831015620004ef5784890151620004eb601f891682620003df565b8355505b6001600288020188555050505b505050505050565b6152cb80620005146000396000f3fe60806040526004361061021a5760003560e01c8063715018a611610123578063b3043cf4116100ab578063e985e9c51161006f578063e985e9c514610820578063e9862a411461085d578063f1f4c62e14610888578063f2fde38b146108c5578063fed216cb146108ee5761021a565b8063b3043cf41461073b578063b88d4fde14610752578063bdc8e54c1461077b578063bf23f4e7146107a6578063c87b56dd146107e35761021a565b80638edf72f5116100f25780638edf72f514610651578063954689ca1461066d57806395d89b41146106aa578063a0e26db9146106d5578063a22cb465146107125761021a565b8063715018a6146105a9578063724121ae146105c057806380d05aeb146105fd5780638da5cb5b146106265761021a565b80632f745c59116101a65780634f6ccce7116101755780634f6ccce71461048c578063589c9648146104c95780636352211e146104f2578063649b14a21461052f57806370a082311461056c5761021a565b80632f745c59146103d0578063335188061461040d5780633732ee4a1461043857806342842e0e146104635761021a565b8063095ea7b3116101ed578063095ea7b3146102ed57806313076d051461031657806318160ddd146103535780631a5ee7791461037e57806323b872dd146103a75761021a565b8063018112b81461021f57806301ffc9a71461024857806306fdde0314610285578063081812fc146102b0575b600080fd5b34801561022b57600080fd5b5061024660048036038101906102419190613765565b610917565b005b34801561025457600080fd5b5061026f600480360381019061026a91906137ea565b610ca2565b60405161027c9190613832565b60405180910390f35b34801561029157600080fd5b5061029a610cb4565b6040516102a791906138dd565b60405180910390f35b3480156102bc57600080fd5b506102d760048036038101906102d29190613765565b610d46565b6040516102e49190613940565b60405180910390f35b3480156102f957600080fd5b50610314600480360381019061030f9190613987565b610d8c565b005b34801561032257600080fd5b5061033d60048036038101906103389190613765565b610ea3565b60405161034a91906138dd565b60405180910390f35b34801561035f57600080fd5b50610368610f93565b60405161037591906139d6565b60405180910390f35b34801561038a57600080fd5b506103a560048036038101906103a09190613765565b610fa0565b005b3480156103b357600080fd5b506103ce60048036038101906103c991906139f1565b610fb2565b005b3480156103dc57600080fd5b506103f760048036038101906103f29190613987565b611012565b60405161040491906139d6565b60405180910390f35b34801561041957600080fd5b506104226110b7565b60405161042f91906139d6565b60405180910390f35b34801561044457600080fd5b5061044d6110bd565b60405161045a91906139d6565b60405180910390f35b34801561046f57600080fd5b5061048a600480360381019061048591906139f1565b6110ce565b005b34801561049857600080fd5b506104b360048036038101906104ae9190613765565b6110ee565b6040516104c091906139d6565b60405180910390f35b3480156104d557600080fd5b506104f060048036038101906104eb9190613765565b61115f565b005b3480156104fe57600080fd5b5061051960048036038101906105149190613765565b61120e565b6040516105269190613940565b60405180910390f35b34801561053b57600080fd5b5061055660048036038101906105519190613765565b611294565b6040516105639190613b16565b60405180910390f35b34801561057857600080fd5b50610593600480360381019061058e9190613b38565b61149e565b6040516105a091906139d6565b60405180910390f35b3480156105b557600080fd5b506105be611555565b005b3480156105cc57600080fd5b506105e760048036038101906105e29190613765565b611569565b6040516105f49190613832565b60405180910390f35b34801561060957600080fd5b50610624600480360381019061061f9190613c9a565b6115d8565b005b34801561063257600080fd5b5061063b61181c565b6040516106489190613940565b60405180910390f35b61066b60048036038101906106669190613765565b611846565b005b34801561067957600080fd5b50610694600480360381019061068f9190613765565b611b1a565b6040516106a19190613832565b60405180910390f35b3480156106b657600080fd5b506106bf611b47565b6040516106cc91906138dd565b60405180910390f35b3480156106e157600080fd5b506106fc60048036038101906106f79190613765565b611bd9565b60405161070991906139d6565b60405180910390f35b34801561071e57600080fd5b5061073960048036038101906107349190613d51565b611bf9565b005b34801561074757600080fd5b50610750611c0f565b005b34801561075e57600080fd5b5061077960048036038101906107749190613e32565b611d35565b005b34801561078757600080fd5b50610790611d97565b60405161079d91906139d6565b60405180910390f35b3480156107b257600080fd5b506107cd60048036038101906107c89190613765565b611d9d565b6040516107da9190613832565b60405180910390f35b3480156107ef57600080fd5b5061080a60048036038101906108059190613765565b611dca565b60405161081791906138dd565b60405180910390f35b34801561082c57600080fd5b5061084760048036038101906108429190613eb5565b611e32565b6040516108549190613832565b60405180910390f35b34801561086957600080fd5b50610872611ec6565b60405161087f91906139d6565b60405180910390f35b34801561089457600080fd5b506108af60048036038101906108aa9190613ef5565b611ecc565b6040516108bc91906139d6565b60405180910390f35b3480156108d157600080fd5b506108ec60048036038101906108e79190613b38565b611f3c565b005b3480156108fa57600080fd5b5061091560048036038101906109109190613765565b611fbf565b005b61092081611569565b61095f576040517f08c379a000000000000000000000000000000000000000000000000000000000815260040161095690613f8a565b60405180910390fd5b60006010600083815260200190815260200160002060405180608001604052908160008201805461098f90613fd9565b80601f01602080910402602001604051908101604052809291908181526020018280546109bb90613fd9565b8015610a085780601f106109dd57610100808354040283529160200191610a08565b820191906000526020600020905b8154815290600101906020018083116109eb57829003601f168201915b50505050508152602001600182018054610a2190613fd9565b80601f0160208091040260200160405190810160405280929190818152602001828054610a4d90613fd9565b8015610a9a5780601f10610a6f57610100808354040283529160200191610a9a565b820191906000526020600020905b815481529060010190602001808311610a7d57829003601f168201915b505050505081526020016002820160009054906101000a900473ffffffffffffffffffffffffffffffffffffffff1673ffffffffffffffffffffffffffffffffffffffff1673ffffffffffffffffffffffffffffffffffffffff1681526020016002820160149054906101000a900460ff16151515158152505090503373ffffffffffffffffffffffffffffffffffffffff16816040015173ffffffffffffffffffffffffffffffffffffffff1614610b88576040517f08c379a0000000000000000000000000000000000000000000000000000000008152600401610b7f90614056565b60405180910390fd5b6000600d5490506000600d819055506000826040015173ffffffffffffffffffffffffffffffffffffffff1682604051610bc1906140a7565b60006040518083038185875af1925050503d8060008114610bfe576040519150601f19603f3d011682016040523d82523d6000602084013e610c03565b606091505b5050905080610c47576040517f08c379a0000000000000000000000000000000000000000000000000000000008152600401610c3e90614108565b60405180910390fd5b826040015173ffffffffffffffffffffffffffffffffffffffff167f1b7af42192901f68cf802e7304e6b3180f62c2a2c32062746bb50d6292a04674836000604051610c94929190614128565b60405180910390a250505050565b6000610cad82612176565b9050919050565b606060008054610cc390613fd9565b80601f0160208091040260200160405190810160405280929190818152602001828054610cef90613fd9565b8015610d3c5780601f10610d1157610100808354040283529160200191610d3c565b820191906000526020600020905b815481529060010190602001808311610d1f57829003601f168201915b5050505050905090565b6000610d51826121f0565b6004600083815260200190815260200160002060009054906101000a900473ffffffffffffffffffffffffffffffffffffffff169050919050565b6000610d978261120e565b90508073ffffffffffffffffffffffffffffffffffffffff168373ffffffffffffffffffffffffffffffffffffffff1603610e07576040517f08c379a0000000000000000000000000000000000000000000000000000000008152600401610dfe906141c3565b60405180910390fd5b8073ffffffffffffffffffffffffffffffffffffffff16610e2661223b565b73ffffffffffffffffffffffffffffffffffffffff161480610e555750610e5481610e4f61223b565b611e32565b5b610e94576040517f08c379a0000000000000000000000000000000000000000000000000000000008152600401610e8b90614255565b60405180910390fd5b610e9e8383612243565b505050565b6060610eae82611b1a565b610eed576040517f08c379a0000000000000000000000000000000000000000000000000000000008152600401610ee4906142c1565b60405180910390fd5b600f60008381526020019081526020016000206001018054610f0e90613fd9565b80601f0160208091040260200160405190810160405280929190818152602001828054610f3a90613fd9565b8015610f875780601f10610f5c57610100808354040283529160200191610f87565b820191906000526020600020905b815481529060010190602001808311610f6a57829003601f168201915b50505050509050919050565b6000600880549050905090565b610fa86122fc565b80600c8190555050565b610fc3610fbd61223b565b8261237a565b611002576040517f08c379a0000000000000000000000000000000000000000000000000000000008152600401610ff990614353565b60405180910390fd5b61100d83838361240f565b505050565b600061101d8361149e565b821061105e576040517f08c379a0000000000000000000000000000000000000000000000000000000008152600401611055906143e5565b60405180910390fd5b600660008473ffffffffffffffffffffffffffffffffffffffff1673ffffffffffffffffffffffffffffffffffffffff168152602001908152602001600020600083815260200190815260200160002054905092915050565b600e5481565b60006110c9600b612708565b905090565b6110e983838360405180602001604052806000815250611d35565b505050565b60006110f8610f93565b8210611139576040517f08c379a000000000000000000000000000000000000000000000000000000000815260040161113090614477565b60405180910390fd5b6008828154811061114d5761114c614497565b5b90600052602060002001549050919050565b6111676122fc565b61117081611569565b6111af576040517f08c379a00000000000000000000000000000000000000000000000000000000081526004016111a690613f8a565b60405180910390fd5b60016010600083815260200190815260200160002060020160146101000a81548160ff021916908315150217905550807f0bdd97990a2a139e8c8eff9f47049ac9c6b2771fe5b1220c5e39cb0984c8885560405160405180910390a250565b60008061121a83612716565b9050600073ffffffffffffffffffffffffffffffffffffffff168173ffffffffffffffffffffffffffffffffffffffff160361128b576040517f08c379a000000000000000000000000000000000000000000000000000000000815260040161128290614512565b60405180910390fd5b80915050919050565b61129c61367e565b6112a582611569565b6112e4576040517f08c379a00000000000000000000000000000000000000000000000000000000081526004016112db90613f8a565b60405180910390fd5b6010600083815260200190815260200160002060405180608001604052908160008201805461131290613fd9565b80601f016020809104026020016040519081016040528092919081815260200182805461133e90613fd9565b801561138b5780601f106113605761010080835404028352916020019161138b565b820191906000526020600020905b81548152906001019060200180831161136e57829003601f168201915b505050505081526020016001820180546113a490613fd9565b80601f01602080910402602001604051908101604052809291908181526020018280546113d090613fd9565b801561141d5780601f106113f25761010080835404028352916020019161141d565b820191906000526020600020905b81548152906001019060200180831161140057829003601f168201915b505050505081526020016002820160009054906101000a900473ffffffffffffffffffffffffffffffffffffffff1673ffffffffffffffffffffffffffffffffffffffff1673ffffffffffffffffffffffffffffffffffffffff1681526020016002820160149054906101000a900460ff1615151515815250509050919050565b60008073ffffffffffffffffffffffffffffffffffffffff168273ffffffffffffffffffffffffffffffffffffffff160361150e576040517f08c379a0000000000000000000000000000000000000000000000000000000008152600401611505906145a4565b60405180910390fd5b600360008373ffffffffffffffffffffffffffffffffffffffff1673ffffffffffffffffffffffffffffffffffffffff168152602001908152602001600020549050919050565b61155d6122fc565b6115676000612753565b565b60008073ffffffffffffffffffffffffffffffffffffffff166010600084815260200190815260200160002060020160009054906101000a900473ffffffffffffffffffffffffffffffffffffffff1673ffffffffffffffffffffffffffffffffffffffff1614159050919050565b8073ffffffffffffffffffffffffffffffffffffffff163373ffffffffffffffffffffffffffffffffffffffff1614611646576040517f08c379a000000000000000000000000000000000000000000000000000000000815260040161163d90614610565b60405180910390fd5b6000601183604051611658919061466c565b908152602001604051809103902054146116a7576040517f08c379a000000000000000000000000000000000000000000000000000000000815260040161169e906146cf565b60405180910390fd5b60006116b3600b612708565b90506116bf600b612819565b60405180608001604052808581526020018481526020018373ffffffffffffffffffffffffffffffffffffffff16815260200160001515815250601060008381526020019081526020016000206000820151816000019081611721919061489b565b506020820151816001019081611737919061489b565b5060408201518160020160006101000a81548173ffffffffffffffffffffffffffffffffffffffff021916908373ffffffffffffffffffffffffffffffffffffffff16021790555060608201518160020160146101000a81548160ff021916908315150217905550905050806011846040516117b3919061466c565b9081526020016040518091039020819055508173ffffffffffffffffffffffffffffffffffffffff16817f636e23ae449067068cb70d796e0d8cd4231830249a2eb8405d811ac38e42c48d868660405161180e92919061496d565b60405180910390a350505050565b6000600a60009054906101000a900473ffffffffffffffffffffffffffffffffffffffff16905090565b600c5434101561188b576040517f08c379a0000000000000000000000000000000000000000000000000000000008152600401611882906149f0565b60405180910390fd5b61189481611569565b6118d3576040517f08c379a00000000000000000000000000000000000000000000000000000000081526004016118ca90614a5c565b60405180910390fd5b6118dc81611d9d565b61191b576040517f08c379a000000000000000000000000000000000000000000000000000000000815260040161191290614ac8565b60405180910390fd5b60006064605a3461192c9190614b17565b6119369190614b88565b905060006064600a346119499190614b17565b6119539190614b88565b905081600d60008282546119679190614bb9565b9250508190555080600e60008282546119809190614bb9565b925050819055506000611993600b612708565b905061199f600b612819565b6119a9338261282f565b604051806040016040528062278d00426119c39190614bb9565b81526020016010600087815260200190815260200160002060010180546119e990613fd9565b80601f0160208091040260200160405190810160405280929190818152602001828054611a1590613fd9565b8015611a625780601f10611a3757610100808354040283529160200191611a62565b820191906000526020600020905b815481529060010190602001808311611a4557829003601f168201915b5050505050815250600f6000838152602001908152602001600020600082015181600001556020820151816001019081611a9c919061489b565b509050503373ffffffffffffffffffffffffffffffffffffffff16817f9c4abfebc7fcb27eb74895802adaad7a22683a1d607058982323b009afa6eb2262278d0042611ae89190614bb9565b60106000898152602001908152602001600020600101604051611b0c929190614c71565b60405180910390a350505050565b6000611b258261120e565b5042600f60008481526020019081526020016000206000015410159050919050565b606060018054611b5690613fd9565b80601f0160208091040260200160405190810160405280929190818152602001828054611b8290613fd9565b8015611bcf5780601f10611ba457610100808354040283529160200191611bcf565b820191906000526020600020905b815481529060010190602001808311611bb257829003601f168201915b5050505050905090565b6000600f6000838152602001908152602001600020600001549050919050565b611c0b611c0461223b565b838361284d565b5050565b611c176122fc565b6000600e5490506000600e819055506000611c3061181c565b73ffffffffffffffffffffffffffffffffffffffff1682604051611c53906140a7565b60006040518083038185875af1925050503d8060008114611c90576040519150601f19603f3d011682016040523d82523d6000602084013e611c95565b606091505b5050905080611cd9576040517f08c379a0000000000000000000000000000000000000000000000000000000008152600401611cd090614108565b60405180910390fd5b611ce161181c565b73ffffffffffffffffffffffffffffffffffffffff167f1b7af42192901f68cf802e7304e6b3180f62c2a2c32062746bb50d6292a04674836001604051611d29929190614128565b60405180910390a25050565b611d46611d4061223b565b8361237a565b611d85576040517f08c379a0000000000000000000000000000000000000000000000000000000008152600401611d7c90614353565b60405180910390fd5b611d91848484846129b9565b50505050565b600c5481565b60006010600083815260200190815260200160002060020160149054906101000a900460ff169050919050565b6060611dd5826121f0565b6000611ddf612a15565b90506000815111611dff5760405180602001604052806000815250611e2a565b80611e0984612a2c565b604051602001611e1a929190614ca1565b6040516020818303038152906040525b915050919050565b6000600560008473ffffffffffffffffffffffffffffffffffffffff1673ffffffffffffffffffffffffffffffffffffffff16815260200190815260200160002060008373ffffffffffffffffffffffffffffffffffffffff1673ffffffffffffffffffffffffffffffffffffffff16815260200190815260200160002060009054906101000a900460ff16905092915050565b600d5481565b600080601183604051611edf919061466c565b908152602001604051809103902054905060008103611f33576040517f08c379a0000000000000000000000000000000000000000000000000000000008152600401611f2a90613f8a565b60405180910390fd5b80915050919050565b611f446122fc565b600073ffffffffffffffffffffffffffffffffffffffff168173ffffffffffffffffffffffffffffffffffffffff1603611fb3576040517f08c379a0000000000000000000000000000000000000000000000000000000008152600401611faa90614d37565b60405180910390fd5b611fbc81612753565b50565b611fc76122fc565b611fd081611569565b61200f576040517f08c379a000000000000000000000000000000000000000000000000000000000815260040161200690613f8a565b60405180910390fd5b600060106000838152602001908152602001600020600101805461203290613fd9565b80601f016020809104026020016040519081016040528092919081815260200182805461205e90613fd9565b80156120ab5780601f10612080576101008083540402835291602001916120ab565b820191906000526020600020905b81548152906001019060200180831161208e57829003601f168201915b5050505050905060106000838152602001908152602001600020600080820160006120d691906136be565b6001820160006120e691906136be565b6002820160006101000a81549073ffffffffffffffffffffffffffffffffffffffff02191690556002820160146101000a81549060ff02191690555050601181604051612133919061466c565b908152602001604051809103902060009055817fbdc5f307127ee49be7848b431e1fe06bfcd681e3a7ee8b050febfc95c48d973c60405160405180910390a25050565b60007f780e9d63000000000000000000000000000000000000000000000000000000007bffffffffffffffffffffffffffffffffffffffffffffffffffffffff1916827bffffffffffffffffffffffffffffffffffffffffffffffffffffffff191614806121e957506121e882612afa565b5b9050919050565b6121f981612bdc565b612238576040517f08c379a000000000000000000000000000000000000000000000000000000000815260040161222f90614512565b60405180910390fd5b50565b600033905090565b816004600083815260200190815260200160002060006101000a81548173ffffffffffffffffffffffffffffffffffffffff021916908373ffffffffffffffffffffffffffffffffffffffff160217905550808273ffffffffffffffffffffffffffffffffffffffff166122b68361120e565b73ffffffffffffffffffffffffffffffffffffffff167f8c5be1e5ebec7d5bd14f71427d1e84f3dd0314c0f7b2291e5b200ac8c7c3b92560405160405180910390a45050565b61230461223b565b73ffffffffffffffffffffffffffffffffffffffff1661232261181c565b73ffffffffffffffffffffffffffffffffffffffff1614612378576040517f08c379a000000000000000000000000000000000000000000000000000000000815260040161236f90614da3565b60405180910390fd5b565b6000806123868361120e565b90508073ffffffffffffffffffffffffffffffffffffffff168473ffffffffffffffffffffffffffffffffffffffff1614806123c857506123c78185611e32565b5b8061240657508373ffffffffffffffffffffffffffffffffffffffff166123ee84610d46565b73ffffffffffffffffffffffffffffffffffffffff16145b91505092915050565b8273ffffffffffffffffffffffffffffffffffffffff1661242f8261120e565b73ffffffffffffffffffffffffffffffffffffffff1614612485576040517f08c379a000000000000000000000000000000000000000000000000000000000815260040161247c90614e35565b60405180910390fd5b600073ffffffffffffffffffffffffffffffffffffffff168273ffffffffffffffffffffffffffffffffffffffff16036124f4576040517f08c379a00000000000000000000000000000000000000000000000000000000081526004016124eb90614ec7565b60405180910390fd5b6125018383836001612c1d565b8273ffffffffffffffffffffffffffffffffffffffff166125218261120e565b73ffffffffffffffffffffffffffffffffffffffff1614612577576040517f08c379a000000000000000000000000000000000000000000000000000000000815260040161256e90614e35565b60405180910390fd5b6004600082815260200190815260200160002060006101000a81549073ffffffffffffffffffffffffffffffffffffffff02191690556001600360008573ffffffffffffffffffffffffffffffffffffffff1673ffffffffffffffffffffffffffffffffffffffff168152602001908152602001600020600082825403925050819055506001600360008473ffffffffffffffffffffffffffffffffffffffff1673ffffffffffffffffffffffffffffffffffffffff16815260200190815260200160002060008282540192505081905550816002600083815260200190815260200160002060006101000a81548173ffffffffffffffffffffffffffffffffffffffff021916908373ffffffffffffffffffffffffffffffffffffffff160217905550808273ffffffffffffffffffffffffffffffffffffffff168473ffffffffffffffffffffffffffffffffffffffff167fddf252ad1be2c89b69c2b068fc378daa952ba7f163c4a11628f55a4df523b3ef60405160405180910390a46127038383836001612c2f565b505050565b600081600001549050919050565b60006002600083815260200190815260200160002060009054906101000a900473ffffffffffffffffffffffffffffffffffffffff169050919050565b6000600a60009054906101000a900473ffffffffffffffffffffffffffffffffffffffff16905081600a60006101000a81548173ffffffffffffffffffffffffffffffffffffffff021916908373ffffffffffffffffffffffffffffffffffffffff1602179055508173ffffffffffffffffffffffffffffffffffffffff168173ffffffffffffffffffffffffffffffffffffffff167f8be0079c531659141344cd1fd0a4f28419497f9722a3daafe3b4186f6b6457e060405160405180910390a35050565b6001816000016000828254019250508190555050565b612849828260405180602001604052806000815250612c35565b5050565b8173ffffffffffffffffffffffffffffffffffffffff168373ffffffffffffffffffffffffffffffffffffffff16036128bb576040517f08c379a00000000000000000000000000000000000000000000000000000000081526004016128b290614f33565b60405180910390fd5b80600560008573ffffffffffffffffffffffffffffffffffffffff1673ffffffffffffffffffffffffffffffffffffffff16815260200190815260200160002060008473ffffffffffffffffffffffffffffffffffffffff1673ffffffffffffffffffffffffffffffffffffffff16815260200190815260200160002060006101000a81548160ff0219169083151502179055508173ffffffffffffffffffffffffffffffffffffffff168373ffffffffffffffffffffffffffffffffffffffff167f17307eab39ab6107e8899845ad3d59bd9653f200f220920489ca2b5937696c31836040516129ac9190613832565b60405180910390a3505050565b6129c484848461240f565b6129d084848484612c90565b612a0f576040517f08c379a0000000000000000000000000000000000000000000000000000000008152600401612a0690614fc5565b60405180910390fd5b50505050565b606060405180602001604052806000815250905090565b606060006001612a3b84612e17565b01905060008167ffffffffffffffff811115612a5a57612a59613b6f565b5b6040519080825280601f01601f191660200182016040528015612a8c5781602001600182028036833780820191505090505b509050600082602001820190505b600115612aef578080600190039150507f3031323334353637383961626364656600000000000000000000000000000000600a86061a8153600a8581612ae357612ae2614b59565b5b04945060008503612a9a575b819350505050919050565b60007f80ac58cd000000000000000000000000000000000000000000000000000000007bffffffffffffffffffffffffffffffffffffffffffffffffffffffff1916827bffffffffffffffffffffffffffffffffffffffffffffffffffffffff19161480612bc557507f5b5e139f000000000000000000000000000000000000000000000000000000007bffffffffffffffffffffffffffffffffffffffffffffffffffffffff1916827bffffffffffffffffffffffffffffffffffffffffffffffffffffffff1916145b80612bd55750612bd482612f6a565b5b9050919050565b60008073ffffffffffffffffffffffffffffffffffffffff16612bfe83612716565b73ffffffffffffffffffffffffffffffffffffffff1614159050919050565b612c2984848484612fd4565b50505050565b50505050565b612c3f8383613132565b612c4c6000848484612c90565b612c8b576040517f08c379a0000000000000000000000000000000000000000000000000000000008152600401612c8290614fc5565b60405180910390fd5b505050565b6000612cb18473ffffffffffffffffffffffffffffffffffffffff1661334f565b15612e0a578373ffffffffffffffffffffffffffffffffffffffff1663150b7a02612cda61223b565b8786866040518563ffffffff1660e01b8152600401612cfc949392919061503a565b6020604051808303816000875af1925050508015612d3857506040513d601f19601f82011682018060405250810190612d35919061509b565b60015b612dba573d8060008114612d68576040519150601f19603f3d011682016040523d82523d6000602084013e612d6d565b606091505b506000815103612db2576040517f08c379a0000000000000000000000000000000000000000000000000000000008152600401612da990614fc5565b60405180910390fd5b805181602001fd5b63150b7a0260e01b7bffffffffffffffffffffffffffffffffffffffffffffffffffffffff1916817bffffffffffffffffffffffffffffffffffffffffffffffffffffffff191614915050612e0f565b600190505b949350505050565b600080600090507a184f03e93ff9f4daa797ed6e38ed64bf6a1f0100000000000000008310612e75577a184f03e93ff9f4daa797ed6e38ed64bf6a1f0100000000000000008381612e6b57612e6a614b59565b5b0492506040810190505b6d04ee2d6d415b85acef81000000008310612eb2576d04ee2d6d415b85acef81000000008381612ea857612ea7614b59565b5b0492506020810190505b662386f26fc100008310612ee157662386f26fc100008381612ed757612ed6614b59565b5b0492506010810190505b6305f5e1008310612f0a576305f5e1008381612f0057612eff614b59565b5b0492506008810190505b6127108310612f2f576127108381612f2557612f24614b59565b5b0492506004810190505b60648310612f525760648381612f4857612f47614b59565b5b0492506002810190505b600a8310612f61576001810190505b80915050919050565b60007f01ffc9a7000000000000000000000000000000000000000000000000000000007bffffffffffffffffffffffffffffffffffffffffffffffffffffffff1916827bffffffffffffffffffffffffffffffffffffffffffffffffffffffff1916149050919050565b612fe084848484613372565b6001811115613024576040517f08c379a000000000000000000000000000000000000000000000000000000000815260040161301b9061513a565b60405180910390fd5b6000829050600073ffffffffffffffffffffffffffffffffffffffff168573ffffffffffffffffffffffffffffffffffffffff160361306b5761306681613378565b6130aa565b8373ffffffffffffffffffffffffffffffffffffffff168573ffffffffffffffffffffffffffffffffffffffff16146130a9576130a885826133c1565b5b5b600073ffffffffffffffffffffffffffffffffffffffff168473ffffffffffffffffffffffffffffffffffffffff16036130ec576130e78161352e565b61312b565b8473ffffffffffffffffffffffffffffffffffffffff168473ffffffffffffffffffffffffffffffffffffffff161461312a5761312984826135ff565b5b5b5050505050565b600073ffffffffffffffffffffffffffffffffffffffff168273ffffffffffffffffffffffffffffffffffffffff16036131a1576040517f08c379a0000000000000000000000000000000000000000000000000000000008152600401613198906151a6565b60405180910390fd5b6131aa81612bdc565b156131ea576040517f08c379a00000000000000000000000000000000000000000000000000000000081526004016131e190615212565b60405180910390fd5b6131f8600083836001612c1d565b61320181612bdc565b15613241576040517f08c379a000000000000000000000000000000000000000000000000000000000815260040161323890615212565b60405180910390fd5b6001600360008473ffffffffffffffffffffffffffffffffffffffff1673ffffffffffffffffffffffffffffffffffffffff16815260200190815260200160002060008282540192505081905550816002600083815260200190815260200160002060006101000a81548173ffffffffffffffffffffffffffffffffffffffff021916908373ffffffffffffffffffffffffffffffffffffffff160217905550808273ffffffffffffffffffffffffffffffffffffffff16600073ffffffffffffffffffffffffffffffffffffffff167fddf252ad1be2c89b69c2b068fc378daa952ba7f163c4a11628f55a4df523b3ef60405160405180910390a461334b600083836001612c2f565b5050565b6000808273ffffffffffffffffffffffffffffffffffffffff163b119050919050565b50505050565b6008805490506009600083815260200190815260200160002081905550600881908060018154018082558091505060019003906000526020600020016000909190919091505550565b600060016133ce8461149e565b6133d89190615232565b90506000600760008481526020019081526020016000205490508181146134bd576000600660008673ffffffffffffffffffffffffffffffffffffffff1673ffffffffffffffffffffffffffffffffffffffff168152602001908152602001600020600084815260200190815260200160002054905080600660008773ffffffffffffffffffffffffffffffffffffffff1673ffffffffffffffffffffffffffffffffffffffff168152602001908152602001600020600084815260200190815260200160002081905550816007600083815260200190815260200160002081905550505b6007600084815260200190815260200160002060009055600660008573ffffffffffffffffffffffffffffffffffffffff1673ffffffffffffffffffffffffffffffffffffffff16815260200190815260200160002060008381526020019081526020016000206000905550505050565b600060016008805490506135429190615232565b905060006009600084815260200190815260200160002054905060006008838154811061357257613571614497565b5b90600052602060002001549050806008838154811061359457613593614497565b5b9060005260206000200181905550816009600083815260200190815260200160002081905550600960008581526020019081526020016000206000905560088054806135e3576135e2615266565b5b6001900381819060005260206000200160009055905550505050565b600061360a8361149e565b905081600660008573ffffffffffffffffffffffffffffffffffffffff1673ffffffffffffffffffffffffffffffffffffffff168152602001908152602001600020600083815260200190815260200160002081905550806007600084815260200190815260200160002081905550505050565b60405180608001604052806060815260200160608152602001600073ffffffffffffffffffffffffffffffffffffffff1681526020016000151581525090565b5080546136ca90613fd9565b6000825580601f106136dc57506136fb565b601f0160209004906000526020600020908101906136fa91906136fe565b5b50565b5b808211156137175760008160009055506001016136ff565b5090565b6000604051905090565b600080fd5b600080fd5b6000819050919050565b6137428161372f565b811461374d57600080fd5b50565b60008135905061375f81613739565b92915050565b60006020828403121561377b5761377a613725565b5b600061378984828501613750565b91505092915050565b60007fffffffff0000000000000000000000000000000000000000000000000000000082169050919050565b6137c781613792565b81146137d257600080fd5b50565b6000813590506137e4816137be565b92915050565b600060208284031215613800576137ff613725565b5b600061380e848285016137d5565b91505092915050565b60008115159050919050565b61382c81613817565b82525050565b60006020820190506138476000830184613823565b92915050565b600081519050919050565b600082825260208201905092915050565b60005b8381101561388757808201518184015260208101905061386c565b60008484015250505050565b6000601f19601f8301169050919050565b60006138af8261384d565b6138b98185613858565b93506138c9818560208601613869565b6138d281613893565b840191505092915050565b600060208201905081810360008301526138f781846138a4565b905092915050565b600073ffffffffffffffffffffffffffffffffffffffff82169050919050565b600061392a826138ff565b9050919050565b61393a8161391f565b82525050565b60006020820190506139556000830184613931565b92915050565b6139648161391f565b811461396f57600080fd5b50565b6000813590506139818161395b565b92915050565b6000806040838503121561399e5761399d613725565b5b60006139ac85828601613972565b92505060206139bd85828601613750565b9150509250929050565b6139d08161372f565b82525050565b60006020820190506139eb60008301846139c7565b92915050565b600080600060608486031215613a0a57613a09613725565b5b6000613a1886828701613972565b9350506020613a2986828701613972565b9250506040613a3a86828701613750565b9150509250925092565b600082825260208201905092915050565b6000613a608261384d565b613a6a8185613a44565b9350613a7a818560208601613869565b613a8381613893565b840191505092915050565b613a978161391f565b82525050565b613aa681613817565b82525050565b60006080830160008301518482036000860152613ac98282613a55565b91505060208301518482036020860152613ae38282613a55565b9150506040830151613af86040860182613a8e565b506060830151613b0b6060860182613a9d565b508091505092915050565b60006020820190508181036000830152613b308184613aac565b905092915050565b600060208284031215613b4e57613b4d613725565b5b6000613b5c84828501613972565b91505092915050565b600080fd5b600080fd5b7f4e487b7100000000000000000000000000000000000000000000000000000000600052604160045260246000fd5b613ba782613893565b810181811067ffffffffffffffff82111715613bc657613bc5613b6f565b5b80604052505050565b6000613bd961371b565b9050613be58282613b9e565b919050565b600067ffffffffffffffff821115613c0557613c04613b6f565b5b613c0e82613893565b9050602081019050919050565b82818337600083830152505050565b6000613c3d613c3884613bea565b613bcf565b905082815260208101848484011115613c5957613c58613b6a565b5b613c64848285613c1b565b509392505050565b600082601f830112613c8157613c80613b65565b5b8135613c91848260208601613c2a565b91505092915050565b600080600060608486031215613cb357613cb2613725565b5b600084013567ffffffffffffffff811115613cd157613cd061372a565b5b613cdd86828701613c6c565b935050602084013567ffffffffffffffff811115613cfe57613cfd61372a565b5b613d0a86828701613c6c565b9250506040613d1b86828701613972565b9150509250925092565b613d2e81613817565b8114613d3957600080fd5b50565b600081359050613d4b81613d25565b92915050565b60008060408385031215613d6857613d67613725565b5b6000613d7685828601613972565b9250506020613d8785828601613d3c565b9150509250929050565b600067ffffffffffffffff821115613dac57613dab613b6f565b5b613db582613893565b9050602081019050919050565b6000613dd5613dd084613d91565b613bcf565b905082815260208101848484011115613df157613df0613b6a565b5b613dfc848285613c1b565b509392505050565b600082601f830112613e1957613e18613b65565b5b8135613e29848260208601613dc2565b91505092915050565b60008060008060808587031215613e4c57613e4b613725565b5b6000613e5a87828801613972565b9450506020613e6b87828801613972565b9350506040613e7c87828801613750565b925050606085013567ffffffffffffffff811115613e9d57613e9c61372a565b5b613ea987828801613e04565b91505092959194509250565b60008060408385031215613ecc57613ecb613725565b5b6000613eda85828601613972565b9250506020613eeb85828601613972565b9150509250929050565b600060208284031215613f0b57613f0a613725565b5b600082013567ffffffffffffffff811115613f2957613f2861372a565b5b613f3584828501613c6c565b91505092915050565b7f436f6e74656e74206e6f7420666f756e64000000000000000000000000000000600082015250565b6000613f74601183613858565b9150613f7f82613f3e565b602082019050919050565b60006020820190508181036000830152613fa381613f67565b9050919050565b7f4e487b7100000000000000000000000000000000000000000000000000000000600052602260045260246000fd5b60006002820490506001821680613ff157607f821691505b60208210810361400457614003613faa565b5b50919050565b7f4e6f742074686520636f6e74656e742063726561746f72000000000000000000600082015250565b6000614040601783613858565b915061404b8261400a565b602082019050919050565b6000602082019050818103600083015261406f81614033565b9050919050565b600081905092915050565b50565b6000614091600083614076565b915061409c82614081565b600082019050919050565b60006140b282614084565b9150819050919050565b7f4661696c656420746f2073656e64204574686572000000000000000000000000600082015250565b60006140f2601483613858565b91506140fd826140bc565b602082019050919050565b60006020820190508181036000830152614121816140e5565b9050919050565b600060408201905061413d60008301856139c7565b61414a6020830184613823565b9392505050565b7f4552433732313a20617070726f76616c20746f2063757272656e74206f776e6560008201527f7200000000000000000000000000000000000000000000000000000000000000602082015250565b60006141ad602183613858565b91506141b882614151565b604082019050919050565b600060208201905081810360008301526141dc816141a0565b9050919050565b7f4552433732313a20617070726f76652063616c6c6572206973206e6f7420746f60008201527f6b656e206f776e6572206f7220617070726f76656420666f7220616c6c000000602082015250565b600061423f603d83613858565b915061424a826141e3565b604082019050919050565b6000602082019050818103600083015261426e81614232565b9050919050565b7f537562736372697074696f6e2065787069726564000000000000000000000000600082015250565b60006142ab601483613858565b91506142b682614275565b602082019050919050565b600060208201905081810360008301526142da8161429e565b9050919050565b7f4552433732313a2063616c6c6572206973206e6f7420746f6b656e206f776e6560008201527f72206f7220617070726f76656400000000000000000000000000000000000000602082015250565b600061433d602d83613858565b9150614348826142e1565b604082019050919050565b6000602082019050818103600083015261436c81614330565b9050919050565b7f455243373231456e756d657261626c653a206f776e657220696e646578206f7560008201527f74206f6620626f756e6473000000000000000000000000000000000000000000602082015250565b60006143cf602b83613858565b91506143da82614373565b604082019050919050565b600060208201905081810360008301526143fe816143c2565b9050919050565b7f455243373231456e756d657261626c653a20676c6f62616c20696e646578206f60008201527f7574206f6620626f756e64730000000000000000000000000000000000000000602082015250565b6000614461602c83613858565b915061446c82614405565b604082019050919050565b6000602082019050818103600083015261449081614454565b9050919050565b7f4e487b7100000000000000000000000000000000000000000000000000000000600052603260045260246000fd5b7f4552433732313a20696e76616c696420746f6b656e2049440000000000000000600082015250565b60006144fc601883613858565b9150614507826144c6565b602082019050919050565b6000602082019050818103600083015261452b816144ef565b9050919050565b7f4552433732313a2061646472657373207a65726f206973206e6f74206120766160008201527f6c6964206f776e65720000000000000000000000000000000000000000000000602082015250565b600061458e602983613858565b915061459982614532565b604082019050919050565b600060208201905081810360008301526145bd81614581565b9050919050565b7f596f75206d757374206265207468652063726561746f72000000000000000000600082015250565b60006145fa601783613858565b9150614605826145c4565b602082019050919050565b60006020820190508181036000830152614629816145ed565b9050919050565b600081905092915050565b60006146468261384d565b6146508185614630565b9350614660818560208601613869565b80840191505092915050565b6000614678828461463b565b915081905092915050565b7f436f6e74656e7420616c72656164792072656769737465726564000000000000600082015250565b60006146b9601a83613858565b91506146c482614683565b602082019050919050565b600060208201905081810360008301526146e8816146ac565b9050919050565b60008190508160005260206000209050919050565b60006020601f8301049050919050565b600082821b905092915050565b6000600883026147517fffffffffffffffffffffffffffffffffffffffffffffffffffffffffffffffff82614714565b61475b8683614714565b95508019841693508086168417925050509392505050565b6000819050919050565b600061479861479361478e8461372f565b614773565b61372f565b9050919050565b6000819050919050565b6147b28361477d565b6147c66147be8261479f565b848454614721565b825550505050565b600090565b6147db6147ce565b6147e68184846147a9565b505050565b5b8181101561480a576147ff6000826147d3565b6001810190506147ec565b5050565b601f82111561484f57614820816146ef565b61482984614704565b81016020851015614838578190505b61484c61484485614704565b8301826147eb565b50505b505050565b600082821c905092915050565b600061487260001984600802614854565b1980831691505092915050565b600061488b8383614861565b9150826002028217905092915050565b6148a48261384d565b67ffffffffffffffff8111156148bd576148bc613b6f565b5b6148c78254613fd9565b6148d282828561480e565b600060209050601f83116001811461490557600084156148f3578287015190505b6148fd858261487f565b865550614965565b601f198416614913866146ef565b60005b8281101561493b57848901518255600182019150602085019450602081019050614916565b868310156149585784890151614954601f891682614861565b8355505b6001600288020188555050505b505050505050565b6000604082019050818103600083015261498781856138a4565b9050818103602083015261499b81846138a4565b90509392505050565b7f496e73756666696369656e74207061796d656e74000000000000000000000000600082015250565b60006149da601483613858565b91506149e5826149a4565b602082019050919050565b60006020820190508181036000830152614a09816149cd565b9050919050565b7f436f6e74656e74206e6f74207265676973746572656400000000000000000000600082015250565b6000614a46601683613858565b9150614a5182614a10565b602082019050919050565b60006020820190508181036000830152614a7581614a39565b9050919050565b7f436f6e74656e74206e6f7420617070726f766564207965740000000000000000600082015250565b6000614ab2601883613858565b9150614abd82614a7c565b602082019050919050565b60006020820190508181036000830152614ae181614aa5565b9050919050565b7f4e487b7100000000000000000000000000000000000000000000000000000000600052601160045260246000fd5b6000614b228261372f565b9150614b2d8361372f565b9250828202614b3b8161372f565b91508282048414831517614b5257614b51614ae8565b5b5092915050565b7f4e487b7100000000000000000000000000000000000000000000000000000000600052601260045260246000fd5b6000614b938261372f565b9150614b9e8361372f565b925082614bae57614bad614b59565b5b828204905092915050565b6000614bc48261372f565b9150614bcf8361372f565b9250828201905080821115614be757614be6614ae8565b5b92915050565b60008154614bfa81613fd9565b614c048186613858565b94506001821660008114614c1f5760018114614c3557614c68565b60ff198316865281151560200286019350614c68565b614c3e856146ef565b60005b83811015614c6057815481890152600182019150602081019050614c41565b808801955050505b50505092915050565b6000604082019050614c8660008301856139c7565b8181036020830152614c988184614bed565b90509392505050565b6000614cad828561463b565b9150614cb9828461463b565b91508190509392505050565b7f4f776e61626c653a206e6577206f776e657220697320746865207a65726f206160008201527f6464726573730000000000000000000000000000000000000000000000000000602082015250565b6000614d21602683613858565b9150614d2c82614cc5565b604082019050919050565b60006020820190508181036000830152614d5081614d14565b9050919050565b7f4f776e61626c653a2063616c6c6572206973206e6f7420746865206f776e6572600082015250565b6000614d8d602083613858565b9150614d9882614d57565b602082019050919050565b60006020820190508181036000830152614dbc81614d80565b9050919050565b7f4552433732313a207472616e736665722066726f6d20696e636f72726563742060008201527f6f776e6572000000000000000000000000000000000000000000000000000000602082015250565b6000614e1f602583613858565b9150614e2a82614dc3565b604082019050919050565b60006020820190508181036000830152614e4e81614e12565b9050919050565b7f4552433732313a207472616e7366657220746f20746865207a65726f2061646460008201527f7265737300000000000000000000000000000000000000000000000000000000602082015250565b6000614eb1602483613858565b9150614ebc82614e55565b604082019050919050565b60006020820190508181036000830152614ee081614ea4565b9050919050565b7f4552433732313a20617070726f766520746f2063616c6c657200000000000000600082015250565b6000614f1d601983613858565b9150614f2882614ee7565b602082019050919050565b60006020820190508181036000830152614f4c81614f10565b9050919050565b7f4552433732313a207472616e7366657220746f206e6f6e20455243373231526560008201527f63656976657220696d706c656d656e7465720000000000000000000000000000602082015250565b6000614faf603283613858565b9150614fba82614f53565b604082019050919050565b60006020820190508181036000830152614fde81614fa2565b9050919050565b600081519050919050565b600082825260208201905092915050565b600061500c82614fe5565b6150168185614ff0565b9350615026818560208601613869565b61502f81613893565b840191505092915050565b600060808201905061504f6000830187613931565b61505c6020830186613931565b61506960408301856139c7565b818103606083015261507b8184615001565b905095945050505050565b600081519050615095816137be565b92915050565b6000602082840312156150b1576150b0613725565b5b60006150bf84828501615086565b91505092915050565b7f455243373231456e756d657261626c653a20636f6e736563757469766520747260008201527f616e7366657273206e6f7420737570706f727465640000000000000000000000602082015250565b6000615124603583613858565b915061512f826150c8565b604082019050919050565b6000602082019050818103600083015261515381615117565b9050919050565b7f4552433732313a206d696e7420746f20746865207a65726f2061646472657373600082015250565b6000615190602083613858565b915061519b8261515a565b602082019050919050565b600060208201905081810360008301526151bf81615183565b9050919050565b7f4552433732313a20746f6b656e20616c7265616479206d696e74656400000000600082015250565b60006151fc601c83613858565b9150615207826151c6565b602082019050919050565b6000602082019050818103600083015261522b816151ef565b9050919050565b600061523d8261372f565b91506152488361372f565b92508282039050818111156152605761525f614ae8565b5b92915050565b7f4e487b7100000000000000000000000000000000000000000000000000000000600052603160045260246000fdfea2646970667358221220796fbfeb5d1d63ee55ff9d995463cfc1457002f80a49b2664c229f6eb8bfa13064736f6c63430008130033",
  "immutableReferences": {},
  "source": "// SPDX-License-Identifier: MIT\r\npragma solidity ^0.8.0;\r\n\r\nimport \"@openzeppelin/contracts/token/ERC721/extensions/ERC721Enumerable.sol\";\r\nimport \"@openzeppelin/contracts/access/Ownable.sol\";\r\nimport \"@openzeppelin/contracts/utils/Counters.sol\";\r\n\r\ncontract SubManager is ERC721Enumerable, Ownable {\r\n    using Counters for Counters.Counter;\r\n    Counters.Counter private _tokenIdCounter;\r\n\r\n    struct Subscription {\r\n        uint256 expiresAt;\r\n        string ipfsHash;\r\n    }\r\n\r\n    struct Content {\r\n        string name;\r\n        string ipfsHash;\r\n        address creator;\r\n        bool approved;\r\n    }\r\n\r\n    uint256 public subscriptionPrice = 0.01 ether;\r\n    uint256 public creatorsPool;\r\n    uint256 public platformPool;\r\n\r\n    uint256 private constant CREATORS_SHARE = 90;\r\n    uint256 private constant PLATFORM_SHARE = 10;\r\n\r\n    mapping(uint256 => Subscription) private _subscriptions;\r\n    mapping(uint256 => Content) private _registeredContents;\r\n    mapping(string => uint256) private _ipfsToTokenId;\r\n\r\n    event SubscriptionPurchased(\r\n        uint256 indexed tokenId,\r\n        address indexed subscriber,\r\n        uint256 expiresAt,\r\n        string ipfsHash\r\n    );\r\n\r\n    event ContentRegistered(\r\n        uint256 indexed tokenId,\r\n        string name,\r\n        string ipfsHash,\r\n        address indexed creator\r\n    );\r\n\r\n    event ContentApproved(uint256 indexed tokenId);\r\n\r\n    event ContentDeleted(uint256 indexed tokenId);\r\n\r\n    event FundsWithdrawn(\r\n        address indexed recipient,\r\n        uint256 amount,\r\n        bool isPlatform\r\n    );\r\n\r\n    constructor() ERC721(\"ContentSubscription\", \"CSUB\") {}\r\n\r\n    function registerContent(string memory name, string memory ipfsHash, address creator) external {\r\n        require(msg.sender == creator, \"You must be the creator\");\r\n        require(_ipfsToTokenId[ipfsHash] == 0, \"Content already registered\");\r\n\r\n        uint256 contentTokenId = _tokenIdCounter.current();\r\n        _tokenIdCounter.increment();\r\n\r\n        _registeredContents[contentTokenId] = Content({\r\n            name: name,\r\n            ipfsHash: ipfsHash,\r\n            creator: creator,\r\n            approved: false\r\n        });\r\n\r\n        _ipfsToTokenId[ipfsHash] = contentTokenId;\r\n\r\n        emit ContentRegistered(contentTokenId, name, ipfsHash, creator);\r\n    }\r\n\r\n    function approveContent(uint256 contentTokenId) external onlyOwner {\r\n        require(contentExists(contentTokenId), \"Content not found\");\r\n        _registeredContents[contentTokenId].approved = true;\r\n        emit ContentApproved(contentTokenId);\r\n    }\r\n\r\n    function deleteContent(uint256 contentTokenId) external onlyOwner {\r\n        require(contentExists(contentTokenId), \"Content not found\");\r\n        string memory ipfsHash = _registeredContents[contentTokenId].ipfsHash;\r\n        delete _registeredContents[contentTokenId];\r\n        delete _ipfsToTokenId[ipfsHash];\r\n        emit ContentDeleted(contentTokenId);\r\n    }\r\n\r\n    function isContentApproved(uint256 contentTokenId) public view returns (bool) {\r\n        return _registeredContents[contentTokenId].approved;\r\n    }\r\n\r\n    function purchaseSubscription(uint256 contentTokenId) external payable {\r\n        require(msg.value >= subscriptionPrice, \"Insufficient payment\");\r\n        require(contentExists(contentTokenId), \"Content not registered\");\r\n        require(isContentApproved(contentTokenId), \"Content not approved yet\");\r\n\r\n        uint256 creatorsShare = (msg.value * CREATORS_SHARE) / 100;\r\n        uint256 platformShare = (msg.value * PLATFORM_SHARE) / 100;\r\n\r\n        creatorsPool += creatorsShare;\r\n        platformPool += platformShare;\r\n\r\n        uint256 subscriptionTokenId = _tokenIdCounter.current();\r\n        _tokenIdCounter.increment();\r\n        _safeMint(msg.sender, subscriptionTokenId);\r\n\r\n        _subscriptions[subscriptionTokenId] = Subscription({\r\n            expiresAt: block.timestamp + 30 days,\r\n            ipfsHash: _registeredContents[contentTokenId].ipfsHash\r\n        });\r\n\r\n        emit SubscriptionPurchased(\r\n            subscriptionTokenId,\r\n            msg.sender,\r\n            block.timestamp + 30 days,\r\n            _registeredContents[contentTokenId].ipfsHash\r\n        );\r\n    }\r\n\r\n    function contentExists(uint256 contentTokenId) public view returns (bool) {\r\n        return _registeredContents[contentTokenId].creator != address(0);\r\n    }\r\n\r\n    function getContentByTokenId(uint256 contentTokenId) external view returns (Content memory) {\r\n        require(contentExists(contentTokenId), \"Content not found\");\r\n        return _registeredContents[contentTokenId];\r\n    }\r\n\r\n    function getTokenIdByIpfsHash(string memory ipfsHash) external view returns (uint256) {\r\n        uint256 tokenId = _ipfsToTokenId[ipfsHash];\r\n        require(tokenId != 0, \"Content not found\");\r\n        return tokenId;\r\n    }\r\n\r\n    function isSubscriptionValid(uint256 subscriptionTokenId) public view returns (bool) {\r\n        ownerOf(subscriptionTokenId);\r\n        return _subscriptions[subscriptionTokenId].expiresAt >= block.timestamp;\r\n    }\r\n\r\n    function getContentIpfsHash(uint256 subscriptionTokenId) external view returns (string memory) {\r\n        require(isSubscriptionValid(subscriptionTokenId), \"Subscription expired\");\r\n        return _subscriptions[subscriptionTokenId].ipfsHash;\r\n    }\r\n\r\n    function getSubscriptionExpiry(uint256 tokenId) external view returns (uint256) {\r\n        return _subscriptions[tokenId].expiresAt;\r\n    }\r\n\r\n    function withdrawCreatorFunds(uint256 contentTokenId) external {\r\n        require(contentExists(contentTokenId), \"Content not found\");\r\n        Content memory content = _registeredContents[contentTokenId];\r\n        require(content.creator == msg.sender, \"Not the content creator\");\r\n\r\n        uint256 amount = creatorsPool;\r\n        creatorsPool = 0;\r\n\r\n        (bool sent, ) = content.creator.call{value: amount}(\"\");\r\n        require(sent, \"Failed to send Ether\");\r\n\r\n        emit FundsWithdrawn(content.creator, amount, false);\r\n    }\r\n\r\n    function withdrawPlatformFunds() external onlyOwner {\r\n        uint256 amount = platformPool;\r\n        platformPool = 0;\r\n\r\n        (bool sent, ) = owner().call{value: amount}(\"\");\r\n        require(sent, \"Failed to send Ether\");\r\n\r\n        emit FundsWithdrawn(owner(), amount, true);\r\n    }\r\n\r\n    function setSubscriptionPrice(uint256 newPrice) external onlyOwner {\r\n        subscriptionPrice = newPrice;\r\n    }\r\n\r\n    function getTotalContent() public view returns (uint256) {\r\n        return _tokenIdCounter.current();\r\n    }\r\n\r\n    function _beforeTokenTransfer(address from, address to, uint256 tokenId, uint256 batchSize)\r\n        internal\r\n        override(ERC721Enumerable)\r\n    {\r\n        super._beforeTokenTransfer(from, to, tokenId, batchSize);\r\n    }\r\n\r\n    function supportsInterface(bytes4 interfaceId)\r\n        public\r\n        view\r\n        override(ERC721Enumerable)\r\n        returns (bool)\r\n    {\r\n        return super.supportsInterface(interfaceId);\r\n    }\r\n}",
  "sourcePath": "C:\\Users\\Aryan Gupta\\Desktop\\DEV-600\\submanager-aryan\\submanager-aryan\\truffle\\contracts\\subManager.sol",
  "compiler": {
    "name": "solc",
    "version": "0.8.19+commit.7dd6d404.Emscripten.clang"
  },
  "schemaVersion": "3.4.16",
  "updatedAt": "2025-04-04T07:00:54.834Z",
  "networkType": "ethereum",
  "devdoc": {
    "events": {
      "Approval(address,address,uint256)": {
        "details": "Emitted when `owner` enables `approved` to manage the `tokenId` token."
      },
      "ApprovalForAll(address,address,bool)": {
        "details": "Emitted when `owner` enables or disables (`approved`) `operator` to manage all of its assets."
      },
      "Transfer(address,address,uint256)": {
        "details": "Emitted when `tokenId` token is transferred from `from` to `to`."
      }
    },
    "kind": "dev",
    "methods": {
      "approve(address,uint256)": {
        "details": "See {IERC721-approve}."
      },
      "balanceOf(address)": {
        "details": "See {IERC721-balanceOf}."
      },
      "getApproved(uint256)": {
        "details": "See {IERC721-getApproved}."
      },
      "isApprovedForAll(address,address)": {
        "details": "See {IERC721-isApprovedForAll}."
      },
      "name()": {
        "details": "See {IERC721Metadata-name}."
      },
      "owner()": {
        "details": "Returns the address of the current owner."
      },
      "ownerOf(uint256)": {
        "details": "See {IERC721-ownerOf}."
      },
      "renounceOwnership()": {
        "details": "Leaves the contract without owner. It will not be possible to call `onlyOwner` functions. Can only be called by the current owner. NOTE: Renouncing ownership will leave the contract without an owner, thereby disabling any functionality that is only available to the owner."
      },
      "safeTransferFrom(address,address,uint256)": {
        "details": "See {IERC721-safeTransferFrom}."
      },
      "safeTransferFrom(address,address,uint256,bytes)": {
        "details": "See {IERC721-safeTransferFrom}."
      },
      "setApprovalForAll(address,bool)": {
        "details": "See {IERC721-setApprovalForAll}."
      },
      "supportsInterface(bytes4)": {
        "details": "See {IERC165-supportsInterface}."
      },
      "symbol()": {
        "details": "See {IERC721Metadata-symbol}."
      },
      "tokenByIndex(uint256)": {
        "details": "See {IERC721Enumerable-tokenByIndex}."
      },
      "tokenOfOwnerByIndex(address,uint256)": {
        "details": "See {IERC721Enumerable-tokenOfOwnerByIndex}."
      },
      "tokenURI(uint256)": {
        "details": "See {IERC721Metadata-tokenURI}."
      },
      "totalSupply()": {
        "details": "See {IERC721Enumerable-totalSupply}."
      },
      "transferFrom(address,address,uint256)": {
        "details": "See {IERC721-transferFrom}."
      },
      "transferOwnership(address)": {
        "details": "Transfers ownership of the contract to a new account (`newOwner`). Can only be called by the current owner."
      }
    },
    "version": 1
  },
  "userdoc": {
    "kind": "user",
    "methods": {},
    "version": 1
  }
}