{
  "contractName": "SubManager",
  "abi": [
    {
      "inputs": [],
      "stateMutability": "nonpayable",
      "type": "constructor"
    },
    {
      "anonymous": false,
      "inputs": [
        {
          "indexed": true,
          "internalType": "address",
          "name": "previousAdmin",
          "type": "address"
        },
        {
          "indexed": true,
          "internalType": "address",
          "name": "newAdmin",
          "type": "address"
        }
      ],
      "name": "AdminChanged",
      "type": "event"
    },
    {
      "anonymous": false,
      "inputs": [
        {
          "indexed": true,
          "internalType": "address",
          "name": "owner",
          "type": "address"
        },
        {
          "indexed": true,
          "internalType": "address",
          "name": "approved",
          "type": "address"
        },
        {
          "indexed": true,
          "internalType": "uint256",
          "name": "tokenId",
          "type": "uint256"
        }
      ],
      "name": "Approval",
      "type": "event"
    },
    {
      "anonymous": false,
      "inputs": [
        {
          "indexed": true,
          "internalType": "address",
          "name": "owner",
          "type": "address"
        },
        {
          "indexed": true,
          "internalType": "address",
          "name": "operator",
          "type": "address"
        },
        {
          "indexed": false,
          "internalType": "bool",
          "name": "approved",
          "type": "bool"
        }
      ],
      "name": "ApprovalForAll",
      "type": "event"
    },
    {
      "anonymous": false,
      "inputs": [
        {
          "indexed": true,
          "internalType": "uint256",
          "name": "tokenId",
          "type": "uint256"
        }
      ],
      "name": "ContentApproved",
      "type": "event"
    },
    {
      "anonymous": false,
      "inputs": [
        {
          "indexed": true,
          "internalType": "uint256",
          "name": "tokenId",
          "type": "uint256"
        }
      ],
      "name": "ContentDeleted",
      "type": "event"
    },
    {
      "anonymous": false,
      "inputs": [
        {
          "indexed": true,
          "internalType": "uint256",
          "name": "tokenId",
          "type": "uint256"
        },
        {
          "indexed": false,
          "internalType": "string",
          "name": "name",
          "type": "string"
        },
        {
          "indexed": false,
          "internalType": "string",
          "name": "ipfsHash",
          "type": "string"
        },
        {
          "indexed": true,
          "internalType": "address",
          "name": "creator",
          "type": "address"
        }
      ],
      "name": "ContentRegistered",
      "type": "event"
    },
    {
      "anonymous": false,
      "inputs": [
        {
          "indexed": true,
          "internalType": "address",
          "name": "recipient",
          "type": "address"
        },
        {
          "indexed": false,
          "internalType": "uint256",
          "name": "amount",
          "type": "uint256"
        },
        {
          "indexed": false,
          "internalType": "bool",
          "name": "isPlatform",
          "type": "bool"
        }
      ],
      "name": "FundsWithdrawn",
      "type": "event"
    },
    {
      "anonymous": false,
      "inputs": [
        {
          "indexed": true,
          "internalType": "uint256",
          "name": "tokenId",
          "type": "uint256"
        },
        {
          "indexed": true,
          "internalType": "address",
          "name": "subscriber",
          "type": "address"
        },
        {
          "indexed": false,
          "internalType": "uint256",
          "name": "expiresAt",
          "type": "uint256"
        },
        {
          "indexed": false,
          "internalType": "string",
          "name": "ipfsHash",
          "type": "string"
        }
      ],
      "name": "SubscriptionPurchased",
      "type": "event"
    },
    {
      "anonymous": false,
      "inputs": [
        {
          "indexed": true,
          "internalType": "address",
          "name": "from",
          "type": "address"
        },
        {
          "indexed": true,
          "internalType": "address",
          "name": "to",
          "type": "address"
        },
        {
          "indexed": true,
          "internalType": "uint256",
          "name": "tokenId",
          "type": "uint256"
        }
      ],
      "name": "Transfer",
      "type": "event"
    },
    {
      "inputs": [],
      "name": "admin",
      "outputs": [
        {
          "internalType": "address",
          "name": "",
          "type": "address"
        }
      ],
      "stateMutability": "view",
      "type": "function",
      "constant": true
    },
    {
      "inputs": [
        {
          "internalType": "address",
          "name": "to",
          "type": "address"
        },
        {
          "internalType": "uint256",
          "name": "tokenId",
          "type": "uint256"
        }
      ],
      "name": "approve",
      "outputs": [],
      "stateMutability": "nonpayable",
      "type": "function"
    },
    {
      "inputs": [
        {
          "internalType": "address",
          "name": "owner",
          "type": "address"
        }
      ],
      "name": "balanceOf",
      "outputs": [
        {
          "internalType": "uint256",
          "name": "",
          "type": "uint256"
        }
      ],
      "stateMutability": "view",
      "type": "function",
      "constant": true
    },
    {
      "inputs": [],
      "name": "creatorsPool",
      "outputs": [
        {
          "internalType": "uint256",
          "name": "",
          "type": "uint256"
        }
      ],
      "stateMutability": "view",
      "type": "function",
      "constant": true
    },
    {
      "inputs": [
        {
          "internalType": "uint256",
          "name": "tokenId",
          "type": "uint256"
        }
      ],
      "name": "getApproved",
      "outputs": [
        {
          "internalType": "address",
          "name": "",
          "type": "address"
        }
      ],
      "stateMutability": "view",
      "type": "function",
      "constant": true
    },
    {
      "inputs": [
        {
          "internalType": "address",
          "name": "owner",
          "type": "address"
        },
        {
          "internalType": "address",
          "name": "operator",
          "type": "address"
        }
      ],
      "name": "isApprovedForAll",
      "outputs": [
        {
          "internalType": "bool",
          "name": "",
          "type": "bool"
        }
      ],
      "stateMutability": "view",
      "type": "function",
      "constant": true
    },
    {
      "inputs": [],
      "name": "name",
      "outputs": [
        {
          "internalType": "string",
          "name": "",
          "type": "string"
        }
      ],
      "stateMutability": "view",
      "type": "function",
      "constant": true
    },
    {
      "inputs": [
        {
          "internalType": "uint256",
          "name": "tokenId",
          "type": "uint256"
        }
      ],
      "name": "ownerOf",
      "outputs": [
        {
          "internalType": "address",
          "name": "",
          "type": "address"
        }
      ],
      "stateMutability": "view",
      "type": "function",
      "constant": true
    },
    {
      "inputs": [],
      "name": "platformPool",
      "outputs": [
        {
          "internalType": "uint256",
          "name": "",
          "type": "uint256"
        }
      ],
      "stateMutability": "view",
      "type": "function",
      "constant": true
    },
    {
      "inputs": [
        {
          "internalType": "address",
          "name": "from",
          "type": "address"
        },
        {
          "internalType": "address",
          "name": "to",
          "type": "address"
        },
        {
          "internalType": "uint256",
          "name": "tokenId",
          "type": "uint256"
        }
      ],
      "name": "safeTransferFrom",
      "outputs": [],
      "stateMutability": "nonpayable",
      "type": "function"
    },
    {
      "inputs": [
        {
          "internalType": "address",
          "name": "from",
          "type": "address"
        },
        {
          "internalType": "address",
          "name": "to",
          "type": "address"
        },
        {
          "internalType": "uint256",
          "name": "tokenId",
          "type": "uint256"
        },
        {
          "internalType": "bytes",
          "name": "data",
          "type": "bytes"
        }
      ],
      "name": "safeTransferFrom",
      "outputs": [],
      "stateMutability": "nonpayable",
      "type": "function"
    },
    {
      "inputs": [
        {
          "internalType": "address",
          "name": "operator",
          "type": "address"
        },
        {
          "internalType": "bool",
          "name": "approved",
          "type": "bool"
        }
      ],
      "name": "setApprovalForAll",
      "outputs": [],
      "stateMutability": "nonpayable",
      "type": "function"
    },
    {
      "inputs": [],
      "name": "subscriptionPrice",
      "outputs": [
        {
          "internalType": "uint256",
          "name": "",
          "type": "uint256"
        }
      ],
      "stateMutability": "view",
      "type": "function",
      "constant": true
    },
    {
      "inputs": [],
      "name": "symbol",
      "outputs": [
        {
          "internalType": "string",
          "name": "",
          "type": "string"
        }
      ],
      "stateMutability": "view",
      "type": "function",
      "constant": true
    },
    {
      "inputs": [
        {
          "internalType": "uint256",
          "name": "index",
          "type": "uint256"
        }
      ],
      "name": "tokenByIndex",
      "outputs": [
        {
          "internalType": "uint256",
          "name": "",
          "type": "uint256"
        }
      ],
      "stateMutability": "view",
      "type": "function",
      "constant": true
    },
    {
      "inputs": [
        {
          "internalType": "address",
          "name": "owner",
          "type": "address"
        },
        {
          "internalType": "uint256",
          "name": "index",
          "type": "uint256"
        }
      ],
      "name": "tokenOfOwnerByIndex",
      "outputs": [
        {
          "internalType": "uint256",
          "name": "",
          "type": "uint256"
        }
      ],
      "stateMutability": "view",
      "type": "function",
      "constant": true
    },
    {
      "inputs": [
        {
          "internalType": "uint256",
          "name": "tokenId",
          "type": "uint256"
        }
      ],
      "name": "tokenURI",
      "outputs": [
        {
          "internalType": "string",
          "name": "",
          "type": "string"
        }
      ],
      "stateMutability": "view",
      "type": "function",
      "constant": true
    },
    {
      "inputs": [],
      "name": "totalSupply",
      "outputs": [
        {
          "internalType": "uint256",
          "name": "",
          "type": "uint256"
        }
      ],
      "stateMutability": "view",
      "type": "function",
      "constant": true
    },
    {
      "inputs": [
        {
          "internalType": "address",
          "name": "from",
          "type": "address"
        },
        {
          "internalType": "address",
          "name": "to",
          "type": "address"
        },
        {
          "internalType": "uint256",
          "name": "tokenId",
          "type": "uint256"
        }
      ],
      "name": "transferFrom",
      "outputs": [],
      "stateMutability": "nonpayable",
      "type": "function"
    },
    {
      "inputs": [
        {
          "internalType": "address",
          "name": "newAdmin",
          "type": "address"
        }
      ],
      "name": "changeAdmin",
      "outputs": [],
      "stateMutability": "nonpayable",
      "type": "function"
    },
    {
      "inputs": [
        {
          "internalType": "string",
          "name": "name",
          "type": "string"
        },
        {
          "internalType": "string",
          "name": "ipfsHash",
          "type": "string"
        },
        {
          "internalType": "address",
          "name": "creator",
          "type": "address"
        }
      ],
      "name": "registerContent",
      "outputs": [],
      "stateMutability": "nonpayable",
      "type": "function"
    },
    {
      "inputs": [
        {
          "internalType": "uint256",
          "name": "contentTokenId",
          "type": "uint256"
        }
      ],
      "name": "approveContent",
      "outputs": [],
      "stateMutability": "nonpayable",
      "type": "function"
    },
    {
      "inputs": [
        {
          "internalType": "uint256",
          "name": "contentTokenId",
          "type": "uint256"
        }
      ],
      "name": "deleteContent",
      "outputs": [],
      "stateMutability": "nonpayable",
      "type": "function"
    },
    {
      "inputs": [
        {
          "internalType": "uint256",
          "name": "contentTokenId",
          "type": "uint256"
        }
      ],
      "name": "isContentApproved",
      "outputs": [
        {
          "internalType": "bool",
          "name": "",
          "type": "bool"
        }
      ],
      "stateMutability": "view",
      "type": "function",
      "constant": true
    },
    {
      "inputs": [
        {
          "internalType": "uint256",
          "name": "contentTokenId",
          "type": "uint256"
        }
      ],
      "name": "purchaseSubscription",
      "outputs": [],
      "stateMutability": "payable",
      "type": "function",
      "payable": true
    },
    {
      "inputs": [
        {
          "internalType": "uint256",
          "name": "contentTokenId",
          "type": "uint256"
        }
      ],
      "name": "contentExists",
      "outputs": [
        {
          "internalType": "bool",
          "name": "",
          "type": "bool"
        }
      ],
      "stateMutability": "view",
      "type": "function",
      "constant": true
    },
    {
      "inputs": [
        {
          "internalType": "uint256",
          "name": "contentTokenId",
          "type": "uint256"
        }
      ],
      "name": "getContentByTokenId",
      "outputs": [
        {
          "components": [
            {
              "internalType": "string",
              "name": "name",
              "type": "string"
            },
            {
              "internalType": "string",
              "name": "ipfsHash",
              "type": "string"
            },
            {
              "internalType": "address",
              "name": "creator",
              "type": "address"
            },
            {
              "internalType": "bool",
              "name": "approved",
              "type": "bool"
            }
          ],
          "internalType": "struct SubManager.Content",
          "name": "",
          "type": "tuple"
        }
      ],
      "stateMutability": "view",
      "type": "function",
      "constant": true
    },
    {
      "inputs": [
        {
          "internalType": "string",
          "name": "ipfsHash",
          "type": "string"
        }
      ],
      "name": "getTokenIdByIpfsHash",
      "outputs": [
        {
          "internalType": "uint256",
          "name": "",
          "type": "uint256"
        }
      ],
      "stateMutability": "view",
      "type": "function",
      "constant": true
    },
    {
      "inputs": [
        {
          "internalType": "uint256",
          "name": "subscriptionTokenId",
          "type": "uint256"
        }
      ],
      "name": "isSubscriptionValid",
      "outputs": [
        {
          "internalType": "bool",
          "name": "",
          "type": "bool"
        }
      ],
      "stateMutability": "view",
      "type": "function",
      "constant": true
    },
    {
      "inputs": [
        {
          "internalType": "uint256",
          "name": "subscriptionTokenId",
          "type": "uint256"
        }
      ],
      "name": "getContentIpfsHash",
      "outputs": [
        {
          "internalType": "string",
          "name": "",
          "type": "string"
        }
      ],
      "stateMutability": "view",
      "type": "function",
      "constant": true
    },
    {
      "inputs": [
        {
          "internalType": "uint256",
          "name": "tokenId",
          "type": "uint256"
        }
      ],
      "name": "getSubscriptionExpiry",
      "outputs": [
        {
          "internalType": "uint256",
          "name": "",
          "type": "uint256"
        }
      ],
      "stateMutability": "view",
      "type": "function",
      "constant": true
    },
    {
      "inputs": [
        {
          "internalType": "uint256",
          "name": "contentTokenId",
          "type": "uint256"
        }
      ],
      "name": "withdrawCreatorFunds",
      "outputs": [],
      "stateMutability": "nonpayable",
      "type": "function"
    },
    {
      "inputs": [],
      "name": "withdrawPlatformFunds",
      "outputs": [],
      "stateMutability": "nonpayable",
      "type": "function"
    },
    {
      "inputs": [
        {
          "internalType": "uint256",
          "name": "newPrice",
          "type": "uint256"
        }
      ],
      "name": "setSubscriptionPrice",
      "outputs": [],
      "stateMutability": "nonpayable",
      "type": "function"
    },
    {
      "inputs": [],
      "name": "getTotalContent",
      "outputs": [
        {
          "internalType": "uint256",
          "name": "",
          "type": "uint256"
        }
      ],
      "stateMutability": "view",
      "type": "function",
      "constant": true
    },
    {
      "inputs": [
        {
          "internalType": "bytes4",
          "name": "interfaceId",
          "type": "bytes4"
        }
      ],
      "name": "supportsInterface",
      "outputs": [
        {
          "internalType": "bool",
          "name": "",
          "type": "bool"
        }
      ],
      "stateMutability": "view",
      "type": "function",
      "constant": true
    }
  ],
  "bytecode": "0x6080604052662386f26fc10000600b553480156200001c57600080fd5b506040518060400160405280601381526020017f436f6e74656e74537562736372697074696f6e000000000000000000000000008152506040518060400160405280600481526020017f43535542000000000000000000000000000000000000000000000000000000008152508160009080519060200190620000a192919062000104565b508060019080519060200190620000ba92919062000104565b50505033600e60006101000a81548173ffffffffffffffffffffffffffffffffffffffff021916908373ffffffffffffffffffffffffffffffffffffffff16021790555062000219565b8280546200011290620001b4565b90600052602060002090601f01602090048101928262000136576000855562000182565b82601f106200015157805160ff191683800117855562000182565b8280016001018555821562000182579182015b828111156200018157825182559160200191906001019062000164565b5b50905062000191919062000195565b5090565b5b80821115620001b057600081600090555060010162000196565b5090565b60006002820490506001821680620001cd57607f821691505b60208210811415620001e457620001e3620001ea565b5b50919050565b7f4e487b7100000000000000000000000000000000000000000000000000000000600052602260045260246000fd5b61545980620002296000396000f3fe60806040526004361061020f5760003560e01c8063724121ae11610118578063b88d4fde116100a0578063e985e9c51161006f578063e985e9c5146107fc578063e9862a4114610839578063f1f4c62e14610864578063f851a440146108a1578063fed216cb146108cc5761020f565b8063b88d4fde1461072e578063bdc8e54c14610757578063bf23f4e714610782578063c87b56dd146107bf5761020f565b8063954689ca116100e7578063954689ca1461064957806395d89b4114610686578063a0e26db9146106b1578063a22cb465146106ee578063b3043cf4146107175761020f565b8063724121ae1461059e57806380d05aeb146105db5780638edf72f5146106045780638f283970146106205761020f565b80632f745c591161019b5780634f6ccce71161016a5780634f6ccce714610481578063589c9648146104be5780636352211e146104e7578063649b14a21461052457806370a08231146105615761020f565b80632f745c59146103c557806333518806146104025780633732ee4a1461042d57806342842e0e146104585761020f565b8063095ea7b3116101e2578063095ea7b3146102e257806313076d051461030b57806318160ddd146103485780631a5ee7791461037357806323b872dd1461039c5761020f565b8063018112b81461021457806301ffc9a71461023d57806306fdde031461027a578063081812fc146102a5575b600080fd5b34801561022057600080fd5b5061023b60048036038101906102369190613fa8565b6108f5565b005b34801561024957600080fd5b50610264600480360381019061025f9190613e96565b610c80565b6040516102719190614627565b60405180910390f35b34801561028657600080fd5b5061028f610c92565b60405161029c9190614642565b60405180910390f35b3480156102b157600080fd5b506102cc60048036038101906102c79190613fa8565b610d24565b6040516102d991906145c0565b60405180910390f35b3480156102ee57600080fd5b5061030960048036038101906103049190613e5a565b610d6a565b005b34801561031757600080fd5b50610332600480360381019061032d9190613fa8565b610e82565b60405161033f9190614642565b60405180910390f35b34801561035457600080fd5b5061035d610f72565b60405161036a91906149dd565b60405180910390f35b34801561037f57600080fd5b5061039a60048036038101906103959190613fa8565b610f7f565b005b3480156103a857600080fd5b506103c360048036038101906103be9190613d54565b611019565b005b3480156103d157600080fd5b506103ec60048036038101906103e79190613e5a565b611079565b6040516103f991906149dd565b60405180910390f35b34801561040e57600080fd5b5061041761111e565b60405161042491906149dd565b60405180910390f35b34801561043957600080fd5b50610442611124565b60405161044f91906149dd565b60405180910390f35b34801561046457600080fd5b5061047f600480360381019061047a9190613d54565b611135565b005b34801561048d57600080fd5b506104a860048036038101906104a39190613fa8565b611155565b6040516104b591906149dd565b60405180910390f35b3480156104ca57600080fd5b506104e560048036038101906104e09190613fa8565b6111ec565b005b3480156104f357600080fd5b5061050e60048036038101906105099190613fa8565b611323565b60405161051b91906145c0565b60405180910390f35b34801561053057600080fd5b5061054b60048036038101906105469190613fa8565b6113aa565b60405161055891906149bb565b60405180910390f35b34801561056d57600080fd5b5061058860048036038101906105839190613cef565b6115b4565b60405161059591906149dd565b60405180910390f35b3480156105aa57600080fd5b506105c560048036038101906105c09190613fa8565b61166c565b6040516105d29190614627565b60405180910390f35b3480156105e757600080fd5b5061060260048036038101906105fd9190613f29565b6116db565b005b61061e60048036038101906106199190613fa8565b61192d565b005b34801561062c57600080fd5b5061064760048036038101906106429190613cef565b611c08565b005b34801561065557600080fd5b50610670600480360381019061066b9190613fa8565b611dc8565b60405161067d9190614627565b60405180910390f35b34801561069257600080fd5b5061069b611df5565b6040516106a89190614642565b60405180910390f35b3480156106bd57600080fd5b506106d860048036038101906106d39190613fa8565b611e87565b6040516106e591906149dd565b60405180910390f35b3480156106fa57600080fd5b5061071560048036038101906107109190613e1e565b611ea7565b005b34801561072357600080fd5b5061072c611ebd565b005b34801561073a57600080fd5b5061075560048036038101906107509190613da3565b6120a1565b005b34801561076357600080fd5b5061076c612103565b60405161077991906149dd565b60405180910390f35b34801561078e57600080fd5b506107a960048036038101906107a49190613fa8565b612109565b6040516107b69190614627565b60405180910390f35b3480156107cb57600080fd5b506107e660048036038101906107e19190613fa8565b612136565b6040516107f39190614642565b60405180910390f35b34801561080857600080fd5b50610823600480360381019061081e9190613d18565b61219e565b6040516108309190614627565b60405180910390f35b34801561084557600080fd5b5061084e612232565b60405161085b91906149dd565b60405180910390f35b34801561087057600080fd5b5061088b60048036038101906108869190613ee8565b612238565b60405161089891906149dd565b60405180910390f35b3480156108ad57600080fd5b506108b66122a9565b6040516108c391906145c0565b60405180910390f35b3480156108d857600080fd5b506108f360048036038101906108ee9190613fa8565b6122cf565b005b6108fe8161166c565b61093d576040517f08c379a00000000000000000000000000000000000000000000000000000000081526004016109349061469b565b60405180910390fd5b60006010600083815260200190815260200160002060405180608001604052908160008201805461096d90614d17565b80601f016020809104026020016040519081016040528092919081815260200182805461099990614d17565b80156109e65780601f106109bb576101008083540402835291602001916109e6565b820191906000526020600020905b8154815290600101906020018083116109c957829003601f168201915b505050505081526020016001820180546109ff90614d17565b80601f0160208091040260200160405190810160405280929190818152602001828054610a2b90614d17565b8015610a785780601f10610a4d57610100808354040283529160200191610a78565b820191906000526020600020905b815481529060010190602001808311610a5b57829003601f168201915b505050505081526020016002820160009054906101000a900473ffffffffffffffffffffffffffffffffffffffff1673ffffffffffffffffffffffffffffffffffffffff1673ffffffffffffffffffffffffffffffffffffffff1681526020016002820160149054906101000a900460ff16151515158152505090503373ffffffffffffffffffffffffffffffffffffffff16816040015173ffffffffffffffffffffffffffffffffffffffff1614610b66576040517f08c379a0000000000000000000000000000000000000000000000000000000008152600401610b5d9061479b565b60405180910390fd5b6000600c5490506000600c819055506000826040015173ffffffffffffffffffffffffffffffffffffffff1682604051610b9f906145ab565b60006040518083038185875af1925050503d8060008114610bdc576040519150601f19603f3d011682016040523d82523d6000602084013e610be1565b606091505b5050905080610c25576040517f08c379a0000000000000000000000000000000000000000000000000000000008152600401610c1c906147bb565b60405180910390fd5b826040015173ffffffffffffffffffffffffffffffffffffffff167f1b7af42192901f68cf802e7304e6b3180f62c2a2c32062746bb50d6292a04674836000604051610c729291906149f8565b60405180910390a250505050565b6000610c8b8261250e565b9050919050565b606060008054610ca190614d17565b80601f0160208091040260200160405190810160405280929190818152602001828054610ccd90614d17565b8015610d1a5780601f10610cef57610100808354040283529160200191610d1a565b820191906000526020600020905b815481529060010190602001808311610cfd57829003601f168201915b5050505050905090565b6000610d2f82612588565b6004600083815260200190815260200160002060009054906101000a900473ffffffffffffffffffffffffffffffffffffffff169050919050565b6000610d7582611323565b90508073ffffffffffffffffffffffffffffffffffffffff168373ffffffffffffffffffffffffffffffffffffffff161415610de6576040517f08c379a0000000000000000000000000000000000000000000000000000000008152600401610ddd906148bb565b60405180910390fd5b8073ffffffffffffffffffffffffffffffffffffffff16610e056125d3565b73ffffffffffffffffffffffffffffffffffffffff161480610e345750610e3381610e2e6125d3565b61219e565b5b610e73576040517f08c379a0000000000000000000000000000000000000000000000000000000008152600401610e6a906148db565b60405180910390fd5b610e7d83836125db565b505050565b6060610e8d82611dc8565b610ecc576040517f08c379a0000000000000000000000000000000000000000000000000000000008152600401610ec39061497b565b60405180910390fd5b600f60008381526020019081526020016000206001018054610eed90614d17565b80601f0160208091040260200160405190810160405280929190818152602001828054610f1990614d17565b8015610f665780601f10610f3b57610100808354040283529160200191610f66565b820191906000526020600020905b815481529060010190602001808311610f4957829003601f168201915b50505050509050919050565b6000600880549050905090565b600e60009054906101000a900473ffffffffffffffffffffffffffffffffffffffff1673ffffffffffffffffffffffffffffffffffffffff163373ffffffffffffffffffffffffffffffffffffffff161461100f576040517f08c379a00000000000000000000000000000000000000000000000000000000081526004016110069061495b565b60405180910390fd5b80600b8190555050565b61102a6110246125d3565b82612694565b611069576040517f08c379a0000000000000000000000000000000000000000000000000000000008152600401611060906146bb565b60405180910390fd5b611074838383612729565b505050565b6000611084836115b4565b82106110c5576040517f08c379a00000000000000000000000000000000000000000000000000000000081526004016110bc9061471b565b60405180910390fd5b600660008473ffffffffffffffffffffffffffffffffffffffff1673ffffffffffffffffffffffffffffffffffffffff168152602001908152602001600020600083815260200190815260200160002054905092915050565b600d5481565b6000611130600a612a23565b905090565b611150838383604051806020016040528060008152506120a1565b505050565b600061115f610f72565b82106111a0576040517f08c379a0000000000000000000000000000000000000000000000000000000008152600401611197906148fb565b60405180910390fd5b600882815481106111da577f4e487b7100000000000000000000000000000000000000000000000000000000600052603260045260246000fd5b90600052602060002001549050919050565b600e60009054906101000a900473ffffffffffffffffffffffffffffffffffffffff1673ffffffffffffffffffffffffffffffffffffffff163373ffffffffffffffffffffffffffffffffffffffff161461127c576040517f08c379a00000000000000000000000000000000000000000000000000000000081526004016112739061495b565b60405180910390fd5b6112858161166c565b6112c4576040517f08c379a00000000000000000000000000000000000000000000000000000000081526004016112bb9061469b565b60405180910390fd5b60016010600083815260200190815260200160002060020160146101000a81548160ff021916908315150217905550807f0bdd97990a2a139e8c8eff9f47049ac9c6b2771fe5b1220c5e39cb0984c8885560405160405180910390a250565b60008061132f83612a31565b9050600073ffffffffffffffffffffffffffffffffffffffff168173ffffffffffffffffffffffffffffffffffffffff1614156113a1576040517f08c379a00000000000000000000000000000000000000000000000000000000081526004016113989061489b565b60405180910390fd5b80915050919050565b6113b2613a93565b6113bb8261166c565b6113fa576040517f08c379a00000000000000000000000000000000000000000000000000000000081526004016113f19061469b565b60405180910390fd5b6010600083815260200190815260200160002060405180608001604052908160008201805461142890614d17565b80601f016020809104026020016040519081016040528092919081815260200182805461145490614d17565b80156114a15780601f10611476576101008083540402835291602001916114a1565b820191906000526020600020905b81548152906001019060200180831161148457829003601f168201915b505050505081526020016001820180546114ba90614d17565b80601f01602080910402602001604051908101604052809291908181526020018280546114e690614d17565b80156115335780601f1061150857610100808354040283529160200191611533565b820191906000526020600020905b81548152906001019060200180831161151657829003601f168201915b505050505081526020016002820160009054906101000a900473ffffffffffffffffffffffffffffffffffffffff1673ffffffffffffffffffffffffffffffffffffffff1673ffffffffffffffffffffffffffffffffffffffff1681526020016002820160149054906101000a900460ff1615151515815250509050919050565b60008073ffffffffffffffffffffffffffffffffffffffff168273ffffffffffffffffffffffffffffffffffffffff161415611625576040517f08c379a000000000000000000000000000000000000000000000000000000000815260040161161c9061481b565b60405180910390fd5b600360008373ffffffffffffffffffffffffffffffffffffffff1673ffffffffffffffffffffffffffffffffffffffff168152602001908152602001600020549050919050565b60008073ffffffffffffffffffffffffffffffffffffffff166010600084815260200190815260200160002060020160009054906101000a900473ffffffffffffffffffffffffffffffffffffffff1673ffffffffffffffffffffffffffffffffffffffff1614159050919050565b8073ffffffffffffffffffffffffffffffffffffffff163373ffffffffffffffffffffffffffffffffffffffff1614611749576040517f08c379a00000000000000000000000000000000000000000000000000000000081526004016117409061483b565b60405180910390fd5b600060118360405161175b9190614570565b908152602001604051809103902054146117aa576040517f08c379a00000000000000000000000000000000000000000000000000000000081526004016117a1906146fb565b60405180910390fd5b60006117b6600a612a23565b90506117c2600a612a6e565b60405180608001604052808581526020018481526020018373ffffffffffffffffffffffffffffffffffffffff1681526020016000151581525060106000838152602001908152602001600020600082015181600001908051906020019061182b929190613ad3565b506020820151816001019080519060200190611848929190613ad3565b5060408201518160020160006101000a81548173ffffffffffffffffffffffffffffffffffffffff021916908373ffffffffffffffffffffffffffffffffffffffff16021790555060608201518160020160146101000a81548160ff021916908315150217905550905050806011846040516118c49190614570565b9081526020016040518091039020819055508173ffffffffffffffffffffffffffffffffffffffff16817f636e23ae449067068cb70d796e0d8cd4231830249a2eb8405d811ac38e42c48d868660405161191f929190614664565b60405180910390a350505050565b600b54341015611972576040517f08c379a00000000000000000000000000000000000000000000000000000000081526004016119699061487b565b60405180910390fd5b61197b8161166c565b6119ba576040517f08c379a00000000000000000000000000000000000000000000000000000000081526004016119b19061499b565b60405180910390fd5b6119c381612109565b611a02576040517f08c379a00000000000000000000000000000000000000000000000000000000081526004016119f99061491b565b60405180910390fd5b60006064605a34611a139190614bd3565b611a1d9190614ba2565b905060006064600a34611a309190614bd3565b611a3a9190614ba2565b905081600c6000828254611a4e9190614b4c565b9250508190555080600d6000828254611a679190614b4c565b925050819055506000611a7a600a612a23565b9050611a86600a612a6e565b611a903382612a84565b604051806040016040528062278d0042611aaa9190614b4c565b8152602001601060008781526020019081526020016000206001018054611ad090614d17565b80601f0160208091040260200160405190810160405280929190818152602001828054611afc90614d17565b8015611b495780601f10611b1e57610100808354040283529160200191611b49565b820191906000526020600020905b815481529060010190602001808311611b2c57829003601f168201915b5050505050815250600f6000838152602001908152602001600020600082015181600001556020820151816001019080519060200190611b8a929190613ad3565b509050503373ffffffffffffffffffffffffffffffffffffffff16817f9c4abfebc7fcb27eb74895802adaad7a22683a1d607058982323b009afa6eb2262278d0042611bd69190614b4c565b60106000898152602001908152602001600020600101604051611bfa929190614a21565b60405180910390a350505050565b600e60009054906101000a900473ffffffffffffffffffffffffffffffffffffffff1673ffffffffffffffffffffffffffffffffffffffff163373ffffffffffffffffffffffffffffffffffffffff1614611c98576040517f08c379a0000000000000000000000000000000000000000000000000000000008152600401611c8f9061495b565b60405180910390fd5b600073ffffffffffffffffffffffffffffffffffffffff168173ffffffffffffffffffffffffffffffffffffffff161415611d08576040517f08c379a0000000000000000000000000000000000000000000000000000000008152600401611cff906146db565b60405180910390fd5b8073ffffffffffffffffffffffffffffffffffffffff16600e60009054906101000a900473ffffffffffffffffffffffffffffffffffffffff1673ffffffffffffffffffffffffffffffffffffffff167f7e644d79422f17c01e4894b5f4f588d331ebfa28653d42ae832dc59e38c9798f60405160405180910390a380600e60006101000a81548173ffffffffffffffffffffffffffffffffffffffff021916908373ffffffffffffffffffffffffffffffffffffffff16021790555050565b6000611dd382611323565b5042600f60008481526020019081526020016000206000015410159050919050565b606060018054611e0490614d17565b80601f0160208091040260200160405190810160405280929190818152602001828054611e3090614d17565b8015611e7d5780601f10611e5257610100808354040283529160200191611e7d565b820191906000526020600020905b815481529060010190602001808311611e6057829003601f168201915b5050505050905090565b6000600f6000838152602001908152602001600020600001549050919050565b611eb9611eb26125d3565b8383612aa2565b5050565b600e60009054906101000a900473ffffffffffffffffffffffffffffffffffffffff1673ffffffffffffffffffffffffffffffffffffffff163373ffffffffffffffffffffffffffffffffffffffff1614611f4d576040517f08c379a0000000000000000000000000000000000000000000000000000000008152600401611f449061495b565b60405180910390fd5b6000600d5490506000600d819055506000600e60009054906101000a900473ffffffffffffffffffffffffffffffffffffffff1673ffffffffffffffffffffffffffffffffffffffff1682604051611fa4906145ab565b60006040518083038185875af1925050503d8060008114611fe1576040519150601f19603f3d011682016040523d82523d6000602084013e611fe6565b606091505b505090508061202a576040517f08c379a0000000000000000000000000000000000000000000000000000000008152600401612021906147bb565b60405180910390fd5b600e60009054906101000a900473ffffffffffffffffffffffffffffffffffffffff1673ffffffffffffffffffffffffffffffffffffffff167f1b7af42192901f68cf802e7304e6b3180f62c2a2c32062746bb50d6292a046748360016040516120959291906149f8565b60405180910390a25050565b6120b26120ac6125d3565b83612694565b6120f1576040517f08c379a00000000000000000000000000000000000000000000000000000000081526004016120e8906146bb565b60405180910390fd5b6120fd84848484612c0f565b50505050565b600b5481565b60006010600083815260200190815260200160002060020160149054906101000a900460ff169050919050565b606061214182612588565b600061214b612c6b565b9050600081511161216b5760405180602001604052806000815250612196565b8061217584612c82565b604051602001612186929190614587565b6040516020818303038152906040525b915050919050565b6000600560008473ffffffffffffffffffffffffffffffffffffffff1673ffffffffffffffffffffffffffffffffffffffff16815260200190815260200160002060008373ffffffffffffffffffffffffffffffffffffffff1673ffffffffffffffffffffffffffffffffffffffff16815260200190815260200160002060009054906101000a900460ff16905092915050565b600c5481565b60008060118360405161224b9190614570565b908152602001604051809103902054905060008114156122a0576040517f08c379a00000000000000000000000000000000000000000000000000000000081526004016122979061469b565b60405180910390fd5b80915050919050565b600e60009054906101000a900473ffffffffffffffffffffffffffffffffffffffff1681565b600e60009054906101000a900473ffffffffffffffffffffffffffffffffffffffff1673ffffffffffffffffffffffffffffffffffffffff163373ffffffffffffffffffffffffffffffffffffffff161461235f576040517f08c379a00000000000000000000000000000000000000000000000000000000081526004016123569061495b565b60405180910390fd5b6123688161166c565b6123a7576040517f08c379a000000000000000000000000000000000000000000000000000000000815260040161239e9061469b565b60405180910390fd5b60006010600083815260200190815260200160002060010180546123ca90614d17565b80601f01602080910402602001604051908101604052809291908181526020018280546123f690614d17565b80156124435780601f1061241857610100808354040283529160200191612443565b820191906000526020600020905b81548152906001019060200180831161242657829003601f168201915b50505050509050601060008381526020019081526020016000206000808201600061246e9190613b59565b60018201600061247e9190613b59565b6002820160006101000a81549073ffffffffffffffffffffffffffffffffffffffff02191690556002820160146101000a81549060ff021916905550506011816040516124cb9190614570565b908152602001604051809103902060009055817fbdc5f307127ee49be7848b431e1fe06bfcd681e3a7ee8b050febfc95c48d973c60405160405180910390a25050565b60007f780e9d63000000000000000000000000000000000000000000000000000000007bffffffffffffffffffffffffffffffffffffffffffffffffffffffff1916827bffffffffffffffffffffffffffffffffffffffffffffffffffffffff19161480612581575061258082612da6565b5b9050919050565b61259181612e88565b6125d0576040517f08c379a00000000000000000000000000000000000000000000000000000000081526004016125c79061489b565b60405180910390fd5b50565b600033905090565b816004600083815260200190815260200160002060006101000a81548173ffffffffffffffffffffffffffffffffffffffff021916908373ffffffffffffffffffffffffffffffffffffffff160217905550808273ffffffffffffffffffffffffffffffffffffffff1661264e83611323565b73ffffffffffffffffffffffffffffffffffffffff167f8c5be1e5ebec7d5bd14f71427d1e84f3dd0314c0f7b2291e5b200ac8c7c3b92560405160405180910390a45050565b6000806126a083611323565b90508073ffffffffffffffffffffffffffffffffffffffff168473ffffffffffffffffffffffffffffffffffffffff1614806126e257506126e1818561219e565b5b8061272057508373ffffffffffffffffffffffffffffffffffffffff1661270884610d24565b73ffffffffffffffffffffffffffffffffffffffff16145b91505092915050565b8273ffffffffffffffffffffffffffffffffffffffff1661274982611323565b73ffffffffffffffffffffffffffffffffffffffff161461279f576040517f08c379a00000000000000000000000000000000000000000000000000000000081526004016127969061475b565b60405180910390fd5b600073ffffffffffffffffffffffffffffffffffffffff168273ffffffffffffffffffffffffffffffffffffffff16141561280f576040517f08c379a0000000000000000000000000000000000000000000000000000000008152600401612806906147db565b60405180910390fd5b61281c8383836001612ec9565b8273ffffffffffffffffffffffffffffffffffffffff1661283c82611323565b73ffffffffffffffffffffffffffffffffffffffff1614612892576040517f08c379a00000000000000000000000000000000000000000000000000000000081526004016128899061475b565b60405180910390fd5b6004600082815260200190815260200160002060006101000a81549073ffffffffffffffffffffffffffffffffffffffff02191690556001600360008573ffffffffffffffffffffffffffffffffffffffff1673ffffffffffffffffffffffffffffffffffffffff168152602001908152602001600020600082825403925050819055506001600360008473ffffffffffffffffffffffffffffffffffffffff1673ffffffffffffffffffffffffffffffffffffffff16815260200190815260200160002060008282540192505081905550816002600083815260200190815260200160002060006101000a81548173ffffffffffffffffffffffffffffffffffffffff021916908373ffffffffffffffffffffffffffffffffffffffff160217905550808273ffffffffffffffffffffffffffffffffffffffff168473ffffffffffffffffffffffffffffffffffffffff167fddf252ad1be2c89b69c2b068fc378daa952ba7f163c4a11628f55a4df523b3ef60405160405180910390a4612a1e8383836001612edb565b505050565b600081600001549050919050565b60006002600083815260200190815260200160002060009054906101000a900473ffffffffffffffffffffffffffffffffffffffff169050919050565b6001816000016000828254019250508190555050565b612a9e828260405180602001604052806000815250612ee1565b5050565b8173ffffffffffffffffffffffffffffffffffffffff168373ffffffffffffffffffffffffffffffffffffffff161415612b11576040517f08c379a0000000000000000000000000000000000000000000000000000000008152600401612b08906147fb565b60405180910390fd5b80600560008573ffffffffffffffffffffffffffffffffffffffff1673ffffffffffffffffffffffffffffffffffffffff16815260200190815260200160002060008473ffffffffffffffffffffffffffffffffffffffff1673ffffffffffffffffffffffffffffffffffffffff16815260200190815260200160002060006101000a81548160ff0219169083151502179055508173ffffffffffffffffffffffffffffffffffffffff168373ffffffffffffffffffffffffffffffffffffffff167f17307eab39ab6107e8899845ad3d59bd9653f200f220920489ca2b5937696c3183604051612c029190614627565b60405180910390a3505050565b612c1a848484612729565b612c2684848484612f3c565b612c65576040517f08c379a0000000000000000000000000000000000000000000000000000000008152600401612c5c9061473b565b60405180910390fd5b50505050565b606060405180602001604052806000815250905090565b606060006001612c91846130d3565b01905060008167ffffffffffffffff811115612cd6577f4e487b7100000000000000000000000000000000000000000000000000000000600052604160045260246000fd5b6040519080825280601f01601f191660200182016040528015612d085781602001600182028036833780820191505090505b509050600082602001820190505b600115612d9b578080600190039150507f3031323334353637383961626364656600000000000000000000000000000000600a86061a8153600a8581612d85577f4e487b7100000000000000000000000000000000000000000000000000000000600052601260045260246000fd5b0494506000851415612d9657612d9b565b612d16565b819350505050919050565b60007f80ac58cd000000000000000000000000000000000000000000000000000000007bffffffffffffffffffffffffffffffffffffffffffffffffffffffff1916827bffffffffffffffffffffffffffffffffffffffffffffffffffffffff19161480612e7157507f5b5e139f000000000000000000000000000000000000000000000000000000007bffffffffffffffffffffffffffffffffffffffffffffffffffffffff1916827bffffffffffffffffffffffffffffffffffffffffffffffffffffffff1916145b80612e815750612e808261330a565b5b9050919050565b60008073ffffffffffffffffffffffffffffffffffffffff16612eaa83612a31565b73ffffffffffffffffffffffffffffffffffffffff1614159050919050565b612ed584848484613374565b50505050565b50505050565b612eeb83836134d4565b612ef86000848484612f3c565b612f37576040517f08c379a0000000000000000000000000000000000000000000000000000000008152600401612f2e9061473b565b60405180910390fd5b505050565b6000612f5d8473ffffffffffffffffffffffffffffffffffffffff166136f2565b156130c6578373ffffffffffffffffffffffffffffffffffffffff1663150b7a02612f866125d3565b8786866040518563ffffffff1660e01b8152600401612fa894939291906145db565b602060405180830381600087803b158015612fc257600080fd5b505af1925050508015612ff357506040513d601f19601f82011682018060405250810190612ff09190613ebf565b60015b613076573d8060008114613023576040519150601f19603f3d011682016040523d82523d6000602084013e613028565b606091505b5060008151141561306e576040517f08c379a00000000000000000000000000000000000000000000000000000000081526004016130659061473b565b60405180910390fd5b805181602001fd5b63150b7a0260e01b7bffffffffffffffffffffffffffffffffffffffffffffffffffffffff1916817bffffffffffffffffffffffffffffffffffffffffffffffffffffffff1916149150506130cb565b600190505b949350505050565b600080600090507a184f03e93ff9f4daa797ed6e38ed64bf6a1f0100000000000000008310613157577a184f03e93ff9f4daa797ed6e38ed64bf6a1f010000000000000000838161314d577f4e487b7100000000000000000000000000000000000000000000000000000000600052601260045260246000fd5b0492506040810190505b6d04ee2d6d415b85acef810000000083106131ba576d04ee2d6d415b85acef810000000083816131b0577f4e487b7100000000000000000000000000000000000000000000000000000000600052601260045260246000fd5b0492506020810190505b662386f26fc10000831061320f57662386f26fc100008381613205577f4e487b7100000000000000000000000000000000000000000000000000000000600052601260045260246000fd5b0492506010810190505b6305f5e100831061325e576305f5e1008381613254577f4e487b7100000000000000000000000000000000000000000000000000000000600052601260045260246000fd5b0492506008810190505b61271083106132a957612710838161329f577f4e487b7100000000000000000000000000000000000000000000000000000000600052601260045260246000fd5b0492506004810190505b606483106132f257606483816132e8577f4e487b7100000000000000000000000000000000000000000000000000000000600052601260045260246000fd5b0492506002810190505b600a8310613301576001810190505b80915050919050565b60007f01ffc9a7000000000000000000000000000000000000000000000000000000007bffffffffffffffffffffffffffffffffffffffffffffffffffffffff1916827bffffffffffffffffffffffffffffffffffffffffffffffffffffffff1916149050919050565b61338084848484613715565b60018111156133c4576040517f08c379a00000000000000000000000000000000000000000000000000000000081526004016133bb9061493b565b60405180910390fd5b6000829050600073ffffffffffffffffffffffffffffffffffffffff168573ffffffffffffffffffffffffffffffffffffffff16141561340c576134078161371b565b61344b565b8373ffffffffffffffffffffffffffffffffffffffff168573ffffffffffffffffffffffffffffffffffffffff161461344a576134498582613764565b5b5b600073ffffffffffffffffffffffffffffffffffffffff168473ffffffffffffffffffffffffffffffffffffffff16141561348e57613489816138d1565b6134cd565b8473ffffffffffffffffffffffffffffffffffffffff168473ffffffffffffffffffffffffffffffffffffffff16146134cc576134cb8482613a14565b5b5b5050505050565b600073ffffffffffffffffffffffffffffffffffffffff168273ffffffffffffffffffffffffffffffffffffffff161415613544576040517f08c379a000000000000000000000000000000000000000000000000000000000815260040161353b9061485b565b60405180910390fd5b61354d81612e88565b1561358d576040517f08c379a00000000000000000000000000000000000000000000000000000000081526004016135849061477b565b60405180910390fd5b61359b600083836001612ec9565b6135a481612e88565b156135e4576040517f08c379a00000000000000000000000000000000000000000000000000000000081526004016135db9061477b565b60405180910390fd5b6001600360008473ffffffffffffffffffffffffffffffffffffffff1673ffffffffffffffffffffffffffffffffffffffff16815260200190815260200160002060008282540192505081905550816002600083815260200190815260200160002060006101000a81548173ffffffffffffffffffffffffffffffffffffffff021916908373ffffffffffffffffffffffffffffffffffffffff160217905550808273ffffffffffffffffffffffffffffffffffffffff16600073ffffffffffffffffffffffffffffffffffffffff167fddf252ad1be2c89b69c2b068fc378daa952ba7f163c4a11628f55a4df523b3ef60405160405180910390a46136ee600083836001612edb565b5050565b6000808273ffffffffffffffffffffffffffffffffffffffff163b119050919050565b50505050565b6008805490506009600083815260200190815260200160002081905550600881908060018154018082558091505060019003906000526020600020016000909190919091505550565b60006001613771846115b4565b61377b9190614c2d565b9050600060076000848152602001908152602001600020549050818114613860576000600660008673ffffffffffffffffffffffffffffffffffffffff1673ffffffffffffffffffffffffffffffffffffffff168152602001908152602001600020600084815260200190815260200160002054905080600660008773ffffffffffffffffffffffffffffffffffffffff1673ffffffffffffffffffffffffffffffffffffffff168152602001908152602001600020600084815260200190815260200160002081905550816007600083815260200190815260200160002081905550505b6007600084815260200190815260200160002060009055600660008573ffffffffffffffffffffffffffffffffffffffff1673ffffffffffffffffffffffffffffffffffffffff16815260200190815260200160002060008381526020019081526020016000206000905550505050565b600060016008805490506138e59190614c2d565b905060006009600084815260200190815260200160002054905060006008838154811061393b577f4e487b7100000000000000000000000000000000000000000000000000000000600052603260045260246000fd5b906000526020600020015490508060088381548110613983577f4e487b7100000000000000000000000000000000000000000000000000000000600052603260045260246000fd5b9060005260206000200181905550816009600083815260200190815260200160002081905550600960008581526020019081526020016000206000905560088054806139f8577f4e487b7100000000000000000000000000000000000000000000000000000000600052603160045260246000fd5b6001900381819060005260206000200160009055905550505050565b6000613a1f836115b4565b905081600660008573ffffffffffffffffffffffffffffffffffffffff1673ffffffffffffffffffffffffffffffffffffffff168152602001908152602001600020600083815260200190815260200160002081905550806007600084815260200190815260200160002081905550505050565b60405180608001604052806060815260200160608152602001600073ffffffffffffffffffffffffffffffffffffffff1681526020016000151581525090565b828054613adf90614d17565b90600052602060002090601f016020900481019282613b015760008555613b48565b82601f10613b1a57805160ff1916838001178555613b48565b82800160010185558215613b48579182015b82811115613b47578251825591602001919060010190613b2c565b5b509050613b559190613b99565b5090565b508054613b6590614d17565b6000825580601f10613b775750613b96565b601f016020900490600052602060002090810190613b959190613b99565b5b50565b5b80821115613bb2576000816000905550600101613b9a565b5090565b6000613bc9613bc484614a76565b614a51565b905082815260208101848484011115613be157600080fd5b613bec848285614cd5565b509392505050565b6000613c07613c0284614aa7565b614a51565b905082815260208101848484011115613c1f57600080fd5b613c2a848285614cd5565b509392505050565b600081359050613c41816153c7565b92915050565b600081359050613c56816153de565b92915050565b600081359050613c6b816153f5565b92915050565b600081519050613c80816153f5565b92915050565b600082601f830112613c9757600080fd5b8135613ca7848260208601613bb6565b91505092915050565b600082601f830112613cc157600080fd5b8135613cd1848260208601613bf4565b91505092915050565b600081359050613ce98161540c565b92915050565b600060208284031215613d0157600080fd5b6000613d0f84828501613c32565b91505092915050565b60008060408385031215613d2b57600080fd5b6000613d3985828601613c32565b9250506020613d4a85828601613c32565b9150509250929050565b600080600060608486031215613d6957600080fd5b6000613d7786828701613c32565b9350506020613d8886828701613c32565b9250506040613d9986828701613cda565b9150509250925092565b60008060008060808587031215613db957600080fd5b6000613dc787828801613c32565b9450506020613dd887828801613c32565b9350506040613de987828801613cda565b925050606085013567ffffffffffffffff811115613e0657600080fd5b613e1287828801613c86565b91505092959194509250565b60008060408385031215613e3157600080fd5b6000613e3f85828601613c32565b9250506020613e5085828601613c47565b9150509250929050565b60008060408385031215613e6d57600080fd5b6000613e7b85828601613c32565b9250506020613e8c85828601613cda565b9150509250929050565b600060208284031215613ea857600080fd5b6000613eb684828501613c5c565b91505092915050565b600060208284031215613ed157600080fd5b6000613edf84828501613c71565b91505092915050565b600060208284031215613efa57600080fd5b600082013567ffffffffffffffff811115613f1457600080fd5b613f2084828501613cb0565b91505092915050565b600080600060608486031215613f3e57600080fd5b600084013567ffffffffffffffff811115613f5857600080fd5b613f6486828701613cb0565b935050602084013567ffffffffffffffff811115613f8157600080fd5b613f8d86828701613cb0565b9250506040613f9e86828701613c32565b9150509250925092565b600060208284031215613fba57600080fd5b6000613fc884828501613cda565b91505092915050565b613fda81614c61565b82525050565b613fe981614c61565b82525050565b613ff881614c73565b82525050565b61400781614c73565b82525050565b600061401882614aed565b6140228185614b03565b9350614032818560208601614ce4565b61403b81614e36565b840191505092915050565b600061405182614af8565b61405b8185614b1f565b935061406b818560208601614ce4565b61407481614e36565b840191505092915050565b600061408a82614af8565b6140948185614b30565b93506140a4818560208601614ce4565b6140ad81614e36565b840191505092915050565b60006140c382614af8565b6140cd8185614b41565b93506140dd818560208601614ce4565b80840191505092915050565b600081546140f681614d17565b6141008186614b30565b9450600182166000811461411b576001811461412d57614160565b60ff1983168652602086019350614160565b61413685614ad8565b60005b8381101561415857815481890152600182019150602081019050614139565b808801955050505b50505092915050565b6000614176601183614b30565b915061418182614e47565b602082019050919050565b6000614199602d83614b30565b91506141a482614e70565b604082019050919050565b60006141bc600f83614b30565b91506141c782614ebf565b602082019050919050565b60006141df601a83614b30565b91506141ea82614ee8565b602082019050919050565b6000614202602b83614b30565b915061420d82614f11565b604082019050919050565b6000614225603283614b30565b915061423082614f60565b604082019050919050565b6000614248602583614b30565b915061425382614faf565b604082019050919050565b600061426b601c83614b30565b915061427682614ffe565b602082019050919050565b600061428e601783614b30565b915061429982615027565b602082019050919050565b60006142b1601483614b30565b91506142bc82615050565b602082019050919050565b60006142d4602483614b30565b91506142df82615079565b604082019050919050565b60006142f7601983614b30565b9150614302826150c8565b602082019050919050565b600061431a602983614b30565b9150614325826150f1565b604082019050919050565b600061433d601783614b30565b915061434882615140565b602082019050919050565b6000614360602083614b30565b915061436b82615169565b602082019050919050565b6000614383601483614b30565b915061438e82615192565b602082019050919050565b60006143a6601883614b30565b91506143b1826151bb565b602082019050919050565b60006143c9602183614b30565b91506143d4826151e4565b604082019050919050565b60006143ec600083614b14565b91506143f782615233565b600082019050919050565b600061440f603d83614b30565b915061441a82615236565b604082019050919050565b6000614432602c83614b30565b915061443d82615285565b604082019050919050565b6000614455601883614b30565b9150614460826152d4565b602082019050919050565b6000614478603583614b30565b9150614483826152fd565b604082019050919050565b600061449b600d83614b30565b91506144a68261534c565b602082019050919050565b60006144be601483614b30565b91506144c982615375565b602082019050919050565b60006144e1601683614b30565b91506144ec8261539e565b602082019050919050565b600060808301600083015184820360008601526145148282614046565b9150506020830151848203602086015261452e8282614046565b91505060408301516145436040860182613fd1565b5060608301516145566060860182613fef565b508091505092915050565b61456a81614ccb565b82525050565b600061457c82846140b8565b915081905092915050565b600061459382856140b8565b915061459f82846140b8565b91508190509392505050565b60006145b6826143df565b9150819050919050565b60006020820190506145d56000830184613fe0565b92915050565b60006080820190506145f06000830187613fe0565b6145fd6020830186613fe0565b61460a6040830185614561565b818103606083015261461c818461400d565b905095945050505050565b600060208201905061463c6000830184613ffe565b92915050565b6000602082019050818103600083015261465c818461407f565b905092915050565b6000604082019050818103600083015261467e818561407f565b90508181036020830152614692818461407f565b90509392505050565b600060208201905081810360008301526146b481614169565b9050919050565b600060208201905081810360008301526146d48161418c565b9050919050565b600060208201905081810360008301526146f4816141af565b9050919050565b60006020820190508181036000830152614714816141d2565b9050919050565b60006020820190508181036000830152614734816141f5565b9050919050565b6000602082019050818103600083015261475481614218565b9050919050565b600060208201905081810360008301526147748161423b565b9050919050565b600060208201905081810360008301526147948161425e565b9050919050565b600060208201905081810360008301526147b481614281565b9050919050565b600060208201905081810360008301526147d4816142a4565b9050919050565b600060208201905081810360008301526147f4816142c7565b9050919050565b60006020820190508181036000830152614814816142ea565b9050919050565b600060208201905081810360008301526148348161430d565b9050919050565b6000602082019050818103600083015261485481614330565b9050919050565b6000602082019050818103600083015261487481614353565b9050919050565b6000602082019050818103600083015261489481614376565b9050919050565b600060208201905081810360008301526148b481614399565b9050919050565b600060208201905081810360008301526148d4816143bc565b9050919050565b600060208201905081810360008301526148f481614402565b9050919050565b6000602082019050818103600083015261491481614425565b9050919050565b6000602082019050818103600083015261493481614448565b9050919050565b600060208201905081810360008301526149548161446b565b9050919050565b600060208201905081810360008301526149748161448e565b9050919050565b60006020820190508181036000830152614994816144b1565b9050919050565b600060208201905081810360008301526149b4816144d4565b9050919050565b600060208201905081810360008301526149d581846144f7565b905092915050565b60006020820190506149f26000830184614561565b92915050565b6000604082019050614a0d6000830185614561565b614a1a6020830184613ffe565b9392505050565b6000604082019050614a366000830185614561565b8181036020830152614a4881846140e9565b90509392505050565b6000614a5b614a6c565b9050614a678282614d49565b919050565b6000604051905090565b600067ffffffffffffffff821115614a9157614a90614e07565b5b614a9a82614e36565b9050602081019050919050565b600067ffffffffffffffff821115614ac257614ac1614e07565b5b614acb82614e36565b9050602081019050919050565b60008190508160005260206000209050919050565b600081519050919050565b600081519050919050565b600082825260208201905092915050565b600081905092915050565b600082825260208201905092915050565b600082825260208201905092915050565b600081905092915050565b6000614b5782614ccb565b9150614b6283614ccb565b9250827fffffffffffffffffffffffffffffffffffffffffffffffffffffffffffffffff03821115614b9757614b96614d7a565b5b828201905092915050565b6000614bad82614ccb565b9150614bb883614ccb565b925082614bc857614bc7614da9565b5b828204905092915050565b6000614bde82614ccb565b9150614be983614ccb565b9250817fffffffffffffffffffffffffffffffffffffffffffffffffffffffffffffffff0483118215151615614c2257614c21614d7a565b5b828202905092915050565b6000614c3882614ccb565b9150614c4383614ccb565b925082821015614c5657614c55614d7a565b5b828203905092915050565b6000614c6c82614cab565b9050919050565b60008115159050919050565b60007fffffffff0000000000000000000000000000000000000000000000000000000082169050919050565b600073ffffffffffffffffffffffffffffffffffffffff82169050919050565b6000819050919050565b82818337600083830152505050565b60005b83811015614d02578082015181840152602081019050614ce7565b83811115614d11576000848401525b50505050565b60006002820490506001821680614d2f57607f821691505b60208210811415614d4357614d42614dd8565b5b50919050565b614d5282614e36565b810181811067ffffffffffffffff82111715614d7157614d70614e07565b5b80604052505050565b7f4e487b7100000000000000000000000000000000000000000000000000000000600052601160045260246000fd5b7f4e487b7100000000000000000000000000000000000000000000000000000000600052601260045260246000fd5b7f4e487b7100000000000000000000000000000000000000000000000000000000600052602260045260246000fd5b7f4e487b7100000000000000000000000000000000000000000000000000000000600052604160045260246000fd5b6000601f19601f8301169050919050565b7f436f6e74656e74206e6f7420666f756e64000000000000000000000000000000600082015250565b7f4552433732313a2063616c6c6572206973206e6f7420746f6b656e206f776e6560008201527f72206f7220617070726f76656400000000000000000000000000000000000000602082015250565b7f496e76616c696420616464726573730000000000000000000000000000000000600082015250565b7f436f6e74656e7420616c72656164792072656769737465726564000000000000600082015250565b7f455243373231456e756d657261626c653a206f776e657220696e646578206f7560008201527f74206f6620626f756e6473000000000000000000000000000000000000000000602082015250565b7f4552433732313a207472616e7366657220746f206e6f6e20455243373231526560008201527f63656976657220696d706c656d656e7465720000000000000000000000000000602082015250565b7f4552433732313a207472616e736665722066726f6d20696e636f72726563742060008201527f6f776e6572000000000000000000000000000000000000000000000000000000602082015250565b7f4552433732313a20746f6b656e20616c7265616479206d696e74656400000000600082015250565b7f4e6f742074686520636f6e74656e742063726561746f72000000000000000000600082015250565b7f4661696c656420746f2073656e64204574686572000000000000000000000000600082015250565b7f4552433732313a207472616e7366657220746f20746865207a65726f2061646460008201527f7265737300000000000000000000000000000000000000000000000000000000602082015250565b7f4552433732313a20617070726f766520746f2063616c6c657200000000000000600082015250565b7f4552433732313a2061646472657373207a65726f206973206e6f74206120766160008201527f6c6964206f776e65720000000000000000000000000000000000000000000000602082015250565b7f596f75206d757374206265207468652063726561746f72000000000000000000600082015250565b7f4552433732313a206d696e7420746f20746865207a65726f2061646472657373600082015250565b7f496e73756666696369656e74207061796d656e74000000000000000000000000600082015250565b7f4552433732313a20696e76616c696420746f6b656e2049440000000000000000600082015250565b7f4552433732313a20617070726f76616c20746f2063757272656e74206f776e6560008201527f7200000000000000000000000000000000000000000000000000000000000000602082015250565b50565b7f4552433732313a20617070726f76652063616c6c6572206973206e6f7420746f60008201527f6b656e206f776e6572206f7220617070726f76656420666f7220616c6c000000602082015250565b7f455243373231456e756d657261626c653a20676c6f62616c20696e646578206f60008201527f7574206f6620626f756e64730000000000000000000000000000000000000000602082015250565b7f436f6e74656e74206e6f7420617070726f766564207965740000000000000000600082015250565b7f455243373231456e756d657261626c653a20636f6e736563757469766520747260008201527f616e7366657273206e6f7420737570706f727465640000000000000000000000602082015250565b7f4e6f74207468652061646d696e00000000000000000000000000000000000000600082015250565b7f537562736372697074696f6e2065787069726564000000000000000000000000600082015250565b7f436f6e74656e74206e6f74207265676973746572656400000000000000000000600082015250565b6153d081614c61565b81146153db57600080fd5b50565b6153e781614c73565b81146153f257600080fd5b50565b6153fe81614c7f565b811461540957600080fd5b50565b61541581614ccb565b811461542057600080fd5b5056fea2646970667358221220e0e4449018afe5cf1998f9bf98eabe2d97d115ac0ca2cbed9a71ae4d2646d5dd64736f6c63430008010033",
  "immutableReferences": {},
  "source": "// SPDX-License-Identifier: MIT\r\npragma solidity ^0.8.1;\r\n\r\nimport \"@openzeppelin/contracts/token/ERC721/extensions/ERC721Enumerable.sol\";\r\nimport \"@openzeppelin/contracts/utils/Counters.sol\";\r\n\r\ncontract SubManager is ERC721Enumerable {\r\n    using Counters for Counters.Counter;\r\n    Counters.Counter private _tokenIdCounter;\r\n\r\n    struct Subscription {\r\n        uint256 expiresAt;\r\n        string ipfsHash;\r\n    }\r\n\r\n    struct Content {\r\n        string name;\r\n        string ipfsHash;\r\n        address creator;\r\n        bool approved;\r\n    }\r\n\r\n    uint256 public subscriptionPrice = 0.01 ether;\r\n    uint256 public creatorsPool;\r\n    uint256 public platformPool;\r\n\r\n    uint256 private constant CREATORS_SHARE = 90;\r\n    uint256 private constant PLATFORM_SHARE = 10;\r\n\r\n    address public admin;\r\n\r\n    mapping(uint256 => Subscription) private _subscriptions;\r\n    mapping(uint256 => Content) private _registeredContents;\r\n    mapping(string => uint256) private _ipfsToTokenId;\r\n\r\n    event SubscriptionPurchased(\r\n        uint256 indexed tokenId,\r\n        address indexed subscriber,\r\n        uint256 expiresAt,\r\n        string ipfsHash\r\n    );\r\n\r\n    event ContentRegistered(\r\n        uint256 indexed tokenId,\r\n        string name,\r\n        string ipfsHash,\r\n        address indexed creator\r\n    );\r\n\r\n    event ContentApproved(uint256 indexed tokenId);\r\n    event ContentDeleted(uint256 indexed tokenId);\r\n    event FundsWithdrawn(address indexed recipient, uint256 amount, bool isPlatform);\r\n    event AdminChanged(address indexed previousAdmin, address indexed newAdmin);\r\n\r\n    modifier onlyAdmin() {\r\n        require(msg.sender == admin, \"Not the admin\");\r\n        _;\r\n    }\r\n\r\n    constructor() ERC721(\"ContentSubscription\", \"CSUB\") {\r\n        admin = msg.sender;\r\n    }\r\n\r\n    function changeAdmin(address newAdmin) external onlyAdmin {\r\n        require(newAdmin != address(0), \"Invalid address\");\r\n        emit AdminChanged(admin, newAdmin);\r\n        admin = newAdmin;\r\n    }\r\n\r\n    function registerContent(string memory name, string memory ipfsHash, address creator) external {\r\n        require(msg.sender == creator, \"You must be the creator\");\r\n        require(_ipfsToTokenId[ipfsHash] == 0, \"Content already registered\");\r\n\r\n        uint256 contentTokenId = _tokenIdCounter.current();\r\n        _tokenIdCounter.increment();\r\n\r\n        _registeredContents[contentTokenId] = Content({\r\n            name: name,\r\n            ipfsHash: ipfsHash,\r\n            creator: creator,\r\n            approved: false\r\n        });\r\n\r\n        _ipfsToTokenId[ipfsHash] = contentTokenId;\r\n\r\n        emit ContentRegistered(contentTokenId, name, ipfsHash, creator);\r\n    }\r\n\r\n    function approveContent(uint256 contentTokenId) external onlyAdmin {\r\n        require(contentExists(contentTokenId), \"Content not found\");\r\n        _registeredContents[contentTokenId].approved = true;\r\n        emit ContentApproved(contentTokenId);\r\n    }\r\n\r\n    function deleteContent(uint256 contentTokenId) external onlyAdmin {\r\n        require(contentExists(contentTokenId), \"Content not found\");\r\n        string memory ipfsHash = _registeredContents[contentTokenId].ipfsHash;\r\n        delete _registeredContents[contentTokenId];\r\n        delete _ipfsToTokenId[ipfsHash];\r\n        emit ContentDeleted(contentTokenId);\r\n    }\r\n\r\n    function isContentApproved(uint256 contentTokenId) public view returns (bool) {\r\n        return _registeredContents[contentTokenId].approved;\r\n    }\r\n\r\n    function purchaseSubscription(uint256 contentTokenId) external payable {\r\n        require(msg.value >= subscriptionPrice, \"Insufficient payment\");\r\n        require(contentExists(contentTokenId), \"Content not registered\");\r\n        require(isContentApproved(contentTokenId), \"Content not approved yet\");\r\n\r\n        uint256 creatorsShare = (msg.value * CREATORS_SHARE) / 100;\r\n        uint256 platformShare = (msg.value * PLATFORM_SHARE) / 100;\r\n\r\n        creatorsPool += creatorsShare;\r\n        platformPool += platformShare;\r\n\r\n        uint256 subscriptionTokenId = _tokenIdCounter.current();\r\n        _tokenIdCounter.increment();\r\n        _safeMint(msg.sender, subscriptionTokenId);\r\n\r\n        _subscriptions[subscriptionTokenId] = Subscription({\r\n            expiresAt: block.timestamp + 30 days,\r\n            ipfsHash: _registeredContents[contentTokenId].ipfsHash\r\n        });\r\n\r\n        emit SubscriptionPurchased(\r\n            subscriptionTokenId,\r\n            msg.sender,\r\n            block.timestamp + 30 days,\r\n            _registeredContents[contentTokenId].ipfsHash\r\n        );\r\n    }\r\n\r\n    function contentExists(uint256 contentTokenId) public view returns (bool) {\r\n        return _registeredContents[contentTokenId].creator != address(0);\r\n    }\r\n\r\n    function getContentByTokenId(uint256 contentTokenId) external view returns (Content memory) {\r\n        require(contentExists(contentTokenId), \"Content not found\");\r\n        return _registeredContents[contentTokenId];\r\n    }\r\n\r\n    function getTokenIdByIpfsHash(string memory ipfsHash) external view returns (uint256) {\r\n        uint256 tokenId = _ipfsToTokenId[ipfsHash];\r\n        require(tokenId != 0, \"Content not found\");\r\n        return tokenId;\r\n    }\r\n\r\n    function isSubscriptionValid(uint256 subscriptionTokenId) public view returns (bool) {\r\n        ownerOf(subscriptionTokenId);\r\n        return _subscriptions[subscriptionTokenId].expiresAt >= block.timestamp;\r\n    }\r\n\r\n    function getContentIpfsHash(uint256 subscriptionTokenId) external view returns (string memory) {\r\n        require(isSubscriptionValid(subscriptionTokenId), \"Subscription expired\");\r\n        return _subscriptions[subscriptionTokenId].ipfsHash;\r\n    }\r\n\r\n    function getSubscriptionExpiry(uint256 tokenId) external view returns (uint256) {\r\n        return _subscriptions[tokenId].expiresAt;\r\n    }\r\n\r\n    function withdrawCreatorFunds(uint256 contentTokenId) external {\r\n        require(contentExists(contentTokenId), \"Content not found\");\r\n        Content memory content = _registeredContents[contentTokenId];\r\n        require(content.creator == msg.sender, \"Not the content creator\");\r\n\r\n        uint256 amount = creatorsPool;\r\n        creatorsPool = 0;\r\n\r\n        (bool sent, ) = content.creator.call{value: amount}(\"\");\r\n        require(sent, \"Failed to send Ether\");\r\n\r\n        emit FundsWithdrawn(content.creator, amount, false);\r\n    }\r\n\r\n    function withdrawPlatformFunds() external onlyAdmin {\r\n        uint256 amount = platformPool;\r\n        platformPool = 0;\r\n\r\n        (bool sent, ) = admin.call{value: amount}(\"\");\r\n        require(sent, \"Failed to send Ether\");\r\n\r\n        emit FundsWithdrawn(admin, amount, true);\r\n    }\r\n\r\n    function setSubscriptionPrice(uint256 newPrice) external onlyAdmin {\r\n        subscriptionPrice = newPrice;\r\n    }\r\n\r\n    function getTotalContent() public view returns (uint256) {\r\n        return _tokenIdCounter.current();\r\n    }\r\n\r\n    function _beforeTokenTransfer(address from, address to, uint256 tokenId, uint256 batchSize)\r\n        internal\r\n        override(ERC721Enumerable)\r\n    {\r\n        super._beforeTokenTransfer(from, to, tokenId, batchSize);\r\n    }\r\n\r\n    function supportsInterface(bytes4 interfaceId)\r\n        public\r\n        view\r\n        override(ERC721Enumerable)\r\n        returns (bool)\r\n    {\r\n        return super.supportsInterface(interfaceId);\r\n    }\r\n}\r\n",
  "sourcePath": "C:\\Users\\Aryan Gupta\\Desktop\\CCMP-606\\submanager\\submanager-main\\truffle\\contracts\\subManager.sol",
  "compiler": {
    "name": "solc",
    "version": "0.8.1+commit.df193b15.Emscripten.clang"
  },
  "schemaVersion": "3.4.16",
  "updatedAt": "2025-04-17T18:18:53.263Z",
  "networkType": "ethereum",
  "devdoc": {
    "kind": "dev",
    "methods": {
      "approve(address,uint256)": {
        "details": "See {IERC721-approve}."
      },
      "balanceOf(address)": {
        "details": "See {IERC721-balanceOf}."
      },
      "getApproved(uint256)": {
        "details": "See {IERC721-getApproved}."
      },
      "isApprovedForAll(address,address)": {
        "details": "See {IERC721-isApprovedForAll}."
      },
      "name()": {
        "details": "See {IERC721Metadata-name}."
      },
      "ownerOf(uint256)": {
        "details": "See {IERC721-ownerOf}."
      },
      "safeTransferFrom(address,address,uint256)": {
        "details": "See {IERC721-safeTransferFrom}."
      },
      "safeTransferFrom(address,address,uint256,bytes)": {
        "details": "See {IERC721-safeTransferFrom}."
      },
      "setApprovalForAll(address,bool)": {
        "details": "See {IERC721-setApprovalForAll}."
      },
      "supportsInterface(bytes4)": {
        "details": "See {IERC165-supportsInterface}."
      },
      "symbol()": {
        "details": "See {IERC721Metadata-symbol}."
      },
      "tokenByIndex(uint256)": {
        "details": "See {IERC721Enumerable-tokenByIndex}."
      },
      "tokenOfOwnerByIndex(address,uint256)": {
        "details": "See {IERC721Enumerable-tokenOfOwnerByIndex}."
      },
      "tokenURI(uint256)": {
        "details": "See {IERC721Metadata-tokenURI}."
      },
      "totalSupply()": {
        "details": "See {IERC721Enumerable-totalSupply}."
      },
      "transferFrom(address,address,uint256)": {
        "details": "See {IERC721-transferFrom}."
      }
    },
    "version": 1
  },
  "userdoc": {
    "kind": "user",
    "methods": {},
    "version": 1
  }
}